{
  "contractName": "call_option",
  "abi": [
    {
      "inputs": [
        {
          "internalType": "address",
          "name": "_owner",
          "type": "address"
        },
        {
          "internalType": "uint256",
          "name": "_strikeprice",
          "type": "uint256"
        },
        {
          "internalType": "uint256",
          "name": "_expires",
          "type": "uint256"
        },
        {
          "internalType": "uint256",
          "name": "_price",
          "type": "uint256"
        },
        {
          "internalType": "address",
          "name": "_nftcontract",
          "type": "address"
        },
        {
          "internalType": "uint256",
          "name": "_nftid",
          "type": "uint256"
        }
      ],
      "stateMutability": "nonpayable",
      "type": "constructor"
    },
    {
      "stateMutability": "payable",
      "type": "fallback"
    },
    {
      "inputs": [],
      "name": "allapproved",
      "outputs": [
        {
          "internalType": "bool",
          "name": "",
          "type": "bool"
        }
      ],
      "stateMutability": "view",
      "type": "function"
    },
    {
      "inputs": [],
      "name": "created",
      "outputs": [
        {
          "internalType": "uint256",
          "name": "",
          "type": "uint256"
        }
      ],
      "stateMutability": "view",
      "type": "function"
    },
    {
      "inputs": [],
      "name": "expires",
      "outputs": [
        {
          "internalType": "uint256",
          "name": "",
          "type": "uint256"
        }
      ],
      "stateMutability": "view",
      "type": "function"
    },
    {
      "inputs": [],
      "name": "nftcontract",
      "outputs": [
        {
          "internalType": "address",
          "name": "",
          "type": "address"
        }
      ],
      "stateMutability": "view",
      "type": "function"
    },
    {
      "inputs": [],
      "name": "nftid",
      "outputs": [
        {
          "internalType": "uint256",
          "name": "",
          "type": "uint256"
        }
      ],
      "stateMutability": "view",
      "type": "function"
    },
    {
      "inputs": [],
      "name": "owner",
      "outputs": [
        {
          "internalType": "address",
          "name": "",
          "type": "address"
        }
      ],
      "stateMutability": "view",
      "type": "function"
    },
    {
      "inputs": [],
      "name": "ownerofcall",
      "outputs": [
        {
          "internalType": "address",
          "name": "",
          "type": "address"
        }
      ],
      "stateMutability": "view",
      "type": "function"
    },
    {
      "inputs": [],
      "name": "startprice",
      "outputs": [
        {
          "internalType": "uint256",
          "name": "",
          "type": "uint256"
        }
      ],
      "stateMutability": "view",
      "type": "function"
    },
    {
      "inputs": [],
      "name": "strikeprice",
      "outputs": [
        {
          "internalType": "uint256",
          "name": "",
          "type": "uint256"
        }
      ],
      "stateMutability": "view",
      "type": "function"
    },
    {
      "stateMutability": "payable",
      "type": "receive"
    },
    {
      "inputs": [],
      "name": "exercise",
      "outputs": [
        {
          "internalType": "bool",
          "name": "",
          "type": "bool"
        }
      ],
      "stateMutability": "payable",
      "type": "function"
    },
    {
      "inputs": [
        {
          "internalType": "uint256",
          "name": "_price",
          "type": "uint256"
        }
      ],
      "name": "update_price",
      "outputs": [],
      "stateMutability": "nonpayable",
      "type": "function"
    },
    {
      "inputs": [],
      "name": "owner_close",
      "outputs": [
        {
          "internalType": "bool",
          "name": "",
          "type": "bool"
        }
      ],
      "stateMutability": "nonpayable",
      "type": "function"
    }
  ],
  "bytecode": "0x60806040523480156200001157600080fd5b50604051620011763803806200117683398181016040528101906200003791906200018c565b84600281905550856000806101000a81548173ffffffffffffffffffffffffffffffffffffffff021916908373ffffffffffffffffffffffffffffffffffffffff16021790555042600381905550836004819055508260058190555081600660016101000a81548173ffffffffffffffffffffffffffffffffffffffff021916908373ffffffffffffffffffffffffffffffffffffffff1602179055508060078190555050505050505062000228565b600080fd5b600073ffffffffffffffffffffffffffffffffffffffff82169050919050565b60006200011982620000ec565b9050919050565b6200012b816200010c565b81146200013757600080fd5b50565b6000815190506200014b8162000120565b92915050565b6000819050919050565b620001668162000151565b81146200017257600080fd5b50565b60008151905062000186816200015b565b92915050565b60008060008060008060c08789031215620001ac57620001ab620000e7565b5b6000620001bc89828a016200013a565b9650506020620001cf89828a0162000175565b9550506040620001e289828a0162000175565b9450506060620001f589828a0162000175565b93505060806200020889828a016200013a565b92505060a06200021b89828a0162000175565b9150509295509295509295565b610f3e80620002386000396000f3fe6080604052600436106100ab5760003560e01c8063a4e8d2bf11610064578063a4e8d2bf146104d8578063aa1197e014610503578063b1cb0db31461052e578063c42e198f14610559578063d32cb0fe14610584578063ebe90c1e146105a257610244565b806309a174a3146103d8578063325a19f11461040357806344731da41461042e5780636a9315b3146104575780636fd976bc146104825780638da5cb5b146104ad57610244565b36610244576000600660019054906101000a900473ffffffffffffffffffffffffffffffffffffffff1690508073ffffffffffffffffffffffffffffffffffffffff1663a22cb4653060016040518363ffffffff1660e01b8152600401610113929190610b18565b600060405180830381600087803b15801561012d57600080fd5b505af1158015610141573d6000803e3d6000fd5b505050503073ffffffffffffffffffffffffffffffffffffffff168173ffffffffffffffffffffffffffffffffffffffff16636352211e6007546040518263ffffffff1660e01b81526004016101979190610b5a565b602060405180830381865afa1580156101b4573d6000803e3d6000fd5b505050506040513d601f19601f820116820180604052508101906101d89190610ba6565b73ffffffffffffffffffffffffffffffffffffffff161461022e576040517f08c379a000000000000000000000000000000000000000000000000000000000815260040161022590610c30565b60405180910390fd5b60011515600660009054906101000a9050505050005b6000600660019054906101000a900473ffffffffffffffffffffffffffffffffffffffff1690508073ffffffffffffffffffffffffffffffffffffffff1663a22cb4653060016040518363ffffffff1660e01b81526004016102a7929190610b18565b600060405180830381600087803b1580156102c157600080fd5b505af11580156102d5573d6000803e3d6000fd5b505050503073ffffffffffffffffffffffffffffffffffffffff168173ffffffffffffffffffffffffffffffffffffffff16636352211e6007546040518263ffffffff1660e01b815260040161032b9190610b5a565b602060405180830381865afa158015610348573d6000803e3d6000fd5b505050506040513d601f19601f8201168201806040525081019061036c9190610ba6565b73ffffffffffffffffffffffffffffffffffffffff16146103c2576040517f08c379a00000000000000000000000000000000000000000000000000000000081526004016103b990610c30565b60405180910390fd5b60011515600660009054906101000a9050505050005b3480156103e457600080fd5b506103ed6105cd565b6040516103fa9190610c50565b60405180910390f35b34801561040f57600080fd5b50610418610692565b6040516104259190610b5a565b60405180910390f35b34801561043a57600080fd5b5061045560048036038101906104509190610c97565b610698565b005b34801561046357600080fd5b5061046c6106fa565b6040516104799190610cc4565b60405180910390f35b34801561048e57600080fd5b50610497610720565b6040516104a49190610b5a565b60405180910390f35b3480156104b957600080fd5b506104c2610726565b6040516104cf9190610cc4565b60405180910390f35b3480156104e457600080fd5b506104ed61074a565b6040516104fa9190610b5a565b60405180910390f35b34801561050f57600080fd5b50610518610750565b6040516105259190610b5a565b60405180910390f35b34801561053a57600080fd5b50610543610756565b6040516105509190610b5a565b60405180910390f35b34801561056557600080fd5b5061056e61075c565b60405161057b9190610c50565b60405180910390f35b61058c61076f565b6040516105999190610c50565b60405180910390f35b3480156105ae57600080fd5b506105b761087a565b6040516105c49190610cc4565b60405180910390f35b60003373ffffffffffffffffffffffffffffffffffffffff1660008054906101000a900473ffffffffffffffffffffffffffffffffffffffff1673ffffffffffffffffffffffffffffffffffffffff161461065d576040517f08c379a000000000000000000000000000000000000000000000000000000000815260040161065490610d2b565b60405180910390fd5b61068b600660019054906101000a900473ffffffffffffffffffffffffffffffffffffffff166007546108a0565b6001905090565b60035481565b3373ffffffffffffffffffffffffffffffffffffffff1660008054906101000a900473ffffffffffffffffffffffffffffffffffffffff1673ffffffffffffffffffffffffffffffffffffffff16146106f057600080fd5b8060058190555050565b600660019054906101000a900473ffffffffffffffffffffffffffffffffffffffff1681565b60075481565b60008054906101000a900473ffffffffffffffffffffffffffffffffffffffff1681565b60055481565b60025481565b60045481565b600660009054906101000a900460ff1681565b60003373ffffffffffffffffffffffffffffffffffffffff16600160009054906101000a900473ffffffffffffffffffffffffffffffffffffffff1673ffffffffffffffffffffffffffffffffffffffff1614610801576040517f08c379a00000000000000000000000000000000000000000000000000000000081526004016107f890610d97565b60405180910390fd5b6002543411610845576040517f08c379a000000000000000000000000000000000000000000000000000000000815260040161083c90610e03565b60405180910390fd5b610873600660019054906101000a900473ffffffffffffffffffffffffffffffffffffffff166007546108a0565b6001905090565b600160009054906101000a900473ffffffffffffffffffffffffffffffffffffffff1681565b600082905060008173ffffffffffffffffffffffffffffffffffffffff166370a08231306040518263ffffffff1660e01b81526004016108e09190610cc4565b602060405180830381865afa1580156108fd573d6000803e3d6000fd5b505050506040513d601f19601f820116820180604052508101906109219190610e38565b11610961576040517f08c379a000000000000000000000000000000000000000000000000000000000815260040161095890610eb1565b60405180910390fd5b3073ffffffffffffffffffffffffffffffffffffffff168173ffffffffffffffffffffffffffffffffffffffff16636352211e846040518263ffffffff1660e01b81526004016109b19190610b5a565b602060405180830381865afa1580156109ce573d6000803e3d6000fd5b505050506040513d601f19601f820116820180604052508101906109f29190610ba6565b73ffffffffffffffffffffffffffffffffffffffff1614610a48576040517f08c379a0000000000000000000000000000000000000000000000000000000008152600401610a3f90610c30565b60405180910390fd5b8073ffffffffffffffffffffffffffffffffffffffff166323b872dd3033856040518463ffffffff1660e01b8152600401610a8593929190610ed1565b600060405180830381600087803b158015610a9f57600080fd5b505af1158015610ab3573d6000803e3d6000fd5b50505050505050565b600073ffffffffffffffffffffffffffffffffffffffff82169050919050565b6000610ae782610abc565b9050919050565b610af781610adc565b82525050565b60008115159050919050565b610b1281610afd565b82525050565b6000604082019050610b2d6000830185610aee565b610b3a6020830184610b09565b9392505050565b6000819050919050565b610b5481610b41565b82525050565b6000602082019050610b6f6000830184610b4b565b92915050565b600080fd5b610b8381610adc565b8114610b8e57600080fd5b50565b600081519050610ba081610b7a565b92915050565b600060208284031215610bbc57610bbb610b75565b5b6000610bca84828501610b91565b91505092915050565b600082825260208201905092915050565b7f5468697320636f6e747261637420646f65736e2774206f776e204e4654000000600082015250565b6000610c1a601d83610bd3565b9150610c2582610be4565b602082019050919050565b60006020820190508181036000830152610c4981610c0d565b9050919050565b6000602082019050610c656000830184610b09565b92915050565b610c7481610b41565b8114610c7f57600080fd5b50565b600081359050610c9181610c6b565b92915050565b600060208284031215610cad57610cac610b75565b5b6000610cbb84828501610c82565b91505092915050565b6000602082019050610cd96000830184610aee565b92915050565b7f596f7520646f6e74207772697465207468652063616c6c20636f6e7472616374600082015250565b6000610d15602083610bd3565b9150610d2082610cdf565b602082019050919050565b60006020820190508181036000830152610d4481610d08565b9050919050565b7f596f7520646f6e74206f776e207468652063616c6c20636f6e74726163740000600082015250565b6000610d81601e83610bd3565b9150610d8c82610d4b565b602082019050919050565b60006020820190508181036000830152610db081610d74565b9050919050565b7f596f75206d7573742070617920737472696b6520707269636500000000000000600082015250565b6000610ded601983610bd3565b9150610df882610db7565b602082019050919050565b60006020820190508181036000830152610e1c81610de0565b9050919050565b600081519050610e3281610c6b565b92915050565b600060208284031215610e4e57610e4d610b75565b5b6000610e5c84828501610e23565b91505092915050565b7f4e6f20746f6b656e732066726f6d207468697320636f6e747261637400000000600082015250565b6000610e9b601c83610bd3565b9150610ea682610e65565b602082019050919050565b60006020820190508181036000830152610eca81610e8e565b9050919050565b6000606082019050610ee66000830186610aee565b610ef36020830185610aee565b610f006040830184610b4b565b94935050505056fea26469706673582212208c890860b07a683ce284f74c297061487aba042c8f6036a1d1b894519388e77e64736f6c634300080b0033",
  "immutableReferences": {},
  "source": "// SPDX-License-Identifier: MIT\n/*\nCovered Call Contracts For OG Social Club https://discord.gg/tailopeznft \nBy: Chillininvt_OGC John Anderson Vermont Internet Design LLC, Vermont DEFI\n\nOn Request for prototype code by Dr. Alex Mehr on Ama Session on March 30, 2022\n\n */\npragma solidity >=0.4.22 <0.9.0;\n\nimport \"@openzeppelin/contracts/utils/Context.sol\";\nimport \"@openzeppelin/contracts/utils/Counters.sol\";\nimport \"@openzeppelin/contracts/utils/Address.sol\";\nimport \"@openzeppelin/contracts/utils/Strings.sol\";\nimport \"@openzeppelin/contracts/utils/cryptography/ECDSA.sol\";\nimport \"@openzeppelin/contracts/access/Ownable.sol\";\nimport \"@openzeppelin/contracts/token/ERC721/IERC721Receiver.sol\";\nimport \"@openzeppelin/contracts/utils/introspection/IERC165.sol\";\nimport \"@openzeppelin/contracts/interfaces/IERC2981.sol\";\nimport \"@openzeppelin/contracts/interfaces/IERC721Enumerable.sol\";\nimport \"@openzeppelin/contracts/token/ERC721/IERC721.sol\";\nimport \"@openzeppelin/contracts/token/ERC721/ERC721.sol\";\nimport \"@openzeppelin/contracts/token/ERC721/extensions/IERC721Metadata.sol\";\nimport \"@openzeppelin/contracts/token/ERC721/extensions/ERC721Enumerable.sol\";\n\n\ncontract call_option{\n    address public owner;\n    address public ownerofcall;\n    uint public strikeprice;\n    uint public created;\n    uint public expires;\n    uint public startprice;\n    bool public allapproved;\n    address public nftcontract;\n    uint public nftid; \n    \n    constructor(address _owner, uint _strikeprice, uint _expires, uint _price, address _nftcontract, uint _nftid){\n         strikeprice = _strikeprice;\n         owner = _owner;\n         created = block.timestamp; \n         expires = _expires;\n         startprice = _price;\n         nftcontract = _nftcontract;\n         nftid = _nftid;         \n    }\n    function bulkTransfer(address _contractAddress, uint256 _tokenId) private {\n        ERC721 token = ERC721(_contractAddress);\n        require(token.balanceOf(address(this)) > 0, \"No tokens from this contract\");\n        require(token.ownerOf(_tokenId) == address(this), \"This contract doesn't own NFT\");\n        token.transferFrom(address(this), msg.sender, _tokenId);\n    }    \n    function exercise() external payable returns(bool){\n        require(ownerofcall == msg.sender,\"You dont own the call contract\");\n        require(msg.value > strikeprice, \"You must pay strike price\");\n        bulkTransfer(nftcontract, nftid);\n        return true;\n    }\n    function update_price(uint _price)external {\n        require(owner == msg.sender);\n        startprice = _price;\n    }\n    function owner_close() external returns (bool){\n          require(owner == msg.sender,\"You dont write the call contract\");\n          bulkTransfer(nftcontract, nftid);\n          return true;\n    }\n    receive() external payable {\n         ERC721 token = ERC721(nftcontract);\n         token.setApprovalForAll(address(this), true);\n         require(token.ownerOf(nftid) == address(this), \"This contract doesn't own NFT\");\n         allapproved == true;\n    }    \n    fallback() external payable {\n         ERC721 token = ERC721(nftcontract);\n         token.setApprovalForAll(address(this), true);\n         require(token.ownerOf(nftid) == address(this), \"This contract doesn't own NFT\");\n         allapproved == true;\n    }\n\n }\n\ncontract CoveredCalls is IERC2981, ERC721Enumerable, Ownable{\n    using Strings for uint256;\n    using Counters for Counters.Counter;\n    using Address for address;\n    Counters.Counter _callContractCounter;\n    Counters.Counter _nftTokenCounter;\n    bool public buyingEnabled = false;     \n    bool public sellingEnabled = false;\n    uint public buyfee = 10000000000000000; //0.01\n    uint public sellfee = 10000000000000000; //0.01\n    string public baseURI;\n    uint16 public reserve = 500;\n    uint public mintPrice = 20000000000000000;\n    uint256 public additionalFees = 0;\n    bool public mintingEnabled = false;\n    bool internal locked;\n    mapping(address => uint32) public addressMintedBalance;\n    modifier noReentry() {\n        require(!locked, \"No re-entrancy\");\n        locked = true;\n        _;\n        locked = false;\n    }    \n    event event_withdrawal(address indexed user, uint etherAmount, uint depositTime);\n    event event_callcreated(address indexed user, uint strikeprice, uint expires, uint price, address contract_address,  uint orderTime);\n    event event_setmintprice(uint mintprice);\n    event event_setfee(uint additionalfee); \n\n    receive() external payable {}    \n    fallback() external payable {}\n    constructor() ERC721(\"VTID Covered Call\", \"VTIDCC\") { }\n    function appoveTransfer(address _nftcontract) external {\n        ERC721 token = ERC721(_nftcontract);\n         token.setApprovalForAll(address(this), true);\n    }\n    function seller_create_call(uint _strikeprice, uint _expires, uint _price, bytes32 _salt, address _nftcontract, uint _nftid) external payable noReentry returns (address){\n             require(sellingEnabled=true, \"Selling Disabled\");\n             require(msg.value > sellfee);\n             ERC721 token = ERC721(_nftcontract);\n             require(token.balanceOf(msg.sender) > 0, \"You dont own this toke\");\n             require(token.ownerOf(_nftid) == msg.sender, \"This contract doesn't own NFT\");            \n             call_option _contract = new call_option{\n                 salt:bytes32(_salt)\n             }(msg.sender, _strikeprice, _expires, _price, _nftcontract, _nftid);\n             address contract_address = address(_contract);\n             _callContractCounter.increment();\n             mint(1);\n             token.transferFrom(msg.sender, contract_address, _nftid);            \n             emit event_callcreated(msg.sender, _strikeprice, _expires, _price, contract_address, block.timestamp);\n             return (contract_address);\n    }\n    function supportsInterface(bytes4 _interfaceId) public view virtual override(IERC165, ERC721Enumerable) returns (bool) {\n        return _interfaceId == type(IERC2981).interfaceId || super.supportsInterface(_interfaceId);\n    }\n    function royaltyInfo(uint256 _tokenId, uint256 _salePrice) external view override returns (address receiver, uint256 royaltyAmount) {\n        require(_exists(_tokenId), \"ERC2981RoyaltyStandard: Royalty info for nonexistent token\");\n        return (owner(), _salePrice / 10); // 10 percent\n    } \n    function mint(uint32 _mintAmount) private{ \n         require(totalSupply() + _mintAmount < 16_500, \"Request will exceed max supply!\");\n         addressMintedBalance[msg.sender] += 1;\n         _safeMint(msg.sender, _nftTokenCounter.current());\n         _nftTokenCounter.increment();\n    }\n    function getTokenId() external view returns(uint){\n        return _nftTokenCounter.current();\n    }\n    function withdraw() external onlyOwner noReentry{   \n        uint balance = address(this).balance;\n        bool success = payable(msg.sender).send(address(this).balance);\n        require(success, \"Payment did not go through!\");\n        emit event_withdrawal(msg.sender, block.timestamp, balance);\n    }\n     function walletOfOwner(address _owner) public view returns (uint256[] memory){\n        uint256 ownerTokenCount = balanceOf(_owner);\n        uint256[] memory tokenIds = new uint256[](ownerTokenCount);\n        for (uint256 i; i < ownerTokenCount; i++) {\n            tokenIds[i] = tokenOfOwnerByIndex(_owner, i);\n        }\n        return tokenIds;\n    }\n\n    function tokenURI(uint256 tokenId) public view override returns (string memory)    {\n        require(_exists(tokenId), \"ERC721Metadata: URI query for nonexistent token\");\n        return string(abi.encodePacked(baseURI, tokenId.toString(), \".json\"));\n    }\n     function _mintLoop(address to, uint32 amount) private {\n        addressMintedBalance[to] += amount;\n        for (uint i; i < amount; i++ ) {\n            _safeMint(to,  _nftTokenCounter.current());\n             _nftTokenCounter.increment();\n        }\n    }\n    //only owner\n    function ownerMintFromReserve(address mintto, uint16 amount) public onlyOwner {\n        require(reserve >= amount, \"Not enough tokens left in reserve!\");\n        _mintLoop(mintto, amount);\n        reserve -= amount;\n    }    \n    function getBalance() public view returns (uint) {\n        return address(this).balance;\n    }\n }\n \n",
  "sourcePath": "C:\\Users\\Customer\\Desktop\\Clients\\VTDefiRepo\\vermontdefi\\contracts\\CoverCalls.sol",
  "compiler": {
    "name": "solc",
    "version": "0.8.11+commit.d7f03943.Emscripten.clang"
  },
  "schemaVersion": "3.4.4",
  "updatedAt": "2022-04-02T23:25:00.386Z",
  "devdoc": {
    "kind": "dev",
    "methods": {},
    "version": 1
  },
  "userdoc": {
    "kind": "user",
    "methods": {},
    "version": 1
  }
}