{
  "contractName": "call_option",
  "abi": [
    {
      "inputs": [
        {
          "internalType": "address",
          "name": "_owner",
          "type": "address"
        },
        {
          "internalType": "uint256",
          "name": "_strikeprice",
          "type": "uint256"
        },
        {
          "internalType": "uint256",
          "name": "_expires",
          "type": "uint256"
        },
        {
          "internalType": "uint256",
          "name": "_price",
          "type": "uint256"
        },
        {
          "internalType": "address",
          "name": "_nftcontract",
          "type": "address"
        },
        {
          "internalType": "uint256",
          "name": "_nftid",
          "type": "uint256"
        }
      ],
      "stateMutability": "nonpayable",
      "type": "constructor"
    },
    {
      "stateMutability": "payable",
      "type": "fallback"
    },
    {
      "inputs": [],
      "name": "allapproved",
      "outputs": [
        {
          "internalType": "bool",
          "name": "",
          "type": "bool"
        }
      ],
      "stateMutability": "view",
      "type": "function"
    },
    {
      "inputs": [],
      "name": "created",
      "outputs": [
        {
          "internalType": "uint256",
          "name": "",
          "type": "uint256"
        }
      ],
      "stateMutability": "view",
      "type": "function"
    },
    {
      "inputs": [],
      "name": "expires",
      "outputs": [
        {
          "internalType": "uint256",
          "name": "",
          "type": "uint256"
        }
      ],
      "stateMutability": "view",
      "type": "function"
    },
    {
      "inputs": [],
      "name": "nftcontract",
      "outputs": [
        {
          "internalType": "address",
          "name": "",
          "type": "address"
        }
      ],
      "stateMutability": "view",
      "type": "function"
    },
    {
      "inputs": [],
      "name": "nftid",
      "outputs": [
        {
          "internalType": "uint256",
          "name": "",
          "type": "uint256"
        }
      ],
      "stateMutability": "view",
      "type": "function"
    },
    {
      "inputs": [],
      "name": "owner",
      "outputs": [
        {
          "internalType": "address",
          "name": "",
          "type": "address"
        }
      ],
      "stateMutability": "view",
      "type": "function"
    },
    {
      "inputs": [],
      "name": "ownerofcall",
      "outputs": [
        {
          "internalType": "address",
          "name": "",
          "type": "address"
        }
      ],
      "stateMutability": "view",
      "type": "function"
    },
    {
      "inputs": [],
      "name": "startprice",
      "outputs": [
        {
          "internalType": "uint256",
          "name": "",
          "type": "uint256"
        }
      ],
      "stateMutability": "view",
      "type": "function"
    },
    {
      "inputs": [],
      "name": "strikeprice",
      "outputs": [
        {
          "internalType": "uint256",
          "name": "",
          "type": "uint256"
        }
      ],
      "stateMutability": "view",
      "type": "function"
    },
    {
      "stateMutability": "payable",
      "type": "receive"
    },
    {
      "inputs": [],
      "name": "exercise",
      "outputs": [
        {
          "internalType": "bool",
          "name": "",
          "type": "bool"
        }
      ],
      "stateMutability": "payable",
      "type": "function"
    },
    {
      "inputs": [
        {
          "internalType": "uint256",
          "name": "_price",
          "type": "uint256"
        }
      ],
      "name": "update_price",
      "outputs": [],
      "stateMutability": "nonpayable",
      "type": "function"
    },
    {
      "inputs": [],
      "name": "owner_close",
      "outputs": [
        {
          "internalType": "bool",
          "name": "",
          "type": "bool"
        }
      ],
      "stateMutability": "nonpayable",
      "type": "function"
    }
  ],
  "bytecode": "0x60806040523480156200001157600080fd5b5060405162000f7e38038062000f7e83398181016040528101906200003791906200018c565b84600281905550856000806101000a81548173ffffffffffffffffffffffffffffffffffffffff021916908373ffffffffffffffffffffffffffffffffffffffff16021790555042600381905550836004819055508260058190555081600660016101000a81548173ffffffffffffffffffffffffffffffffffffffff021916908373ffffffffffffffffffffffffffffffffffffffff1602179055508060078190555050505050505062000228565b600080fd5b600073ffffffffffffffffffffffffffffffffffffffff82169050919050565b60006200011982620000ec565b9050919050565b6200012b816200010c565b81146200013757600080fd5b50565b6000815190506200014b8162000120565b92915050565b6000819050919050565b620001668162000151565b81146200017257600080fd5b50565b60008151905062000186816200015b565b92915050565b60008060008060008060c08789031215620001ac57620001ab620000e7565b5b6000620001bc89828a016200013a565b9650506020620001cf89828a0162000175565b9550506040620001e289828a0162000175565b9450506060620001f589828a0162000175565b93505060806200020889828a016200013a565b92505060a06200021b89828a0162000175565b9150509295509295509295565b610d4680620002386000396000f3fe6080604052600436106100ab5760003560e01c8063a4e8d2bf11610064578063a4e8d2bf146102e0578063aa1197e01461030b578063b1cb0db314610336578063c42e198f14610361578063d32cb0fe1461038c578063ebe90c1e146103aa57610148565b806309a174a3146101e0578063325a19f11461020b57806344731da4146102365780636a9315b31461025f5780636fd976bc1461028a5780638da5cb5b146102b557610148565b36610148576000600660019054906101000a900473ffffffffffffffffffffffffffffffffffffffff1690508073ffffffffffffffffffffffffffffffffffffffff1663a22cb4653060016040518363ffffffff1660e01b8152600401610113929190610920565b600060405180830381600087803b15801561012d57600080fd5b505af1158015610141573d6000803e3d6000fd5b5050505050005b6000600660019054906101000a900473ffffffffffffffffffffffffffffffffffffffff1690508073ffffffffffffffffffffffffffffffffffffffff1663a22cb4653060016040518363ffffffff1660e01b81526004016101ab929190610920565b600060405180830381600087803b1580156101c557600080fd5b505af11580156101d9573d6000803e3d6000fd5b5050505050005b3480156101ec57600080fd5b506101f56103d5565b6040516102029190610949565b60405180910390f35b34801561021757600080fd5b5061022061049a565b60405161022d919061097d565b60405180910390f35b34801561024257600080fd5b5061025d600480360381019061025891906109c9565b6104a0565b005b34801561026b57600080fd5b50610274610502565b60405161028191906109f6565b60405180910390f35b34801561029657600080fd5b5061029f610528565b6040516102ac919061097d565b60405180910390f35b3480156102c157600080fd5b506102ca61052e565b6040516102d791906109f6565b60405180910390f35b3480156102ec57600080fd5b506102f5610552565b604051610302919061097d565b60405180910390f35b34801561031757600080fd5b50610320610558565b60405161032d919061097d565b60405180910390f35b34801561034257600080fd5b5061034b61055e565b604051610358919061097d565b60405180910390f35b34801561036d57600080fd5b50610376610564565b6040516103839190610949565b60405180910390f35b610394610577565b6040516103a19190610949565b60405180910390f35b3480156103b657600080fd5b506103bf610682565b6040516103cc91906109f6565b60405180910390f35b60003373ffffffffffffffffffffffffffffffffffffffff1660008054906101000a900473ffffffffffffffffffffffffffffffffffffffff1673ffffffffffffffffffffffffffffffffffffffff1614610465576040517f08c379a000000000000000000000000000000000000000000000000000000000815260040161045c90610a6e565b60405180910390fd5b610493600660019054906101000a900473ffffffffffffffffffffffffffffffffffffffff166007546106a8565b6001905090565b60035481565b3373ffffffffffffffffffffffffffffffffffffffff1660008054906101000a900473ffffffffffffffffffffffffffffffffffffffff1673ffffffffffffffffffffffffffffffffffffffff16146104f857600080fd5b8060058190555050565b600660019054906101000a900473ffffffffffffffffffffffffffffffffffffffff1681565b60075481565b60008054906101000a900473ffffffffffffffffffffffffffffffffffffffff1681565b60055481565b60025481565b60045481565b600660009054906101000a900460ff1681565b60003373ffffffffffffffffffffffffffffffffffffffff16600160009054906101000a900473ffffffffffffffffffffffffffffffffffffffff1673ffffffffffffffffffffffffffffffffffffffff1614610609576040517f08c379a000000000000000000000000000000000000000000000000000000000815260040161060090610ada565b60405180910390fd5b600254341161064d576040517f08c379a000000000000000000000000000000000000000000000000000000000815260040161064490610b46565b60405180910390fd5b61067b600660019054906101000a900473ffffffffffffffffffffffffffffffffffffffff166007546106a8565b6001905090565b600160009054906101000a900473ffffffffffffffffffffffffffffffffffffffff1681565b600082905060008173ffffffffffffffffffffffffffffffffffffffff166370a08231306040518263ffffffff1660e01b81526004016106e891906109f6565b602060405180830381865afa158015610705573d6000803e3d6000fd5b505050506040513d601f19601f820116820180604052508101906107299190610b7b565b11610769576040517f08c379a000000000000000000000000000000000000000000000000000000000815260040161076090610bf4565b60405180910390fd5b3073ffffffffffffffffffffffffffffffffffffffff168173ffffffffffffffffffffffffffffffffffffffff16636352211e846040518263ffffffff1660e01b81526004016107b9919061097d565b602060405180830381865afa1580156107d6573d6000803e3d6000fd5b505050506040513d601f19601f820116820180604052508101906107fa9190610c40565b73ffffffffffffffffffffffffffffffffffffffff1614610850576040517f08c379a000000000000000000000000000000000000000000000000000000000815260040161084790610cb9565b60405180910390fd5b8073ffffffffffffffffffffffffffffffffffffffff166323b872dd3033856040518463ffffffff1660e01b815260040161088d93929190610cd9565b600060405180830381600087803b1580156108a757600080fd5b505af11580156108bb573d6000803e3d6000fd5b50505050505050565b600073ffffffffffffffffffffffffffffffffffffffff82169050919050565b60006108ef826108c4565b9050919050565b6108ff816108e4565b82525050565b60008115159050919050565b61091a81610905565b82525050565b600060408201905061093560008301856108f6565b6109426020830184610911565b9392505050565b600060208201905061095e6000830184610911565b92915050565b6000819050919050565b61097781610964565b82525050565b6000602082019050610992600083018461096e565b92915050565b600080fd5b6109a681610964565b81146109b157600080fd5b50565b6000813590506109c38161099d565b92915050565b6000602082840312156109df576109de610998565b5b60006109ed848285016109b4565b91505092915050565b6000602082019050610a0b60008301846108f6565b92915050565b600082825260208201905092915050565b7f596f7520646f6e74207772697465207468652063616c6c20636f6e7472616374600082015250565b6000610a58602083610a11565b9150610a6382610a22565b602082019050919050565b60006020820190508181036000830152610a8781610a4b565b9050919050565b7f596f7520646f6e74206f776e207468652063616c6c20636f6e74726163740000600082015250565b6000610ac4601e83610a11565b9150610acf82610a8e565b602082019050919050565b60006020820190508181036000830152610af381610ab7565b9050919050565b7f596f75206d7573742070617920737472696b6520707269636500000000000000600082015250565b6000610b30601983610a11565b9150610b3b82610afa565b602082019050919050565b60006020820190508181036000830152610b5f81610b23565b9050919050565b600081519050610b758161099d565b92915050565b600060208284031215610b9157610b90610998565b5b6000610b9f84828501610b66565b91505092915050565b7f4e6f20746f6b656e732066726f6d207468697320636f6e747261637400000000600082015250565b6000610bde601c83610a11565b9150610be982610ba8565b602082019050919050565b60006020820190508181036000830152610c0d81610bd1565b9050919050565b610c1d816108e4565b8114610c2857600080fd5b50565b600081519050610c3a81610c14565b92915050565b600060208284031215610c5657610c55610998565b5b6000610c6484828501610c2b565b91505092915050565b7f5468697320636f6e747261637420646f65736e2774206f776e204e4654000000600082015250565b6000610ca3601d83610a11565b9150610cae82610c6d565b602082019050919050565b60006020820190508181036000830152610cd281610c96565b9050919050565b6000606082019050610cee60008301866108f6565b610cfb60208301856108f6565b610d08604083018461096e565b94935050505056fea2646970667358221220324ca8f979d5551120a1708a2689163dccbc56e898faa8137c7c7620fd4f013d64736f6c634300080b0033",
  "immutableReferences": {},
  "source": "// SPDX-License-Identifier: MIT\npragma solidity >=0.4.22 <0.9.0;\n\nimport \"@openzeppelin/contracts/utils/Context.sol\";\nimport \"@openzeppelin/contracts/utils/Counters.sol\";\nimport \"@openzeppelin/contracts/utils/Address.sol\";\nimport \"@openzeppelin/contracts/utils/Strings.sol\";\nimport \"@openzeppelin/contracts/utils/cryptography/ECDSA.sol\";\nimport \"@openzeppelin/contracts/access/Ownable.sol\";\nimport \"@openzeppelin/contracts/token/ERC721/IERC721Receiver.sol\";\nimport \"@openzeppelin/contracts/utils/introspection/IERC165.sol\";\nimport \"@openzeppelin/contracts/interfaces/IERC2981.sol\";\nimport \"@openzeppelin/contracts/interfaces/IERC721Enumerable.sol\";\nimport \"@openzeppelin/contracts/token/ERC721/IERC721.sol\";\nimport \"@openzeppelin/contracts/token/ERC721/ERC721.sol\";\nimport \"@openzeppelin/contracts/token/ERC721/extensions/IERC721Metadata.sol\";\nimport \"@openzeppelin/contracts/token/ERC721/extensions/ERC721Enumerable.sol\";\n\n\ncontract call_option{\n    address public owner;\n    address public ownerofcall;\n    uint public strikeprice;\n    uint public created;\n    uint public expires;\n    uint public startprice;\n    bool public allapproved;\n    address public nftcontract;\n    uint public nftid; \n    \n    constructor(address _owner, uint _strikeprice, uint _expires, uint _price, address _nftcontract, uint _nftid){\n         strikeprice = _strikeprice;\n         owner = _owner;\n         created = block.timestamp; \n         expires = _expires;\n         startprice = _price;\n         nftcontract = _nftcontract;\n         nftid = _nftid;         \n    }\n    function bulkTransfer(address _contractAddress, uint256 _tokenId) private {\n        ERC721 token = ERC721(_contractAddress);\n        require(token.balanceOf(address(this)) > 0, \"No tokens from this contract\");\n        require(token.ownerOf(_tokenId) == address(this), \"This contract doesn't own NFT\");\n        token.transferFrom(address(this), msg.sender, _tokenId);\n\n    }    \n    function exercise() external payable returns(bool){\n        require(ownerofcall == msg.sender,\"You dont own the call contract\");\n        require(msg.value > strikeprice, \"You must pay strike price\");\n        bulkTransfer(nftcontract, nftid);\n        return true;\n\n    }\n    function update_price(uint _price)external {\n        require(owner == msg.sender);\n        startprice = _price;\n    }\n    function owner_close() external returns (bool){\n          require(owner == msg.sender,\"You dont write the call contract\");\n          bulkTransfer(nftcontract, nftid);\n          return true;\n    }\n    receive() external payable {\n         ERC721 token = ERC721(nftcontract);\n         token.setApprovalForAll(address(this), true);    \n    }    \n    fallback() external payable {\n         ERC721 token = ERC721(nftcontract);\n         token.setApprovalForAll(address(this), true);\n    }\n\n }\n\ncontract CoveredCalls is IERC2981, ERC721Enumerable, Ownable{\n    using Strings for uint256;\n    using Counters for Counters.Counter;\n    using Address for address;\n    Counters.Counter _callContractCounter;\n    Counters.Counter _nftTokenCounter;\n    bool public buyingEnabled = false;     \n    bool public sellingEnabled = false;\n    uint public buyfee = 10000000000000000; //0.01\n    uint public sellfee = 10000000000000000; //0.01\n    string public baseURI;\n    uint16 public reserve = 500;\n    uint public mintPrice = 20000000000000000;\n    uint256 public additionalFees = 0;\n    bool public mintingEnabled = false;\n    bool internal locked;\n    mapping(address => uint32) public addressMintedBalance;\n    modifier noReentry() {\n        require(!locked, \"No re-entrancy\");\n        locked = true;\n        _;\n        locked = false;\n    }    \n    event event_withdrawal(address indexed user, uint etherAmount, uint depositTime);\n    event event_callcreated(address indexed user, uint strikeprice, uint expires, uint price, address contract_address,  uint orderTime);\n    event event_setmintprice(uint mintprice);\n    event event_setfee(uint additionalfee); \n\n    receive() external payable {}    \n    fallback() external payable {}\n    constructor() ERC721(\"VTID Covered Call\", \"VTIDCC\") { }\n\n    function seller_create_call(uint _strikeprice, uint _expires, uint _price, bytes32 _salt, address _nftcontract, uint _nftid) external payable noReentry returns (bool){\n             require(sellingEnabled=true, \"Selling Disabled\");\n             require(msg.value > sellfee);\n             call_option _contract = new call_option{\n                 salt:bytes32(_salt)\n             }(msg.sender, _strikeprice, _expires, _price, _nftcontract, _nftid);\n             address contract_address = address(_contract);\n             _callContractCounter.increment();\n             mint(1);\n             emit event_callcreated(msg.sender, _strikeprice, _expires, _price, contract_address, block.timestamp);\n             return true;\n    }\n    function supportsInterface(bytes4 _interfaceId) public view virtual override(IERC165, ERC721Enumerable) returns (bool) {\n        return _interfaceId == type(IERC2981).interfaceId || super.supportsInterface(_interfaceId);\n    }\n    function royaltyInfo(uint256 _tokenId, uint256 _salePrice) external view override returns (address receiver, uint256 royaltyAmount) {\n        require(_exists(_tokenId), \"ERC2981RoyaltyStandard: Royalty info for nonexistent token\");\n        return (owner(), _salePrice / 10); // 10 percent\n    } \n    function mint(uint32 _mintAmount) private{ \n         require(totalSupply() + _mintAmount < 16_500, \"Request will exceed max supply!\");\n         addressMintedBalance[msg.sender] += 1;\n         _safeMint(msg.sender, _nftTokenCounter.current());\n         _nftTokenCounter.increment();\n    }\n    function getTokenId() external view returns(uint){\n        return _nftTokenCounter.current();\n    }\n    function withdraw() external onlyOwner noReentry{   \n        uint balance = address(this).balance;\n        bool success = payable(msg.sender).send(address(this).balance);\n        require(success, \"Payment did not go through!\");\n        emit event_withdrawal(msg.sender, block.timestamp, balance);\n    }\n     function walletOfOwner(address _owner) public view returns (uint256[] memory){\n        uint256 ownerTokenCount = balanceOf(_owner);\n        uint256[] memory tokenIds = new uint256[](ownerTokenCount);\n        for (uint256 i; i < ownerTokenCount; i++) {\n            tokenIds[i] = tokenOfOwnerByIndex(_owner, i);\n        }\n        return tokenIds;\n    }\n\n    function tokenURI(uint256 tokenId) public view override returns (string memory)    {\n        require(_exists(tokenId), \"ERC721Metadata: URI query for nonexistent token\");\n        return string(abi.encodePacked(baseURI, tokenId.toString(), \".json\"));\n    }\n     function _mintLoop(address to, uint32 amount) private {\n        addressMintedBalance[to] += amount;\n        for (uint i; i < amount; i++ ) {\n            _safeMint(to,  _nftTokenCounter.current());\n             _nftTokenCounter.increment();\n        }\n    }\n    //only owner\n    function ownerMintFromReserve(address mintto, uint16 amount) public onlyOwner {\n        require(reserve >= amount, \"Not enough tokens left in reserve!\");\n        _mintLoop(mintto, amount);\n        reserve -= amount;\n    }    \n    function getBalance() public view returns (uint) {\n        return address(this).balance;\n    }\n }\n \n",
  "sourcePath": "C:\\Users\\Customer\\Desktop\\Clients\\VTDefiRepo\\vermontdefi\\contracts\\CoverCalls.sol",
  "compiler": {
    "name": "solc",
    "version": "0.8.11+commit.d7f03943.Emscripten.clang"
  },
  "schemaVersion": "3.4.4",
  "updatedAt": "2022-04-02T21:36:15.710Z",
  "devdoc": {
    "kind": "dev",
    "methods": {},
    "version": 1
  },
  "userdoc": {
    "kind": "user",
    "methods": {},
    "version": 1
  }
}