{
  "contractName": "CoveredCalls",
  "abi": [
    {
      "inputs": [],
      "stateMutability": "nonpayable",
      "type": "constructor"
    },
    {
      "anonymous": false,
      "inputs": [
        {
          "indexed": true,
          "internalType": "address",
          "name": "owner",
          "type": "address"
        },
        {
          "indexed": true,
          "internalType": "address",
          "name": "approved",
          "type": "address"
        },
        {
          "indexed": true,
          "internalType": "uint256",
          "name": "tokenId",
          "type": "uint256"
        }
      ],
      "name": "Approval",
      "type": "event"
    },
    {
      "anonymous": false,
      "inputs": [
        {
          "indexed": true,
          "internalType": "address",
          "name": "owner",
          "type": "address"
        },
        {
          "indexed": true,
          "internalType": "address",
          "name": "operator",
          "type": "address"
        },
        {
          "indexed": false,
          "internalType": "bool",
          "name": "approved",
          "type": "bool"
        }
      ],
      "name": "ApprovalForAll",
      "type": "event"
    },
    {
      "anonymous": false,
      "inputs": [
        {
          "indexed": true,
          "internalType": "address",
          "name": "previousOwner",
          "type": "address"
        },
        {
          "indexed": true,
          "internalType": "address",
          "name": "newOwner",
          "type": "address"
        }
      ],
      "name": "OwnershipTransferred",
      "type": "event"
    },
    {
      "anonymous": false,
      "inputs": [
        {
          "indexed": true,
          "internalType": "address",
          "name": "from",
          "type": "address"
        },
        {
          "indexed": true,
          "internalType": "address",
          "name": "to",
          "type": "address"
        },
        {
          "indexed": true,
          "internalType": "uint256",
          "name": "tokenId",
          "type": "uint256"
        }
      ],
      "name": "Transfer",
      "type": "event"
    },
    {
      "anonymous": false,
      "inputs": [
        {
          "indexed": true,
          "internalType": "address",
          "name": "user",
          "type": "address"
        },
        {
          "indexed": false,
          "internalType": "uint256",
          "name": "strikeprice",
          "type": "uint256"
        },
        {
          "indexed": false,
          "internalType": "uint256",
          "name": "expires",
          "type": "uint256"
        },
        {
          "indexed": false,
          "internalType": "uint256",
          "name": "price",
          "type": "uint256"
        },
        {
          "indexed": false,
          "internalType": "address",
          "name": "contract_address",
          "type": "address"
        },
        {
          "indexed": false,
          "internalType": "uint256",
          "name": "orderTime",
          "type": "uint256"
        }
      ],
      "name": "event_callcreated",
      "type": "event"
    },
    {
      "anonymous": false,
      "inputs": [
        {
          "indexed": false,
          "internalType": "uint256",
          "name": "additionalfee",
          "type": "uint256"
        }
      ],
      "name": "event_setfee",
      "type": "event"
    },
    {
      "anonymous": false,
      "inputs": [
        {
          "indexed": false,
          "internalType": "uint256",
          "name": "mintprice",
          "type": "uint256"
        }
      ],
      "name": "event_setmintprice",
      "type": "event"
    },
    {
      "anonymous": false,
      "inputs": [
        {
          "indexed": true,
          "internalType": "address",
          "name": "user",
          "type": "address"
        },
        {
          "indexed": false,
          "internalType": "uint256",
          "name": "etherAmount",
          "type": "uint256"
        },
        {
          "indexed": false,
          "internalType": "uint256",
          "name": "depositTime",
          "type": "uint256"
        }
      ],
      "name": "event_withdrawal",
      "type": "event"
    },
    {
      "stateMutability": "payable",
      "type": "fallback"
    },
    {
      "inputs": [],
      "name": "additionalFees",
      "outputs": [
        {
          "internalType": "uint256",
          "name": "",
          "type": "uint256"
        }
      ],
      "stateMutability": "view",
      "type": "function"
    },
    {
      "inputs": [
        {
          "internalType": "address",
          "name": "",
          "type": "address"
        }
      ],
      "name": "addressMintedBalance",
      "outputs": [
        {
          "internalType": "uint32",
          "name": "",
          "type": "uint32"
        }
      ],
      "stateMutability": "view",
      "type": "function"
    },
    {
      "inputs": [
        {
          "internalType": "address",
          "name": "to",
          "type": "address"
        },
        {
          "internalType": "uint256",
          "name": "tokenId",
          "type": "uint256"
        }
      ],
      "name": "approve",
      "outputs": [],
      "stateMutability": "nonpayable",
      "type": "function"
    },
    {
      "inputs": [
        {
          "internalType": "address",
          "name": "owner",
          "type": "address"
        }
      ],
      "name": "balanceOf",
      "outputs": [
        {
          "internalType": "uint256",
          "name": "",
          "type": "uint256"
        }
      ],
      "stateMutability": "view",
      "type": "function"
    },
    {
      "inputs": [],
      "name": "baseURI",
      "outputs": [
        {
          "internalType": "string",
          "name": "",
          "type": "string"
        }
      ],
      "stateMutability": "view",
      "type": "function"
    },
    {
      "inputs": [],
      "name": "buyfee",
      "outputs": [
        {
          "internalType": "uint256",
          "name": "",
          "type": "uint256"
        }
      ],
      "stateMutability": "view",
      "type": "function"
    },
    {
      "inputs": [],
      "name": "buyingEnabled",
      "outputs": [
        {
          "internalType": "bool",
          "name": "",
          "type": "bool"
        }
      ],
      "stateMutability": "view",
      "type": "function"
    },
    {
      "inputs": [
        {
          "internalType": "uint256",
          "name": "tokenId",
          "type": "uint256"
        }
      ],
      "name": "getApproved",
      "outputs": [
        {
          "internalType": "address",
          "name": "",
          "type": "address"
        }
      ],
      "stateMutability": "view",
      "type": "function"
    },
    {
      "inputs": [
        {
          "internalType": "address",
          "name": "owner",
          "type": "address"
        },
        {
          "internalType": "address",
          "name": "operator",
          "type": "address"
        }
      ],
      "name": "isApprovedForAll",
      "outputs": [
        {
          "internalType": "bool",
          "name": "",
          "type": "bool"
        }
      ],
      "stateMutability": "view",
      "type": "function"
    },
    {
      "inputs": [],
      "name": "mintPrice",
      "outputs": [
        {
          "internalType": "uint256",
          "name": "",
          "type": "uint256"
        }
      ],
      "stateMutability": "view",
      "type": "function"
    },
    {
      "inputs": [],
      "name": "mintingEnabled",
      "outputs": [
        {
          "internalType": "bool",
          "name": "",
          "type": "bool"
        }
      ],
      "stateMutability": "view",
      "type": "function"
    },
    {
      "inputs": [],
      "name": "name",
      "outputs": [
        {
          "internalType": "string",
          "name": "",
          "type": "string"
        }
      ],
      "stateMutability": "view",
      "type": "function"
    },
    {
      "inputs": [],
      "name": "owner",
      "outputs": [
        {
          "internalType": "address",
          "name": "",
          "type": "address"
        }
      ],
      "stateMutability": "view",
      "type": "function"
    },
    {
      "inputs": [
        {
          "internalType": "uint256",
          "name": "tokenId",
          "type": "uint256"
        }
      ],
      "name": "ownerOf",
      "outputs": [
        {
          "internalType": "address",
          "name": "",
          "type": "address"
        }
      ],
      "stateMutability": "view",
      "type": "function"
    },
    {
      "inputs": [],
      "name": "renounceOwnership",
      "outputs": [],
      "stateMutability": "nonpayable",
      "type": "function"
    },
    {
      "inputs": [],
      "name": "reserve",
      "outputs": [
        {
          "internalType": "uint16",
          "name": "",
          "type": "uint16"
        }
      ],
      "stateMutability": "view",
      "type": "function"
    },
    {
      "inputs": [
        {
          "internalType": "address",
          "name": "from",
          "type": "address"
        },
        {
          "internalType": "address",
          "name": "to",
          "type": "address"
        },
        {
          "internalType": "uint256",
          "name": "tokenId",
          "type": "uint256"
        }
      ],
      "name": "safeTransferFrom",
      "outputs": [],
      "stateMutability": "nonpayable",
      "type": "function"
    },
    {
      "inputs": [
        {
          "internalType": "address",
          "name": "from",
          "type": "address"
        },
        {
          "internalType": "address",
          "name": "to",
          "type": "address"
        },
        {
          "internalType": "uint256",
          "name": "tokenId",
          "type": "uint256"
        },
        {
          "internalType": "bytes",
          "name": "_data",
          "type": "bytes"
        }
      ],
      "name": "safeTransferFrom",
      "outputs": [],
      "stateMutability": "nonpayable",
      "type": "function"
    },
    {
      "inputs": [],
      "name": "sellfee",
      "outputs": [
        {
          "internalType": "uint256",
          "name": "",
          "type": "uint256"
        }
      ],
      "stateMutability": "view",
      "type": "function"
    },
    {
      "inputs": [],
      "name": "sellingEnabled",
      "outputs": [
        {
          "internalType": "bool",
          "name": "",
          "type": "bool"
        }
      ],
      "stateMutability": "view",
      "type": "function"
    },
    {
      "inputs": [
        {
          "internalType": "address",
          "name": "operator",
          "type": "address"
        },
        {
          "internalType": "bool",
          "name": "approved",
          "type": "bool"
        }
      ],
      "name": "setApprovalForAll",
      "outputs": [],
      "stateMutability": "nonpayable",
      "type": "function"
    },
    {
      "inputs": [],
      "name": "symbol",
      "outputs": [
        {
          "internalType": "string",
          "name": "",
          "type": "string"
        }
      ],
      "stateMutability": "view",
      "type": "function"
    },
    {
      "inputs": [
        {
          "internalType": "uint256",
          "name": "index",
          "type": "uint256"
        }
      ],
      "name": "tokenByIndex",
      "outputs": [
        {
          "internalType": "uint256",
          "name": "",
          "type": "uint256"
        }
      ],
      "stateMutability": "view",
      "type": "function"
    },
    {
      "inputs": [
        {
          "internalType": "address",
          "name": "owner",
          "type": "address"
        },
        {
          "internalType": "uint256",
          "name": "index",
          "type": "uint256"
        }
      ],
      "name": "tokenOfOwnerByIndex",
      "outputs": [
        {
          "internalType": "uint256",
          "name": "",
          "type": "uint256"
        }
      ],
      "stateMutability": "view",
      "type": "function"
    },
    {
      "inputs": [],
      "name": "totalSupply",
      "outputs": [
        {
          "internalType": "uint256",
          "name": "",
          "type": "uint256"
        }
      ],
      "stateMutability": "view",
      "type": "function"
    },
    {
      "inputs": [
        {
          "internalType": "address",
          "name": "from",
          "type": "address"
        },
        {
          "internalType": "address",
          "name": "to",
          "type": "address"
        },
        {
          "internalType": "uint256",
          "name": "tokenId",
          "type": "uint256"
        }
      ],
      "name": "transferFrom",
      "outputs": [],
      "stateMutability": "nonpayable",
      "type": "function"
    },
    {
      "inputs": [
        {
          "internalType": "address",
          "name": "newOwner",
          "type": "address"
        }
      ],
      "name": "transferOwnership",
      "outputs": [],
      "stateMutability": "nonpayable",
      "type": "function"
    },
    {
      "stateMutability": "payable",
      "type": "receive"
    },
    {
      "inputs": [
        {
          "internalType": "address",
          "name": "_nftcontract",
          "type": "address"
        }
      ],
      "name": "appoveTransfer",
      "outputs": [],
      "stateMutability": "nonpayable",
      "type": "function"
    },
    {
      "inputs": [
        {
          "internalType": "uint256",
          "name": "_strikeprice",
          "type": "uint256"
        },
        {
          "internalType": "uint256",
          "name": "_expires",
          "type": "uint256"
        },
        {
          "internalType": "uint256",
          "name": "_price",
          "type": "uint256"
        },
        {
          "internalType": "bytes32",
          "name": "_salt",
          "type": "bytes32"
        },
        {
          "internalType": "address",
          "name": "_nftcontract",
          "type": "address"
        },
        {
          "internalType": "uint256",
          "name": "_nftid",
          "type": "uint256"
        }
      ],
      "name": "seller_create_call",
      "outputs": [
        {
          "internalType": "address",
          "name": "",
          "type": "address"
        }
      ],
      "stateMutability": "payable",
      "type": "function"
    },
    {
      "inputs": [
        {
          "internalType": "bytes4",
          "name": "_interfaceId",
          "type": "bytes4"
        }
      ],
      "name": "supportsInterface",
      "outputs": [
        {
          "internalType": "bool",
          "name": "",
          "type": "bool"
        }
      ],
      "stateMutability": "view",
      "type": "function"
    },
    {
      "inputs": [
        {
          "internalType": "uint256",
          "name": "_tokenId",
          "type": "uint256"
        },
        {
          "internalType": "uint256",
          "name": "_salePrice",
          "type": "uint256"
        }
      ],
      "name": "royaltyInfo",
      "outputs": [
        {
          "internalType": "address",
          "name": "receiver",
          "type": "address"
        },
        {
          "internalType": "uint256",
          "name": "royaltyAmount",
          "type": "uint256"
        }
      ],
      "stateMutability": "view",
      "type": "function"
    },
    {
      "inputs": [],
      "name": "getTokenId",
      "outputs": [
        {
          "internalType": "uint256",
          "name": "",
          "type": "uint256"
        }
      ],
      "stateMutability": "view",
      "type": "function"
    },
    {
      "inputs": [],
      "name": "withdraw",
      "outputs": [],
      "stateMutability": "nonpayable",
      "type": "function"
    },
    {
      "inputs": [
        {
          "internalType": "address",
          "name": "_owner",
          "type": "address"
        }
      ],
      "name": "walletOfOwner",
      "outputs": [
        {
          "internalType": "uint256[]",
          "name": "",
          "type": "uint256[]"
        }
      ],
      "stateMutability": "view",
      "type": "function"
    },
    {
      "inputs": [
        {
          "internalType": "uint256",
          "name": "tokenId",
          "type": "uint256"
        }
      ],
      "name": "tokenURI",
      "outputs": [
        {
          "internalType": "string",
          "name": "",
          "type": "string"
        }
      ],
      "stateMutability": "view",
      "type": "function"
    },
    {
      "inputs": [
        {
          "internalType": "address",
          "name": "mintto",
          "type": "address"
        },
        {
          "internalType": "uint16",
          "name": "amount",
          "type": "uint16"
        }
      ],
      "name": "ownerMintFromReserve",
      "outputs": [],
      "stateMutability": "nonpayable",
      "type": "function"
    },
    {
      "inputs": [],
      "name": "getBalance",
      "outputs": [
        {
          "internalType": "uint256",
          "name": "",
          "type": "uint256"
        }
      ],
      "stateMutability": "view",
      "type": "function"
    }
  ],
  "bytecode": "0x60806040526000600d60006101000a81548160ff0219169083151502179055506000600d60016101000a81548160ff021916908315150217905550662386f26fc10000600e55662386f26fc10000600f556101f4601160006101000a81548161ffff021916908361ffff16021790555066470de4df82000060125560006013556000601460006101000a81548160ff021916908315150217905550348015620000a757600080fd5b506040518060400160405280601181526020017f5654494420436f76657265642043616c6c0000000000000000000000000000008152506040518060400160405280600681526020017f565449444343000000000000000000000000000000000000000000000000000081525081600090805190602001906200012c9291906200023c565b508060019080519060200190620001459291906200023c565b505050620001686200015c6200016e60201b60201c565b6200017660201b60201c565b62000351565b600033905090565b6000600a60009054906101000a900473ffffffffffffffffffffffffffffffffffffffff16905081600a60006101000a81548173ffffffffffffffffffffffffffffffffffffffff021916908373ffffffffffffffffffffffffffffffffffffffff1602179055508173ffffffffffffffffffffffffffffffffffffffff168173ffffffffffffffffffffffffffffffffffffffff167f8be0079c531659141344cd1fd0a4f28419497f9722a3daafe3b4186f6b6457e060405160405180910390a35050565b8280546200024a906200031b565b90600052602060002090601f0160209004810192826200026e5760008555620002ba565b82601f106200028957805160ff1916838001178555620002ba565b82800160010185558215620002ba579182015b82811115620002b95782518255916020019190600101906200029c565b5b509050620002c99190620002cd565b5090565b5b80821115620002e8576000816000905550600101620002ce565b5090565b7f4e487b7100000000000000000000000000000000000000000000000000000000600052602260045260246000fd5b600060028204905060018216806200033457607f821691505b602082108114156200034b576200034a620002ec565b5b50919050565b61631280620003616000396000f3fe608060405260043610620002535760003560e01c80636c0360eb116200013f578063beff291e11620000bb578063e095038a1162000079578063e095038a14620008f4578063e9451f5f1462000922578063e985e9c51462000952578063f2fde38b1462000996578063f771cb6514620009c4576200025b565b8063beff291e14620007ec578063c76e9bff1462000822578063c87b56dd1462000850578063caedcc4a1462000894578063cd3293de14620008c4576200025b565b80638ed2fe9111620001095780638ed2fe91146200070057806395d89b4114620007305780639fd6db121462000760578063a22cb4651462000790578063b88d4fde14620007be576200025b565b80636c0360eb146200064257806370a082311462000672578063715018a614620006b65780638da5cb5b14620006d0576200025b565b806323b872dd11620001cf57806342842e0e116200019957806342842e0e1462000518578063438b630014620005465780634f6ccce7146200058a5780636352211e14620005ce5780636817c76c1462000612576200025b565b806323b872dd14620004475780632a55205a14620004755780632f745c5914620004ba5780633ccfd60b14620004fe576200025b565b8063095ea7b3116200021d578063095ea7b3146200034557806312065fe0146200037357806318160ddd14620003a357806318cae26914620003d35780631dc369451462000417576200025b565b8063010a38f5146200025d57806301ffc9a7146200028d57806306fdde0314620002d1578063081812fc1462000301576200025b565b366200025b57005b005b3480156200026a57600080fd5b5062000275620009f4565b604051620002849190620032ce565b60405180910390f35b3480156200029a57600080fd5b50620002b96004803603810190620002b391906200335c565b62000a07565b604051620002c89190620033ab565b60405180910390f35b348015620002de57600080fd5b50620002e962000a84565b604051620002f891906200346c565b60405180910390f35b3480156200030e57600080fd5b506200032d6004803603810190620003279190620034c1565b62000b1e565b6040516200033c919062003538565b60405180910390f35b3480156200035257600080fd5b506200037160048036038101906200036b919062003586565b62000ba8565b005b3480156200038057600080fd5b506200038b62000cd1565b6040516200039a9190620032ce565b60405180910390f35b348015620003b057600080fd5b50620003bb62000cd9565b604051620003ca9190620032ce565b60405180910390f35b348015620003e057600080fd5b50620003ff6004803603810190620003f99190620035cd565b62000ce6565b6040516200040e919062003620565b60405180910390f35b3480156200042457600080fd5b506200042f62000d09565b6040516200043e9190620032ce565b60405180910390f35b3480156200045457600080fd5b506200047360048036038101906200046d91906200363d565b62000d0f565b005b3480156200048257600080fd5b50620004a160048036038101906200049b919062003699565b62000d78565b604051620004b1929190620036e0565b60405180910390f35b348015620004c757600080fd5b50620004e66004803603810190620004e0919062003586565b62000dec565b604051620004f59190620032ce565b60405180910390f35b3480156200050b57600080fd5b506200051662000e96565b005b3480156200052557600080fd5b506200054460048036038101906200053e91906200363d565b62001079565b005b3480156200055357600080fd5b506200057260048036038101906200056c9190620035cd565b6200109b565b604051620005819190620037db565b60405180910390f35b3480156200059757600080fd5b50620005b66004803603810190620005b09190620034c1565b62001158565b604051620005c59190620032ce565b60405180910390f35b348015620005db57600080fd5b50620005fa6004803603810190620005f49190620034c1565b620011d1565b60405162000609919062003538565b60405180910390f35b3480156200061f57600080fd5b506200062a62001286565b604051620006399190620032ce565b60405180910390f35b3480156200064f57600080fd5b506200065a6200128c565b6040516200066991906200346c565b60405180910390f35b3480156200067f57600080fd5b506200069e6004803603810190620006989190620035cd565b62001322565b604051620006ad9190620032ce565b60405180910390f35b348015620006c357600080fd5b50620006ce620013dd565b005b348015620006dd57600080fd5b50620006e86200146e565b604051620006f7919062003538565b60405180910390f35b3480156200070d57600080fd5b506200071862001498565b604051620007279190620033ab565b60405180910390f35b3480156200073d57600080fd5b5062000748620014ab565b6040516200075791906200346c565b60405180910390f35b3480156200076d57600080fd5b506200077862001545565b604051620007879190620033ab565b60405180910390f35b3480156200079d57600080fd5b50620007bc6004803603810190620007b6919062003830565b62001558565b005b348015620007cb57600080fd5b50620007ea6004803603810190620007e49190620039c8565b62001572565b005b6200080a600480360381019062000804919062003a94565b620015dd565b60405162000819919062003538565b60405180910390f35b3480156200082f57600080fd5b506200084e600480360381019062000848919062003b6f565b620019cf565b005b3480156200085d57600080fd5b506200087c6004803603810190620008769190620034c1565b62001aff565b6040516200088b91906200346c565b60405180910390f35b348015620008a157600080fd5b50620008ac62001b84565b604051620008bb9190620032ce565b60405180910390f35b348015620008d157600080fd5b50620008dc62001b8a565b604051620008eb919062003bc7565b60405180910390f35b3480156200090157600080fd5b506200092060048036038101906200091a9190620035cd565b62001b9e565b005b3480156200092f57600080fd5b506200093a62001c19565b604051620009499190620032ce565b60405180910390f35b3480156200095f57600080fd5b506200097e600480360381019062000978919062003be4565b62001c1f565b6040516200098d9190620033ab565b60405180910390f35b348015620009a357600080fd5b50620009c26004803603810190620009bc9190620035cd565b62001cb3565b005b348015620009d157600080fd5b50620009dc62001db7565b604051620009eb9190620033ab565b60405180910390f35b600062000a02600c62001dca565b905090565b60007f2a55205a000000000000000000000000000000000000000000000000000000007bffffffffffffffffffffffffffffffffffffffffffffffffffffffff1916827bffffffffffffffffffffffffffffffffffffffffffffffffffffffff1916148062000a7d575062000a7c8262001dd8565b5b9050919050565b60606000805462000a959062003c5a565b80601f016020809104026020016040519081016040528092919081815260200182805462000ac39062003c5a565b801562000b145780601f1062000ae85761010080835404028352916020019162000b14565b820191906000526020600020905b81548152906001019060200180831162000af657829003601f168201915b5050505050905090565b600062000b2b8262001e55565b62000b6d576040517f08c379a000000000000000000000000000000000000000000000000000000000815260040162000b649062003d06565b60405180910390fd5b6004600083815260200190815260200160002060009054906101000a900473ffffffffffffffffffffffffffffffffffffffff169050919050565b600062000bb582620011d1565b90508073ffffffffffffffffffffffffffffffffffffffff168373ffffffffffffffffffffffffffffffffffffffff16141562000c29576040517f08c379a000000000000000000000000000000000000000000000000000000000815260040162000c209062003d9e565b60405180910390fd5b8073ffffffffffffffffffffffffffffffffffffffff1662000c4a62001ec1565b73ffffffffffffffffffffffffffffffffffffffff16148062000c7e575062000c7d8162000c7762001ec1565b62001c1f565b5b62000cc0576040517f08c379a000000000000000000000000000000000000000000000000000000000815260040162000cb79062003e36565b60405180910390fd5b62000ccc838362001ec9565b505050565b600047905090565b6000600880549050905090565b60156020528060005260406000206000915054906101000a900463ffffffff1681565b600e5481565b62000d2462000d1d62001ec1565b8262001f84565b62000d66576040517f08c379a000000000000000000000000000000000000000000000000000000000815260040162000d5d9062003ece565b60405180910390fd5b62000d738383836200206f565b505050565b60008062000d868462001e55565b62000dc8576040517f08c379a000000000000000000000000000000000000000000000000000000000815260040162000dbf9062003f66565b60405180910390fd5b62000dd26200146e565b600a8462000de1919062003fe6565b915091509250929050565b600062000df98362001322565b821062000e3d576040517f08c379a000000000000000000000000000000000000000000000000000000000815260040162000e349062004094565b60405180910390fd5b600660008473ffffffffffffffffffffffffffffffffffffffff1673ffffffffffffffffffffffffffffffffffffffff168152602001908152602001600020600083815260200190815260200160002054905092915050565b62000ea062001ec1565b73ffffffffffffffffffffffffffffffffffffffff1662000ec06200146e565b73ffffffffffffffffffffffffffffffffffffffff161462000f19576040517f08c379a000000000000000000000000000000000000000000000000000000000815260040162000f109062004106565b60405180910390fd5b601460019054906101000a900460ff161562000f6c576040517f08c379a000000000000000000000000000000000000000000000000000000000815260040162000f639062004178565b60405180910390fd5b6001601460016101000a81548160ff021916908315150217905550600047905060003373ffffffffffffffffffffffffffffffffffffffff166108fc479081150290604051600060405180830381858888f1935050505090508062001008576040517f08c379a000000000000000000000000000000000000000000000000000000000815260040162000fff90620041ea565b60405180910390fd5b3373ffffffffffffffffffffffffffffffffffffffff167f820316edc5902740bd3706ccbaa6163e1b273dfc49308de0f9c4ab375047ee0d4284604051620010529291906200420c565b60405180910390a250506000601460016101000a81548160ff021916908315150217905550565b620010968383836040518060200160405280600081525062001572565b505050565b60606000620010aa8362001322565b905060008167ffffffffffffffff811115620010cb57620010ca62003881565b5b604051908082528060200260200182016040528015620010fa5781602001602082028036833780820191505090505b50905060005b828110156200114d5762001115858262000dec565b8282815181106200112b576200112a62004239565b5b6020026020010181815250508080620011449062004268565b91505062001100565b508092505050919050565b60006200116462000cd9565b8210620011a8576040517f08c379a00000000000000000000000000000000000000000000000000000000081526004016200119f906200432c565b60405180910390fd5b60088281548110620011bf57620011be62004239565b5b90600052602060002001549050919050565b6000806002600084815260200190815260200160002060009054906101000a900473ffffffffffffffffffffffffffffffffffffffff169050600073ffffffffffffffffffffffffffffffffffffffff168173ffffffffffffffffffffffffffffffffffffffff1614156200127d576040517f08c379a00000000000000000000000000000000000000000000000000000000081526004016200127490620043c4565b60405180910390fd5b80915050919050565b60125481565b601080546200129b9062003c5a565b80601f0160208091040260200160405190810160405280929190818152602001828054620012c99062003c5a565b80156200131a5780601f10620012ee576101008083540402835291602001916200131a565b820191906000526020600020905b815481529060010190602001808311620012fc57829003601f168201915b505050505081565b60008073ffffffffffffffffffffffffffffffffffffffff168273ffffffffffffffffffffffffffffffffffffffff16141562001396576040517f08c379a00000000000000000000000000000000000000000000000000000000081526004016200138d906200445c565b60405180910390fd5b600360008373ffffffffffffffffffffffffffffffffffffffff1673ffffffffffffffffffffffffffffffffffffffff168152602001908152602001600020549050919050565b620013e762001ec1565b73ffffffffffffffffffffffffffffffffffffffff16620014076200146e565b73ffffffffffffffffffffffffffffffffffffffff161462001460576040517f08c379a0000000000000000000000000000000000000000000000000000000008152600401620014579062004106565b60405180910390fd5b6200146c6000620022e8565b565b6000600a60009054906101000a900473ffffffffffffffffffffffffffffffffffffffff16905090565b600d60009054906101000a900460ff1681565b606060018054620014bc9062003c5a565b80601f0160208091040260200160405190810160405280929190818152602001828054620014ea9062003c5a565b80156200153b5780601f106200150f576101008083540402835291602001916200153b565b820191906000526020600020905b8154815290600101906020018083116200151d57829003601f168201915b5050505050905090565b601460009054906101000a900460ff1681565b6200156e6200156662001ec1565b8383620023ae565b5050565b620015876200158062001ec1565b8362001f84565b620015c9576040517f08c379a0000000000000000000000000000000000000000000000000000000008152600401620015c09062003ece565b60405180910390fd5b620015d78484848462002520565b50505050565b6000601460019054906101000a900460ff161562001632576040517f08c379a0000000000000000000000000000000000000000000000000000000008152600401620016299062004178565b60405180910390fd5b6001601460016101000a81548160ff0219169083151502179055506001600d60016101000a81548160ff0219169083151502179055620016a9576040517f08c379a0000000000000000000000000000000000000000000000000000000008152600401620016a090620044ce565b60405180910390fd5b600f543411620016b857600080fd5b600083905060008173ffffffffffffffffffffffffffffffffffffffff166370a08231336040518263ffffffff1660e01b8152600401620016fa919062003538565b602060405180830381865afa15801562001718573d6000803e3d6000fd5b505050506040513d601f19601f820116820180604052508101906200173e919062004507565b1162001781576040517f08c379a0000000000000000000000000000000000000000000000000000000008152600401620017789062004589565b60405180910390fd5b3373ffffffffffffffffffffffffffffffffffffffff168173ffffffffffffffffffffffffffffffffffffffff16636352211e856040518263ffffffff1660e01b8152600401620017d39190620032ce565b602060405180830381865afa158015620017f1573d6000803e3d6000fd5b505050506040513d601f19601f82011682018060405250810190620018179190620045c2565b73ffffffffffffffffffffffffffffffffffffffff161462001870576040517f08c379a0000000000000000000000000000000000000000000000000000000008152600401620018679062004644565b60405180910390fd5b600085338a8a8a89896040516200188790620032a5565b620018989695949392919062004666565b8190604051809103906000f5905080158015620018b9573d6000803e3d6000fd5b5090506000819050620018cd600b62002583565b620018d9600162002599565b8273ffffffffffffffffffffffffffffffffffffffff166323b872dd3383886040518463ffffffff1660e01b81526004016200191893929190620046d3565b600060405180830381600087803b1580156200193357600080fd5b505af115801562001948573d6000803e3d6000fd5b505050503373ffffffffffffffffffffffffffffffffffffffff167f6cacbe34328d89605c3b8d6a60988b879148e1219dcf3a55800824c6cd7c26048b8b8b85426040516200199c95949392919062004710565b60405180910390a28093505050506000601460016101000a81548160ff0219169083151502179055509695505050505050565b620019d962001ec1565b73ffffffffffffffffffffffffffffffffffffffff16620019f96200146e565b73ffffffffffffffffffffffffffffffffffffffff161462001a52576040517f08c379a000000000000000000000000000000000000000000000000000000000815260040162001a499062004106565b60405180910390fd5b8061ffff16601160009054906101000a900461ffff1661ffff16101562001ab0576040517f08c379a000000000000000000000000000000000000000000000000000000000815260040162001aa790620047e3565b60405180910390fd5b62001ac0828261ffff16620026a1565b80601160008282829054906101000a900461ffff1662001ae1919062004805565b92506101000a81548161ffff021916908361ffff1602179055505050565b606062001b0c8262001e55565b62001b4e576040517f08c379a000000000000000000000000000000000000000000000000000000000815260040162001b4590620048b6565b60405180910390fd5b601062001b5b836200276f565b60405160200162001b6e92919062004a0a565b6040516020818303038152906040529050919050565b60135481565b601160009054906101000a900461ffff1681565b60008190508073ffffffffffffffffffffffffffffffffffffffff1663a22cb4653060016040518363ffffffff1660e01b815260040162001be192919062004a3f565b600060405180830381600087803b15801562001bfc57600080fd5b505af115801562001c11573d6000803e3d6000fd5b505050505050565b600f5481565b6000600560008473ffffffffffffffffffffffffffffffffffffffff1673ffffffffffffffffffffffffffffffffffffffff16815260200190815260200160002060008373ffffffffffffffffffffffffffffffffffffffff1673ffffffffffffffffffffffffffffffffffffffff16815260200190815260200160002060009054906101000a900460ff16905092915050565b62001cbd62001ec1565b73ffffffffffffffffffffffffffffffffffffffff1662001cdd6200146e565b73ffffffffffffffffffffffffffffffffffffffff161462001d36576040517f08c379a000000000000000000000000000000000000000000000000000000000815260040162001d2d9062004106565b60405180910390fd5b600073ffffffffffffffffffffffffffffffffffffffff168173ffffffffffffffffffffffffffffffffffffffff16141562001da9576040517f08c379a000000000000000000000000000000000000000000000000000000000815260040162001da09062004ae2565b60405180910390fd5b62001db481620022e8565b50565b600d60019054906101000a900460ff1681565b600081600001549050919050565b60007f780e9d63000000000000000000000000000000000000000000000000000000007bffffffffffffffffffffffffffffffffffffffffffffffffffffffff1916827bffffffffffffffffffffffffffffffffffffffffffffffffffffffff1916148062001e4e575062001e4d82620028e9565b5b9050919050565b60008073ffffffffffffffffffffffffffffffffffffffff166002600084815260200190815260200160002060009054906101000a900473ffffffffffffffffffffffffffffffffffffffff1673ffffffffffffffffffffffffffffffffffffffff1614159050919050565b600033905090565b816004600083815260200190815260200160002060006101000a81548173ffffffffffffffffffffffffffffffffffffffff021916908373ffffffffffffffffffffffffffffffffffffffff160217905550808273ffffffffffffffffffffffffffffffffffffffff1662001f3e83620011d1565b73ffffffffffffffffffffffffffffffffffffffff167f8c5be1e5ebec7d5bd14f71427d1e84f3dd0314c0f7b2291e5b200ac8c7c3b92560405160405180910390a45050565b600062001f918262001e55565b62001fd3576040517f08c379a000000000000000000000000000000000000000000000000000000000815260040162001fca9062004b7a565b60405180910390fd5b600062001fe083620011d1565b90508073ffffffffffffffffffffffffffffffffffffffff168473ffffffffffffffffffffffffffffffffffffffff1614806200205257508373ffffffffffffffffffffffffffffffffffffffff166200203a8462000b1e565b73ffffffffffffffffffffffffffffffffffffffff16145b8062002066575062002065818562001c1f565b5b91505092915050565b8273ffffffffffffffffffffffffffffffffffffffff166200209182620011d1565b73ffffffffffffffffffffffffffffffffffffffff1614620020ea576040517f08c379a0000000000000000000000000000000000000000000000000000000008152600401620020e19062004c12565b60405180910390fd5b600073ffffffffffffffffffffffffffffffffffffffff168273ffffffffffffffffffffffffffffffffffffffff1614156200215d576040517f08c379a0000000000000000000000000000000000000000000000000000000008152600401620021549062004caa565b60405180910390fd5b6200216a838383620029cf565b6200217760008262001ec9565b6001600360008573ffffffffffffffffffffffffffffffffffffffff1673ffffffffffffffffffffffffffffffffffffffff1681526020019081526020016000206000828254620021c9919062004ccc565b925050819055506001600360008473ffffffffffffffffffffffffffffffffffffffff1673ffffffffffffffffffffffffffffffffffffffff168152602001908152602001600020600082825462002222919062004d07565b92505081905550816002600083815260200190815260200160002060006101000a81548173ffffffffffffffffffffffffffffffffffffffff021916908373ffffffffffffffffffffffffffffffffffffffff160217905550808273ffffffffffffffffffffffffffffffffffffffff168473ffffffffffffffffffffffffffffffffffffffff167fddf252ad1be2c89b69c2b068fc378daa952ba7f163c4a11628f55a4df523b3ef60405160405180910390a4620022e383838362002af3565b505050565b6000600a60009054906101000a900473ffffffffffffffffffffffffffffffffffffffff16905081600a60006101000a81548173ffffffffffffffffffffffffffffffffffffffff021916908373ffffffffffffffffffffffffffffffffffffffff1602179055508173ffffffffffffffffffffffffffffffffffffffff168173ffffffffffffffffffffffffffffffffffffffff167f8be0079c531659141344cd1fd0a4f28419497f9722a3daafe3b4186f6b6457e060405160405180910390a35050565b8173ffffffffffffffffffffffffffffffffffffffff168373ffffffffffffffffffffffffffffffffffffffff16141562002420576040517f08c379a0000000000000000000000000000000000000000000000000000000008152600401620024179062004db4565b60405180910390fd5b80600560008573ffffffffffffffffffffffffffffffffffffffff1673ffffffffffffffffffffffffffffffffffffffff16815260200190815260200160002060008473ffffffffffffffffffffffffffffffffffffffff1673ffffffffffffffffffffffffffffffffffffffff16815260200190815260200160002060006101000a81548160ff0219169083151502179055508173ffffffffffffffffffffffffffffffffffffffff168373ffffffffffffffffffffffffffffffffffffffff167f17307eab39ab6107e8899845ad3d59bd9653f200f220920489ca2b5937696c3183604051620025139190620033ab565b60405180910390a3505050565b6200252d8484846200206f565b6200253b8484848462002af8565b6200257d576040517f08c379a0000000000000000000000000000000000000000000000000000000008152600401620025749062004e4c565b60405180910390fd5b50505050565b6001816000016000828254019250508190555050565b6140748163ffffffff16620025ad62000cd9565b620025b9919062004d07565b10620025fc576040517f08c379a0000000000000000000000000000000000000000000000000000000008152600401620025f39062004ebe565b60405180910390fd5b6001601560003373ffffffffffffffffffffffffffffffffffffffff1673ffffffffffffffffffffffffffffffffffffffff16815260200190815260200160002060008282829054906101000a900463ffffffff166200265d919062004ee0565b92506101000a81548163ffffffff021916908363ffffffff16021790555062002692336200268c600c62001dca565b62002c91565b6200269e600c62002583565b50565b80601560008473ffffffffffffffffffffffffffffffffffffffff1673ffffffffffffffffffffffffffffffffffffffff16815260200190815260200160002060008282829054906101000a900463ffffffff1662002701919062004ee0565b92506101000a81548163ffffffff021916908363ffffffff16021790555060005b8163ffffffff168110156200276a57620027488362002742600c62001dca565b62002c91565b62002754600c62002583565b8080620027619062004268565b91505062002722565b505050565b60606000821415620027b9576040518060400160405280600181526020017f30000000000000000000000000000000000000000000000000000000000000008152509050620028e4565b600082905060005b60008214620027f1578080620027d79062004268565b915050600a82620027e9919062003fe6565b9150620027c1565b60008167ffffffffffffffff81111562002810576200280f62003881565b5b6040519080825280601f01601f191660200182016040528015620028435781602001600182028036833780820191505090505b5090505b60008514620028dd576001826200285f919062004ccc565b9150600a8562002870919062004f21565b60306200287e919062004d07565b60f81b81838151811062002897576200289662004239565b5b60200101907effffffffffffffffffffffffffffffffffffffffffffffffffffffffffffff1916908160001a905350600a85620028d5919062003fe6565b945062002847565b8093505050505b919050565b60007f80ac58cd000000000000000000000000000000000000000000000000000000007bffffffffffffffffffffffffffffffffffffffffffffffffffffffff1916827bffffffffffffffffffffffffffffffffffffffffffffffffffffffff19161480620029b557507f5b5e139f000000000000000000000000000000000000000000000000000000007bffffffffffffffffffffffffffffffffffffffffffffffffffffffff1916827bffffffffffffffffffffffffffffffffffffffffffffffffffffffff1916145b80620029c85750620029c78262002cb1565b5b9050919050565b620029dc83838362002d1b565b600073ffffffffffffffffffffffffffffffffffffffff168373ffffffffffffffffffffffffffffffffffffffff16141562002a235762002a1d8162002d20565b62002a65565b8173ffffffffffffffffffffffffffffffffffffffff168373ffffffffffffffffffffffffffffffffffffffff161462002a645762002a63838262002d69565b5b5b600073ffffffffffffffffffffffffffffffffffffffff168273ffffffffffffffffffffffffffffffffffffffff16141562002aac5762002aa68162002edb565b62002aee565b8273ffffffffffffffffffffffffffffffffffffffff168273ffffffffffffffffffffffffffffffffffffffff161462002aed5762002aec828262002fb7565b5b5b505050565b505050565b600062002b1b8473ffffffffffffffffffffffffffffffffffffffff1662003038565b1562002c84578373ffffffffffffffffffffffffffffffffffffffff1663150b7a0262002b4762001ec1565b8786866040518563ffffffff1660e01b815260040162002b6b949392919062004fb6565b6020604051808303816000875af192505050801562002baa57506040513d601f19601f8201168201806040525081019062002ba7919062005021565b60015b62002c33573d806000811462002bdd576040519150601f19603f3d011682016040523d82523d6000602084013e62002be2565b606091505b5060008151141562002c2b576040517f08c379a000000000000000000000000000000000000000000000000000000000815260040162002c229062004e4c565b60405180910390fd5b805181602001fd5b63150b7a0260e01b7bffffffffffffffffffffffffffffffffffffffffffffffffffffffff1916817bffffffffffffffffffffffffffffffffffffffffffffffffffffffff19161491505062002c89565b600190505b949350505050565b62002cad8282604051806020016040528060008152506200305b565b5050565b60007f01ffc9a7000000000000000000000000000000000000000000000000000000007bffffffffffffffffffffffffffffffffffffffffffffffffffffffff1916827bffffffffffffffffffffffffffffffffffffffffffffffffffffffff1916149050919050565b505050565b6008805490506009600083815260200190815260200160002081905550600881908060018154018082558091505060019003906000526020600020016000909190919091505550565b6000600162002d788462001322565b62002d84919062004ccc565b905060006007600084815260200190815260200160002054905081811462002e6a576000600660008673ffffffffffffffffffffffffffffffffffffffff1673ffffffffffffffffffffffffffffffffffffffff168152602001908152602001600020600084815260200190815260200160002054905080600660008773ffffffffffffffffffffffffffffffffffffffff1673ffffffffffffffffffffffffffffffffffffffff168152602001908152602001600020600084815260200190815260200160002081905550816007600083815260200190815260200160002081905550505b6007600084815260200190815260200160002060009055600660008573ffffffffffffffffffffffffffffffffffffffff1673ffffffffffffffffffffffffffffffffffffffff16815260200190815260200160002060008381526020019081526020016000206000905550505050565b6000600160088054905062002ef1919062004ccc565b905060006009600084815260200190815260200160002054905060006008838154811062002f245762002f2362004239565b5b90600052602060002001549050806008838154811062002f495762002f4862004239565b5b90600052602060002001819055508160096000838152602001908152602001600020819055506009600085815260200190815260200160002060009055600880548062002f9b5762002f9a62005053565b5b6001900381819060005260206000200160009055905550505050565b600062002fc48362001322565b905081600660008573ffffffffffffffffffffffffffffffffffffffff1673ffffffffffffffffffffffffffffffffffffffff168152602001908152602001600020600083815260200190815260200160002081905550806007600084815260200190815260200160002081905550505050565b6000808273ffffffffffffffffffffffffffffffffffffffff163b119050919050565b620030678383620030bd565b62003076600084848462002af8565b620030b8576040517f08c379a0000000000000000000000000000000000000000000000000000000008152600401620030af9062004e4c565b60405180910390fd5b505050565b600073ffffffffffffffffffffffffffffffffffffffff168273ffffffffffffffffffffffffffffffffffffffff16141562003130576040517f08c379a00000000000000000000000000000000000000000000000000000000081526004016200312790620050d2565b60405180910390fd5b6200313b8162001e55565b156200317e576040517f08c379a0000000000000000000000000000000000000000000000000000000008152600401620031759062005144565b60405180910390fd5b6200318c60008383620029cf565b6001600360008473ffffffffffffffffffffffffffffffffffffffff1673ffffffffffffffffffffffffffffffffffffffff1681526020019081526020016000206000828254620031de919062004d07565b92505081905550816002600083815260200190815260200160002060006101000a81548173ffffffffffffffffffffffffffffffffffffffff021916908373ffffffffffffffffffffffffffffffffffffffff160217905550808273ffffffffffffffffffffffffffffffffffffffff16600073ffffffffffffffffffffffffffffffffffffffff167fddf252ad1be2c89b69c2b068fc378daa952ba7f163c4a11628f55a4df523b3ef60405160405180910390a4620032a16000838362002af3565b5050565b611176806200516783390190565b6000819050919050565b620032c881620032b3565b82525050565b6000602082019050620032e56000830184620032bd565b92915050565b6000604051905090565b600080fd5b600080fd5b60007fffffffff0000000000000000000000000000000000000000000000000000000082169050919050565b6200333681620032ff565b81146200334257600080fd5b50565b60008135905062003356816200332b565b92915050565b600060208284031215620033755762003374620032f5565b5b6000620033858482850162003345565b91505092915050565b60008115159050919050565b620033a5816200338e565b82525050565b6000602082019050620033c260008301846200339a565b92915050565b600081519050919050565b600082825260208201905092915050565b60005b8381101562003404578082015181840152602081019050620033e7565b8381111562003414576000848401525b50505050565b6000601f19601f8301169050919050565b60006200343882620033c8565b620034448185620033d3565b935062003456818560208601620033e4565b62003461816200341a565b840191505092915050565b600060208201905081810360008301526200348881846200342b565b905092915050565b6200349b81620032b3565b8114620034a757600080fd5b50565b600081359050620034bb8162003490565b92915050565b600060208284031215620034da57620034d9620032f5565b5b6000620034ea84828501620034aa565b91505092915050565b600073ffffffffffffffffffffffffffffffffffffffff82169050919050565b60006200352082620034f3565b9050919050565b620035328162003513565b82525050565b60006020820190506200354f600083018462003527565b92915050565b620035608162003513565b81146200356c57600080fd5b50565b600081359050620035808162003555565b92915050565b60008060408385031215620035a0576200359f620032f5565b5b6000620035b0858286016200356f565b9250506020620035c385828601620034aa565b9150509250929050565b600060208284031215620035e657620035e5620032f5565b5b6000620035f6848285016200356f565b91505092915050565b600063ffffffff82169050919050565b6200361a81620035ff565b82525050565b60006020820190506200363760008301846200360f565b92915050565b600080600060608486031215620036595762003658620032f5565b5b600062003669868287016200356f565b93505060206200367c868287016200356f565b92505060406200368f86828701620034aa565b9150509250925092565b60008060408385031215620036b357620036b2620032f5565b5b6000620036c385828601620034aa565b9250506020620036d685828601620034aa565b9150509250929050565b6000604082019050620036f7600083018562003527565b620037066020830184620032bd565b9392505050565b600081519050919050565b600082825260208201905092915050565b6000819050602082019050919050565b6200374481620032b3565b82525050565b600062003758838362003739565b60208301905092915050565b6000602082019050919050565b60006200377e826200370d565b6200378a818562003718565b9350620037978362003729565b8060005b83811015620037ce578151620037b288826200374a565b9750620037bf8362003764565b9250506001810190506200379b565b5085935050505092915050565b60006020820190508181036000830152620037f7818462003771565b905092915050565b6200380a816200338e565b81146200381657600080fd5b50565b6000813590506200382a81620037ff565b92915050565b600080604083850312156200384a5762003849620032f5565b5b60006200385a858286016200356f565b92505060206200386d8582860162003819565b9150509250929050565b600080fd5b600080fd5b7f4e487b7100000000000000000000000000000000000000000000000000000000600052604160045260246000fd5b620038bb826200341a565b810181811067ffffffffffffffff82111715620038dd57620038dc62003881565b5b80604052505050565b6000620038f2620032eb565b9050620039008282620038b0565b919050565b600067ffffffffffffffff82111562003923576200392262003881565b5b6200392e826200341a565b9050602081019050919050565b82818337600083830152505050565b6000620039616200395b8462003905565b620038e6565b90508281526020810184848401111562003980576200397f6200387c565b5b6200398d8482856200393b565b509392505050565b600082601f830112620039ad57620039ac62003877565b5b8135620039bf8482602086016200394a565b91505092915050565b60008060008060808587031215620039e557620039e4620032f5565b5b6000620039f5878288016200356f565b945050602062003a08878288016200356f565b935050604062003a1b87828801620034aa565b925050606085013567ffffffffffffffff81111562003a3f5762003a3e620032fa565b5b62003a4d8782880162003995565b91505092959194509250565b6000819050919050565b62003a6e8162003a59565b811462003a7a57600080fd5b50565b60008135905062003a8e8162003a63565b92915050565b60008060008060008060c0878903121562003ab45762003ab3620032f5565b5b600062003ac489828a01620034aa565b965050602062003ad789828a01620034aa565b955050604062003aea89828a01620034aa565b945050606062003afd89828a0162003a7d565b935050608062003b1089828a016200356f565b92505060a062003b2389828a01620034aa565b9150509295509295509295565b600061ffff82169050919050565b62003b498162003b30565b811462003b5557600080fd5b50565b60008135905062003b698162003b3e565b92915050565b6000806040838503121562003b895762003b88620032f5565b5b600062003b99858286016200356f565b925050602062003bac8582860162003b58565b9150509250929050565b62003bc18162003b30565b82525050565b600060208201905062003bde600083018462003bb6565b92915050565b6000806040838503121562003bfe5762003bfd620032f5565b5b600062003c0e858286016200356f565b925050602062003c21858286016200356f565b9150509250929050565b7f4e487b7100000000000000000000000000000000000000000000000000000000600052602260045260246000fd5b6000600282049050600182168062003c7357607f821691505b6020821081141562003c8a5762003c8962003c2b565b5b50919050565b7f4552433732313a20617070726f76656420717565727920666f72206e6f6e657860008201527f697374656e7420746f6b656e0000000000000000000000000000000000000000602082015250565b600062003cee602c83620033d3565b915062003cfb8262003c90565b604082019050919050565b6000602082019050818103600083015262003d218162003cdf565b9050919050565b7f4552433732313a20617070726f76616c20746f2063757272656e74206f776e6560008201527f7200000000000000000000000000000000000000000000000000000000000000602082015250565b600062003d86602183620033d3565b915062003d938262003d28565b604082019050919050565b6000602082019050818103600083015262003db98162003d77565b9050919050565b7f4552433732313a20617070726f76652063616c6c6572206973206e6f74206f7760008201527f6e6572206e6f7220617070726f76656420666f7220616c6c0000000000000000602082015250565b600062003e1e603883620033d3565b915062003e2b8262003dc0565b604082019050919050565b6000602082019050818103600083015262003e518162003e0f565b9050919050565b7f4552433732313a207472616e736665722063616c6c6572206973206e6f74206f60008201527f776e6572206e6f7220617070726f766564000000000000000000000000000000602082015250565b600062003eb6603183620033d3565b915062003ec38262003e58565b604082019050919050565b6000602082019050818103600083015262003ee98162003ea7565b9050919050565b7f45524332393831526f79616c74795374616e646172643a20526f79616c74792060008201527f696e666f20666f72206e6f6e6578697374656e7420746f6b656e000000000000602082015250565b600062003f4e603a83620033d3565b915062003f5b8262003ef0565b604082019050919050565b6000602082019050818103600083015262003f818162003f3f565b9050919050565b7f4e487b7100000000000000000000000000000000000000000000000000000000600052601260045260246000fd5b7f4e487b7100000000000000000000000000000000000000000000000000000000600052601160045260246000fd5b600062003ff382620032b3565b91506200400083620032b3565b92508262004013576200401262003f88565b5b828204905092915050565b7f455243373231456e756d657261626c653a206f776e657220696e646578206f7560008201527f74206f6620626f756e6473000000000000000000000000000000000000000000602082015250565b60006200407c602b83620033d3565b915062004089826200401e565b604082019050919050565b60006020820190508181036000830152620040af816200406d565b9050919050565b7f4f776e61626c653a2063616c6c6572206973206e6f7420746865206f776e6572600082015250565b6000620040ee602083620033d3565b9150620040fb82620040b6565b602082019050919050565b600060208201905081810360008301526200412181620040df565b9050919050565b7f4e6f2072652d656e7472616e6379000000000000000000000000000000000000600082015250565b600062004160600e83620033d3565b91506200416d8262004128565b602082019050919050565b60006020820190508181036000830152620041938162004151565b9050919050565b7f5061796d656e7420646964206e6f7420676f207468726f756768210000000000600082015250565b6000620041d2601b83620033d3565b9150620041df826200419a565b602082019050919050565b600060208201905081810360008301526200420581620041c3565b9050919050565b6000604082019050620042236000830185620032bd565b620042326020830184620032bd565b9392505050565b7f4e487b7100000000000000000000000000000000000000000000000000000000600052603260045260246000fd5b60006200427582620032b3565b91507fffffffffffffffffffffffffffffffffffffffffffffffffffffffffffffffff821415620042ab57620042aa62003fb7565b5b600182019050919050565b7f455243373231456e756d657261626c653a20676c6f62616c20696e646578206f60008201527f7574206f6620626f756e64730000000000000000000000000000000000000000602082015250565b600062004314602c83620033d3565b91506200432182620042b6565b604082019050919050565b60006020820190508181036000830152620043478162004305565b9050919050565b7f4552433732313a206f776e657220717565727920666f72206e6f6e657869737460008201527f656e7420746f6b656e0000000000000000000000000000000000000000000000602082015250565b6000620043ac602983620033d3565b9150620043b9826200434e565b604082019050919050565b60006020820190508181036000830152620043df816200439d565b9050919050565b7f4552433732313a2062616c616e636520717565727920666f7220746865207a6560008201527f726f206164647265737300000000000000000000000000000000000000000000602082015250565b600062004444602a83620033d3565b91506200445182620043e6565b604082019050919050565b60006020820190508181036000830152620044778162004435565b9050919050565b7f53656c6c696e672044697361626c656400000000000000000000000000000000600082015250565b6000620044b6601083620033d3565b9150620044c3826200447e565b602082019050919050565b60006020820190508181036000830152620044e981620044a7565b9050919050565b600081519050620045018162003490565b92915050565b60006020828403121562004520576200451f620032f5565b5b60006200453084828501620044f0565b91505092915050565b7f596f7520646f6e74206f776e207468697320746f6b6500000000000000000000600082015250565b600062004571601683620033d3565b91506200457e8262004539565b602082019050919050565b60006020820190508181036000830152620045a48162004562565b9050919050565b600081519050620045bc8162003555565b92915050565b600060208284031215620045db57620045da620032f5565b5b6000620045eb84828501620045ab565b91505092915050565b7f5468697320636f6e747261637420646f65736e2774206f776e204e4654000000600082015250565b60006200462c601d83620033d3565b91506200463982620045f4565b602082019050919050565b600060208201905081810360008301526200465f816200461d565b9050919050565b600060c0820190506200467d600083018962003527565b6200468c6020830188620032bd565b6200469b6040830187620032bd565b620046aa6060830186620032bd565b620046b9608083018562003527565b620046c860a0830184620032bd565b979650505050505050565b6000606082019050620046ea600083018662003527565b620046f9602083018562003527565b620047086040830184620032bd565b949350505050565b600060a082019050620047276000830188620032bd565b620047366020830187620032bd565b620047456040830186620032bd565b62004754606083018562003527565b620047636080830184620032bd565b9695505050505050565b7f4e6f7420656e6f75676820746f6b656e73206c65667420696e2072657365727660008201527f6521000000000000000000000000000000000000000000000000000000000000602082015250565b6000620047cb602283620033d3565b9150620047d8826200476d565b604082019050919050565b60006020820190508181036000830152620047fe81620047bc565b9050919050565b6000620048128262003b30565b91506200481f8362003b30565b92508282101562004835576200483462003fb7565b5b828203905092915050565b7f4552433732314d657461646174613a2055524920717565727920666f72206e6f60008201527f6e6578697374656e7420746f6b656e0000000000000000000000000000000000602082015250565b60006200489e602f83620033d3565b9150620048ab8262004840565b604082019050919050565b60006020820190508181036000830152620048d1816200488f565b9050919050565b600081905092915050565b60008190508160005260206000209050919050565b60008154620049078162003c5a565b620049138186620048d8565b9450600182166000811462004931576001811462004943576200497a565b60ff198316865281860193506200497a565b6200494e85620048e3565b60005b83811015620049725781548189015260018201915060208101905062004951565b838801955050505b50505092915050565b60006200499082620033c8565b6200499c8185620048d8565b9350620049ae818560208601620033e4565b80840191505092915050565b7f2e6a736f6e000000000000000000000000000000000000000000000000000000600082015250565b6000620049f2600583620048d8565b9150620049ff82620049ba565b600582019050919050565b600062004a188285620048f8565b915062004a26828462004983565b915062004a3382620049e3565b91508190509392505050565b600060408201905062004a56600083018562003527565b62004a6560208301846200339a565b9392505050565b7f4f776e61626c653a206e6577206f776e657220697320746865207a65726f206160008201527f6464726573730000000000000000000000000000000000000000000000000000602082015250565b600062004aca602683620033d3565b915062004ad78262004a6c565b604082019050919050565b6000602082019050818103600083015262004afd8162004abb565b9050919050565b7f4552433732313a206f70657261746f7220717565727920666f72206e6f6e657860008201527f697374656e7420746f6b656e0000000000000000000000000000000000000000602082015250565b600062004b62602c83620033d3565b915062004b6f8262004b04565b604082019050919050565b6000602082019050818103600083015262004b958162004b53565b9050919050565b7f4552433732313a207472616e736665722066726f6d20696e636f72726563742060008201527f6f776e6572000000000000000000000000000000000000000000000000000000602082015250565b600062004bfa602583620033d3565b915062004c078262004b9c565b604082019050919050565b6000602082019050818103600083015262004c2d8162004beb565b9050919050565b7f4552433732313a207472616e7366657220746f20746865207a65726f2061646460008201527f7265737300000000000000000000000000000000000000000000000000000000602082015250565b600062004c92602483620033d3565b915062004c9f8262004c34565b604082019050919050565b6000602082019050818103600083015262004cc58162004c83565b9050919050565b600062004cd982620032b3565b915062004ce683620032b3565b92508282101562004cfc5762004cfb62003fb7565b5b828203905092915050565b600062004d1482620032b3565b915062004d2183620032b3565b9250827fffffffffffffffffffffffffffffffffffffffffffffffffffffffffffffffff0382111562004d595762004d5862003fb7565b5b828201905092915050565b7f4552433732313a20617070726f766520746f2063616c6c657200000000000000600082015250565b600062004d9c601983620033d3565b915062004da98262004d64565b602082019050919050565b6000602082019050818103600083015262004dcf8162004d8d565b9050919050565b7f4552433732313a207472616e7366657220746f206e6f6e20455243373231526560008201527f63656976657220696d706c656d656e7465720000000000000000000000000000602082015250565b600062004e34603283620033d3565b915062004e418262004dd6565b604082019050919050565b6000602082019050818103600083015262004e678162004e25565b9050919050565b7f526571756573742077696c6c20657863656564206d617820737570706c792100600082015250565b600062004ea6601f83620033d3565b915062004eb38262004e6e565b602082019050919050565b6000602082019050818103600083015262004ed98162004e97565b9050919050565b600062004eed82620035ff565b915062004efa83620035ff565b92508263ffffffff0382111562004f165762004f1562003fb7565b5b828201905092915050565b600062004f2e82620032b3565b915062004f3b83620032b3565b92508262004f4e5762004f4d62003f88565b5b828206905092915050565b600081519050919050565b600082825260208201905092915050565b600062004f828262004f59565b62004f8e818562004f64565b935062004fa0818560208601620033e4565b62004fab816200341a565b840191505092915050565b600060808201905062004fcd600083018762003527565b62004fdc602083018662003527565b62004feb6040830185620032bd565b818103606083015262004fff818462004f75565b905095945050505050565b6000815190506200501b816200332b565b92915050565b6000602082840312156200503a5762005039620032f5565b5b60006200504a848285016200500a565b91505092915050565b7f4e487b7100000000000000000000000000000000000000000000000000000000600052603160045260246000fd5b7f4552433732313a206d696e7420746f20746865207a65726f2061646472657373600082015250565b6000620050ba602083620033d3565b9150620050c78262005082565b602082019050919050565b60006020820190508181036000830152620050ed81620050ab565b9050919050565b7f4552433732313a20746f6b656e20616c7265616479206d696e74656400000000600082015250565b60006200512c601c83620033d3565b91506200513982620050f4565b602082019050919050565b600060208201905081810360008301526200515f816200511d565b905091905056fe60806040523480156200001157600080fd5b50604051620011763803806200117683398181016040528101906200003791906200018c565b84600281905550856000806101000a81548173ffffffffffffffffffffffffffffffffffffffff021916908373ffffffffffffffffffffffffffffffffffffffff16021790555042600381905550836004819055508260058190555081600660016101000a81548173ffffffffffffffffffffffffffffffffffffffff021916908373ffffffffffffffffffffffffffffffffffffffff1602179055508060078190555050505050505062000228565b600080fd5b600073ffffffffffffffffffffffffffffffffffffffff82169050919050565b60006200011982620000ec565b9050919050565b6200012b816200010c565b81146200013757600080fd5b50565b6000815190506200014b8162000120565b92915050565b6000819050919050565b620001668162000151565b81146200017257600080fd5b50565b60008151905062000186816200015b565b92915050565b60008060008060008060c08789031215620001ac57620001ab620000e7565b5b6000620001bc89828a016200013a565b9650506020620001cf89828a0162000175565b9550506040620001e289828a0162000175565b9450506060620001f589828a0162000175565b93505060806200020889828a016200013a565b92505060a06200021b89828a0162000175565b9150509295509295509295565b610f3e80620002386000396000f3fe6080604052600436106100ab5760003560e01c8063a4e8d2bf11610064578063a4e8d2bf146104d8578063aa1197e014610503578063b1cb0db31461052e578063c42e198f14610559578063d32cb0fe14610584578063ebe90c1e146105a257610244565b806309a174a3146103d8578063325a19f11461040357806344731da41461042e5780636a9315b3146104575780636fd976bc146104825780638da5cb5b146104ad57610244565b36610244576000600660019054906101000a900473ffffffffffffffffffffffffffffffffffffffff1690508073ffffffffffffffffffffffffffffffffffffffff1663a22cb4653060016040518363ffffffff1660e01b8152600401610113929190610b18565b600060405180830381600087803b15801561012d57600080fd5b505af1158015610141573d6000803e3d6000fd5b505050503073ffffffffffffffffffffffffffffffffffffffff168173ffffffffffffffffffffffffffffffffffffffff16636352211e6007546040518263ffffffff1660e01b81526004016101979190610b5a565b602060405180830381865afa1580156101b4573d6000803e3d6000fd5b505050506040513d601f19601f820116820180604052508101906101d89190610ba6565b73ffffffffffffffffffffffffffffffffffffffff161461022e576040517f08c379a000000000000000000000000000000000000000000000000000000000815260040161022590610c30565b60405180910390fd5b60011515600660009054906101000a9050505050005b6000600660019054906101000a900473ffffffffffffffffffffffffffffffffffffffff1690508073ffffffffffffffffffffffffffffffffffffffff1663a22cb4653060016040518363ffffffff1660e01b81526004016102a7929190610b18565b600060405180830381600087803b1580156102c157600080fd5b505af11580156102d5573d6000803e3d6000fd5b505050503073ffffffffffffffffffffffffffffffffffffffff168173ffffffffffffffffffffffffffffffffffffffff16636352211e6007546040518263ffffffff1660e01b815260040161032b9190610b5a565b602060405180830381865afa158015610348573d6000803e3d6000fd5b505050506040513d601f19601f8201168201806040525081019061036c9190610ba6565b73ffffffffffffffffffffffffffffffffffffffff16146103c2576040517f08c379a00000000000000000000000000000000000000000000000000000000081526004016103b990610c30565b60405180910390fd5b60011515600660009054906101000a9050505050005b3480156103e457600080fd5b506103ed6105cd565b6040516103fa9190610c50565b60405180910390f35b34801561040f57600080fd5b50610418610692565b6040516104259190610b5a565b60405180910390f35b34801561043a57600080fd5b5061045560048036038101906104509190610c97565b610698565b005b34801561046357600080fd5b5061046c6106fa565b6040516104799190610cc4565b60405180910390f35b34801561048e57600080fd5b50610497610720565b6040516104a49190610b5a565b60405180910390f35b3480156104b957600080fd5b506104c2610726565b6040516104cf9190610cc4565b60405180910390f35b3480156104e457600080fd5b506104ed61074a565b6040516104fa9190610b5a565b60405180910390f35b34801561050f57600080fd5b50610518610750565b6040516105259190610b5a565b60405180910390f35b34801561053a57600080fd5b50610543610756565b6040516105509190610b5a565b60405180910390f35b34801561056557600080fd5b5061056e61075c565b60405161057b9190610c50565b60405180910390f35b61058c61076f565b6040516105999190610c50565b60405180910390f35b3480156105ae57600080fd5b506105b761087a565b6040516105c49190610cc4565b60405180910390f35b60003373ffffffffffffffffffffffffffffffffffffffff1660008054906101000a900473ffffffffffffffffffffffffffffffffffffffff1673ffffffffffffffffffffffffffffffffffffffff161461065d576040517f08c379a000000000000000000000000000000000000000000000000000000000815260040161065490610d2b565b60405180910390fd5b61068b600660019054906101000a900473ffffffffffffffffffffffffffffffffffffffff166007546108a0565b6001905090565b60035481565b3373ffffffffffffffffffffffffffffffffffffffff1660008054906101000a900473ffffffffffffffffffffffffffffffffffffffff1673ffffffffffffffffffffffffffffffffffffffff16146106f057600080fd5b8060058190555050565b600660019054906101000a900473ffffffffffffffffffffffffffffffffffffffff1681565b60075481565b60008054906101000a900473ffffffffffffffffffffffffffffffffffffffff1681565b60055481565b60025481565b60045481565b600660009054906101000a900460ff1681565b60003373ffffffffffffffffffffffffffffffffffffffff16600160009054906101000a900473ffffffffffffffffffffffffffffffffffffffff1673ffffffffffffffffffffffffffffffffffffffff1614610801576040517f08c379a00000000000000000000000000000000000000000000000000000000081526004016107f890610d97565b60405180910390fd5b6002543411610845576040517f08c379a000000000000000000000000000000000000000000000000000000000815260040161083c90610e03565b60405180910390fd5b610873600660019054906101000a900473ffffffffffffffffffffffffffffffffffffffff166007546108a0565b6001905090565b600160009054906101000a900473ffffffffffffffffffffffffffffffffffffffff1681565b600082905060008173ffffffffffffffffffffffffffffffffffffffff166370a08231306040518263ffffffff1660e01b81526004016108e09190610cc4565b602060405180830381865afa1580156108fd573d6000803e3d6000fd5b505050506040513d601f19601f820116820180604052508101906109219190610e38565b11610961576040517f08c379a000000000000000000000000000000000000000000000000000000000815260040161095890610eb1565b60405180910390fd5b3073ffffffffffffffffffffffffffffffffffffffff168173ffffffffffffffffffffffffffffffffffffffff16636352211e846040518263ffffffff1660e01b81526004016109b19190610b5a565b602060405180830381865afa1580156109ce573d6000803e3d6000fd5b505050506040513d601f19601f820116820180604052508101906109f29190610ba6565b73ffffffffffffffffffffffffffffffffffffffff1614610a48576040517f08c379a0000000000000000000000000000000000000000000000000000000008152600401610a3f90610c30565b60405180910390fd5b8073ffffffffffffffffffffffffffffffffffffffff166323b872dd3033856040518463ffffffff1660e01b8152600401610a8593929190610ed1565b600060405180830381600087803b158015610a9f57600080fd5b505af1158015610ab3573d6000803e3d6000fd5b50505050505050565b600073ffffffffffffffffffffffffffffffffffffffff82169050919050565b6000610ae782610abc565b9050919050565b610af781610adc565b82525050565b60008115159050919050565b610b1281610afd565b82525050565b6000604082019050610b2d6000830185610aee565b610b3a6020830184610b09565b9392505050565b6000819050919050565b610b5481610b41565b82525050565b6000602082019050610b6f6000830184610b4b565b92915050565b600080fd5b610b8381610adc565b8114610b8e57600080fd5b50565b600081519050610ba081610b7a565b92915050565b600060208284031215610bbc57610bbb610b75565b5b6000610bca84828501610b91565b91505092915050565b600082825260208201905092915050565b7f5468697320636f6e747261637420646f65736e2774206f776e204e4654000000600082015250565b6000610c1a601d83610bd3565b9150610c2582610be4565b602082019050919050565b60006020820190508181036000830152610c4981610c0d565b9050919050565b6000602082019050610c656000830184610b09565b92915050565b610c7481610b41565b8114610c7f57600080fd5b50565b600081359050610c9181610c6b565b92915050565b600060208284031215610cad57610cac610b75565b5b6000610cbb84828501610c82565b91505092915050565b6000602082019050610cd96000830184610aee565b92915050565b7f596f7520646f6e74207772697465207468652063616c6c20636f6e7472616374600082015250565b6000610d15602083610bd3565b9150610d2082610cdf565b602082019050919050565b60006020820190508181036000830152610d4481610d08565b9050919050565b7f596f7520646f6e74206f776e207468652063616c6c20636f6e74726163740000600082015250565b6000610d81601e83610bd3565b9150610d8c82610d4b565b602082019050919050565b60006020820190508181036000830152610db081610d74565b9050919050565b7f596f75206d7573742070617920737472696b6520707269636500000000000000600082015250565b6000610ded601983610bd3565b9150610df882610db7565b602082019050919050565b60006020820190508181036000830152610e1c81610de0565b9050919050565b600081519050610e3281610c6b565b92915050565b600060208284031215610e4e57610e4d610b75565b5b6000610e5c84828501610e23565b91505092915050565b7f4e6f20746f6b656e732066726f6d207468697320636f6e747261637400000000600082015250565b6000610e9b601c83610bd3565b9150610ea682610e65565b602082019050919050565b60006020820190508181036000830152610eca81610e8e565b9050919050565b6000606082019050610ee66000830186610aee565b610ef36020830185610aee565b610f006040830184610b4b565b94935050505056fea26469706673582212208c890860b07a683ce284f74c297061487aba042c8f6036a1d1b894519388e77e64736f6c634300080b0033a264697066735822122073b634bb01f47869f8959dfd03aa13c1290639e6debd2b00021d9c5d5473baae64736f6c634300080b0033",
  "immutableReferences": {},
  "source": "// SPDX-License-Identifier: MIT\n/*\nCovered Call Contracts For OG Social Club https://discord.gg/tailopeznft \nBy: Chillininvt_OGC John Anderson Vermont Internet Design LLC, Vermont DEFI\n\nOn Request for prototype code by Dr. Alex Mehr on Ama Session on March 30, 2022\n\n */\npragma solidity >=0.4.22 <0.9.0;\n\nimport \"@openzeppelin/contracts/utils/Context.sol\";\nimport \"@openzeppelin/contracts/utils/Counters.sol\";\nimport \"@openzeppelin/contracts/utils/Address.sol\";\nimport \"@openzeppelin/contracts/utils/Strings.sol\";\nimport \"@openzeppelin/contracts/utils/cryptography/ECDSA.sol\";\nimport \"@openzeppelin/contracts/access/Ownable.sol\";\nimport \"@openzeppelin/contracts/token/ERC721/IERC721Receiver.sol\";\nimport \"@openzeppelin/contracts/utils/introspection/IERC165.sol\";\nimport \"@openzeppelin/contracts/interfaces/IERC2981.sol\";\nimport \"@openzeppelin/contracts/interfaces/IERC721Enumerable.sol\";\nimport \"@openzeppelin/contracts/token/ERC721/IERC721.sol\";\nimport \"@openzeppelin/contracts/token/ERC721/ERC721.sol\";\nimport \"@openzeppelin/contracts/token/ERC721/extensions/IERC721Metadata.sol\";\nimport \"@openzeppelin/contracts/token/ERC721/extensions/ERC721Enumerable.sol\";\n\n\ncontract call_option{\n    address public owner;\n    address public ownerofcall;\n    uint public strikeprice;\n    uint public created;\n    uint public expires;\n    uint public startprice;\n    bool public allapproved;\n    address public nftcontract;\n    uint public nftid; \n    \n    constructor(address _owner, uint _strikeprice, uint _expires, uint _price, address _nftcontract, uint _nftid){\n         strikeprice = _strikeprice;\n         owner = _owner;\n         created = block.timestamp; \n         expires = _expires;\n         startprice = _price;\n         nftcontract = _nftcontract;\n         nftid = _nftid;         \n    }\n    function bulkTransfer(address _contractAddress, uint256 _tokenId) private {\n        ERC721 token = ERC721(_contractAddress);\n        require(token.balanceOf(address(this)) > 0, \"No tokens from this contract\");\n        require(token.ownerOf(_tokenId) == address(this), \"This contract doesn't own NFT\");\n        token.transferFrom(address(this), msg.sender, _tokenId);\n    }    \n    function exercise() external payable returns(bool){\n        require(ownerofcall == msg.sender,\"You dont own the call contract\");\n        require(msg.value > strikeprice, \"You must pay strike price\");\n        bulkTransfer(nftcontract, nftid);\n        return true;\n    }\n    function update_price(uint _price)external {\n        require(owner == msg.sender);\n        startprice = _price;\n    }\n    function owner_close() external returns (bool){\n          require(owner == msg.sender,\"You dont write the call contract\");\n          bulkTransfer(nftcontract, nftid);\n          return true;\n    }\n    receive() external payable {\n         ERC721 token = ERC721(nftcontract);\n         token.setApprovalForAll(address(this), true);\n         require(token.ownerOf(nftid) == address(this), \"This contract doesn't own NFT\");\n         allapproved == true;\n    }    \n    fallback() external payable {\n         ERC721 token = ERC721(nftcontract);\n         token.setApprovalForAll(address(this), true);\n         require(token.ownerOf(nftid) == address(this), \"This contract doesn't own NFT\");\n         allapproved == true;\n    }\n\n }\n\ncontract CoveredCalls is IERC2981, ERC721Enumerable, Ownable{\n    using Strings for uint256;\n    using Counters for Counters.Counter;\n    using Address for address;\n    Counters.Counter _callContractCounter;\n    Counters.Counter _nftTokenCounter;\n    bool public buyingEnabled = false;     \n    bool public sellingEnabled = false;\n    uint public buyfee = 10000000000000000; //0.01\n    uint public sellfee = 10000000000000000; //0.01\n    string public baseURI;\n    uint16 public reserve = 500;\n    uint public mintPrice = 20000000000000000;\n    uint256 public additionalFees = 0;\n    bool public mintingEnabled = false;\n    bool internal locked;\n    mapping(address => uint32) public addressMintedBalance;\n    modifier noReentry() {\n        require(!locked, \"No re-entrancy\");\n        locked = true;\n        _;\n        locked = false;\n    }    \n    event event_withdrawal(address indexed user, uint etherAmount, uint depositTime);\n    event event_callcreated(address indexed user, uint strikeprice, uint expires, uint price, address contract_address,  uint orderTime);\n    event event_setmintprice(uint mintprice);\n    event event_setfee(uint additionalfee); \n\n    receive() external payable {}    \n    fallback() external payable {}\n    constructor() ERC721(\"VTID Covered Call\", \"VTIDCC\") { }\n    function appoveTransfer(address _nftcontract) external {\n        ERC721 token = ERC721(_nftcontract);\n         token.setApprovalForAll(address(this), true);\n    }\n    function seller_create_call(uint _strikeprice, uint _expires, uint _price, bytes32 _salt, address _nftcontract, uint _nftid) external payable noReentry returns (address){\n             require(sellingEnabled=true, \"Selling Disabled\");\n             require(msg.value > sellfee);\n             ERC721 token = ERC721(_nftcontract);\n             require(token.balanceOf(msg.sender) > 0, \"You dont own this toke\");\n             require(token.ownerOf(_nftid) == msg.sender, \"This contract doesn't own NFT\");            \n             call_option _contract = new call_option{\n                 salt:bytes32(_salt)\n             }(msg.sender, _strikeprice, _expires, _price, _nftcontract, _nftid);\n             address contract_address = address(_contract);\n             _callContractCounter.increment();\n             mint(1);\n             token.transferFrom(msg.sender, contract_address, _nftid);            \n             emit event_callcreated(msg.sender, _strikeprice, _expires, _price, contract_address, block.timestamp);\n             return (contract_address);\n    }\n    function supportsInterface(bytes4 _interfaceId) public view virtual override(IERC165, ERC721Enumerable) returns (bool) {\n        return _interfaceId == type(IERC2981).interfaceId || super.supportsInterface(_interfaceId);\n    }\n    function royaltyInfo(uint256 _tokenId, uint256 _salePrice) external view override returns (address receiver, uint256 royaltyAmount) {\n        require(_exists(_tokenId), \"ERC2981RoyaltyStandard: Royalty info for nonexistent token\");\n        return (owner(), _salePrice / 10); // 10 percent\n    } \n    function mint(uint32 _mintAmount) private{ \n         require(totalSupply() + _mintAmount < 16_500, \"Request will exceed max supply!\");\n         addressMintedBalance[msg.sender] += 1;\n         _safeMint(msg.sender, _nftTokenCounter.current());\n         _nftTokenCounter.increment();\n    }\n    function getTokenId() external view returns(uint){\n        return _nftTokenCounter.current();\n    }\n    function withdraw() external onlyOwner noReentry{   \n        uint balance = address(this).balance;\n        bool success = payable(msg.sender).send(address(this).balance);\n        require(success, \"Payment did not go through!\");\n        emit event_withdrawal(msg.sender, block.timestamp, balance);\n    }\n     function walletOfOwner(address _owner) public view returns (uint256[] memory){\n        uint256 ownerTokenCount = balanceOf(_owner);\n        uint256[] memory tokenIds = new uint256[](ownerTokenCount);\n        for (uint256 i; i < ownerTokenCount; i++) {\n            tokenIds[i] = tokenOfOwnerByIndex(_owner, i);\n        }\n        return tokenIds;\n    }\n\n    function tokenURI(uint256 tokenId) public view override returns (string memory)    {\n        require(_exists(tokenId), \"ERC721Metadata: URI query for nonexistent token\");\n        return string(abi.encodePacked(baseURI, tokenId.toString(), \".json\"));\n    }\n     function _mintLoop(address to, uint32 amount) private {\n        addressMintedBalance[to] += amount;\n        for (uint i; i < amount; i++ ) {\n            _safeMint(to,  _nftTokenCounter.current());\n             _nftTokenCounter.increment();\n        }\n    }\n    //only owner\n    function ownerMintFromReserve(address mintto, uint16 amount) public onlyOwner {\n        require(reserve >= amount, \"Not enough tokens left in reserve!\");\n        _mintLoop(mintto, amount);\n        reserve -= amount;\n    }    \n    function getBalance() public view returns (uint) {\n        return address(this).balance;\n    }\n }\n \n",
  "sourcePath": "C:\\Users\\Customer\\Desktop\\Clients\\VTDefiRepo\\vermontdefi\\contracts\\CoverCalls.sol",
  "compiler": {
    "name": "solc",
    "version": "0.8.11+commit.d7f03943.Emscripten.clang"
  },
  "schemaVersion": "3.4.4",
  "updatedAt": "2022-04-02T23:25:00.295Z",
  "devdoc": {
    "kind": "dev",
    "methods": {
      "approve(address,uint256)": {
        "details": "See {IERC721-approve}."
      },
      "balanceOf(address)": {
        "details": "See {IERC721-balanceOf}."
      },
      "getApproved(uint256)": {
        "details": "See {IERC721-getApproved}."
      },
      "isApprovedForAll(address,address)": {
        "details": "See {IERC721-isApprovedForAll}."
      },
      "name()": {
        "details": "See {IERC721Metadata-name}."
      },
      "owner()": {
        "details": "Returns the address of the current owner."
      },
      "ownerOf(uint256)": {
        "details": "See {IERC721-ownerOf}."
      },
      "renounceOwnership()": {
        "details": "Leaves the contract without owner. It will not be possible to call `onlyOwner` functions anymore. Can only be called by the current owner. NOTE: Renouncing ownership will leave the contract without an owner, thereby removing any functionality that is only available to the owner."
      },
      "safeTransferFrom(address,address,uint256)": {
        "details": "See {IERC721-safeTransferFrom}."
      },
      "safeTransferFrom(address,address,uint256,bytes)": {
        "details": "See {IERC721-safeTransferFrom}."
      },
      "setApprovalForAll(address,bool)": {
        "details": "See {IERC721-setApprovalForAll}."
      },
      "symbol()": {
        "details": "See {IERC721Metadata-symbol}."
      },
      "tokenByIndex(uint256)": {
        "details": "See {IERC721Enumerable-tokenByIndex}."
      },
      "tokenOfOwnerByIndex(address,uint256)": {
        "details": "See {IERC721Enumerable-tokenOfOwnerByIndex}."
      },
      "tokenURI(uint256)": {
        "details": "See {IERC721Metadata-tokenURI}."
      },
      "totalSupply()": {
        "details": "See {IERC721Enumerable-totalSupply}."
      },
      "transferFrom(address,address,uint256)": {
        "details": "See {IERC721-transferFrom}."
      },
      "transferOwnership(address)": {
        "details": "Transfers ownership of the contract to a new account (`newOwner`). Can only be called by the current owner."
      }
    },
    "version": 1
  },
  "userdoc": {
    "kind": "user",
    "methods": {},
    "version": 1
  }
}