{
  "contractName": "CoveredCalls",
  "abi": [
    {
      "inputs": [],
      "stateMutability": "nonpayable",
      "type": "constructor"
    },
    {
      "anonymous": false,
      "inputs": [
        {
          "indexed": true,
          "internalType": "address",
          "name": "owner",
          "type": "address"
        },
        {
          "indexed": true,
          "internalType": "address",
          "name": "approved",
          "type": "address"
        },
        {
          "indexed": true,
          "internalType": "uint256",
          "name": "tokenId",
          "type": "uint256"
        }
      ],
      "name": "Approval",
      "type": "event"
    },
    {
      "anonymous": false,
      "inputs": [
        {
          "indexed": true,
          "internalType": "address",
          "name": "owner",
          "type": "address"
        },
        {
          "indexed": true,
          "internalType": "address",
          "name": "operator",
          "type": "address"
        },
        {
          "indexed": false,
          "internalType": "bool",
          "name": "approved",
          "type": "bool"
        }
      ],
      "name": "ApprovalForAll",
      "type": "event"
    },
    {
      "anonymous": false,
      "inputs": [
        {
          "indexed": true,
          "internalType": "address",
          "name": "previousOwner",
          "type": "address"
        },
        {
          "indexed": true,
          "internalType": "address",
          "name": "newOwner",
          "type": "address"
        }
      ],
      "name": "OwnershipTransferred",
      "type": "event"
    },
    {
      "anonymous": false,
      "inputs": [
        {
          "indexed": true,
          "internalType": "address",
          "name": "from",
          "type": "address"
        },
        {
          "indexed": true,
          "internalType": "address",
          "name": "to",
          "type": "address"
        },
        {
          "indexed": true,
          "internalType": "uint256",
          "name": "tokenId",
          "type": "uint256"
        }
      ],
      "name": "Transfer",
      "type": "event"
    },
    {
      "anonymous": false,
      "inputs": [
        {
          "indexed": true,
          "internalType": "address",
          "name": "user",
          "type": "address"
        },
        {
          "indexed": false,
          "internalType": "uint256",
          "name": "strikeprice",
          "type": "uint256"
        },
        {
          "indexed": false,
          "internalType": "uint256",
          "name": "expires",
          "type": "uint256"
        },
        {
          "indexed": false,
          "internalType": "uint256",
          "name": "price",
          "type": "uint256"
        },
        {
          "indexed": false,
          "internalType": "address",
          "name": "contract_address",
          "type": "address"
        },
        {
          "indexed": false,
          "internalType": "uint256",
          "name": "orderTime",
          "type": "uint256"
        }
      ],
      "name": "event_callcreated",
      "type": "event"
    },
    {
      "anonymous": false,
      "inputs": [
        {
          "indexed": false,
          "internalType": "uint256",
          "name": "additionalfee",
          "type": "uint256"
        }
      ],
      "name": "event_setfee",
      "type": "event"
    },
    {
      "anonymous": false,
      "inputs": [
        {
          "indexed": false,
          "internalType": "uint256",
          "name": "mintprice",
          "type": "uint256"
        }
      ],
      "name": "event_setmintprice",
      "type": "event"
    },
    {
      "anonymous": false,
      "inputs": [
        {
          "indexed": true,
          "internalType": "address",
          "name": "user",
          "type": "address"
        },
        {
          "indexed": false,
          "internalType": "uint256",
          "name": "etherAmount",
          "type": "uint256"
        },
        {
          "indexed": false,
          "internalType": "uint256",
          "name": "depositTime",
          "type": "uint256"
        }
      ],
      "name": "event_withdrawal",
      "type": "event"
    },
    {
      "stateMutability": "payable",
      "type": "fallback",
      "payable": true
    },
    {
      "inputs": [],
      "name": "additionalFees",
      "outputs": [
        {
          "internalType": "uint256",
          "name": "",
          "type": "uint256"
        }
      ],
      "stateMutability": "view",
      "type": "function",
      "constant": true
    },
    {
      "inputs": [
        {
          "internalType": "address",
          "name": "",
          "type": "address"
        }
      ],
      "name": "addressMintedBalance",
      "outputs": [
        {
          "internalType": "uint32",
          "name": "",
          "type": "uint32"
        }
      ],
      "stateMutability": "view",
      "type": "function",
      "constant": true
    },
    {
      "inputs": [
        {
          "internalType": "address",
          "name": "to",
          "type": "address"
        },
        {
          "internalType": "uint256",
          "name": "tokenId",
          "type": "uint256"
        }
      ],
      "name": "approve",
      "outputs": [],
      "stateMutability": "nonpayable",
      "type": "function"
    },
    {
      "inputs": [
        {
          "internalType": "address",
          "name": "owner",
          "type": "address"
        }
      ],
      "name": "balanceOf",
      "outputs": [
        {
          "internalType": "uint256",
          "name": "",
          "type": "uint256"
        }
      ],
      "stateMutability": "view",
      "type": "function",
      "constant": true
    },
    {
      "inputs": [],
      "name": "baseURI",
      "outputs": [
        {
          "internalType": "string",
          "name": "",
          "type": "string"
        }
      ],
      "stateMutability": "view",
      "type": "function",
      "constant": true
    },
    {
      "inputs": [],
      "name": "buyfee",
      "outputs": [
        {
          "internalType": "uint256",
          "name": "",
          "type": "uint256"
        }
      ],
      "stateMutability": "view",
      "type": "function",
      "constant": true
    },
    {
      "inputs": [],
      "name": "buyingEnabled",
      "outputs": [
        {
          "internalType": "bool",
          "name": "",
          "type": "bool"
        }
      ],
      "stateMutability": "view",
      "type": "function",
      "constant": true
    },
    {
      "inputs": [
        {
          "internalType": "uint256",
          "name": "tokenId",
          "type": "uint256"
        }
      ],
      "name": "getApproved",
      "outputs": [
        {
          "internalType": "address",
          "name": "",
          "type": "address"
        }
      ],
      "stateMutability": "view",
      "type": "function",
      "constant": true
    },
    {
      "inputs": [
        {
          "internalType": "address",
          "name": "owner",
          "type": "address"
        },
        {
          "internalType": "address",
          "name": "operator",
          "type": "address"
        }
      ],
      "name": "isApprovedForAll",
      "outputs": [
        {
          "internalType": "bool",
          "name": "",
          "type": "bool"
        }
      ],
      "stateMutability": "view",
      "type": "function",
      "constant": true
    },
    {
      "inputs": [],
      "name": "mintPrice",
      "outputs": [
        {
          "internalType": "uint256",
          "name": "",
          "type": "uint256"
        }
      ],
      "stateMutability": "view",
      "type": "function",
      "constant": true
    },
    {
      "inputs": [],
      "name": "mintingEnabled",
      "outputs": [
        {
          "internalType": "bool",
          "name": "",
          "type": "bool"
        }
      ],
      "stateMutability": "view",
      "type": "function",
      "constant": true
    },
    {
      "inputs": [],
      "name": "name",
      "outputs": [
        {
          "internalType": "string",
          "name": "",
          "type": "string"
        }
      ],
      "stateMutability": "view",
      "type": "function",
      "constant": true
    },
    {
      "inputs": [],
      "name": "owner",
      "outputs": [
        {
          "internalType": "address",
          "name": "",
          "type": "address"
        }
      ],
      "stateMutability": "view",
      "type": "function",
      "constant": true
    },
    {
      "inputs": [
        {
          "internalType": "uint256",
          "name": "tokenId",
          "type": "uint256"
        }
      ],
      "name": "ownerOf",
      "outputs": [
        {
          "internalType": "address",
          "name": "",
          "type": "address"
        }
      ],
      "stateMutability": "view",
      "type": "function",
      "constant": true
    },
    {
      "inputs": [],
      "name": "renounceOwnership",
      "outputs": [],
      "stateMutability": "nonpayable",
      "type": "function"
    },
    {
      "inputs": [],
      "name": "reserve",
      "outputs": [
        {
          "internalType": "uint16",
          "name": "",
          "type": "uint16"
        }
      ],
      "stateMutability": "view",
      "type": "function",
      "constant": true
    },
    {
      "inputs": [
        {
          "internalType": "address",
          "name": "from",
          "type": "address"
        },
        {
          "internalType": "address",
          "name": "to",
          "type": "address"
        },
        {
          "internalType": "uint256",
          "name": "tokenId",
          "type": "uint256"
        }
      ],
      "name": "safeTransferFrom",
      "outputs": [],
      "stateMutability": "nonpayable",
      "type": "function"
    },
    {
      "inputs": [
        {
          "internalType": "address",
          "name": "from",
          "type": "address"
        },
        {
          "internalType": "address",
          "name": "to",
          "type": "address"
        },
        {
          "internalType": "uint256",
          "name": "tokenId",
          "type": "uint256"
        },
        {
          "internalType": "bytes",
          "name": "_data",
          "type": "bytes"
        }
      ],
      "name": "safeTransferFrom",
      "outputs": [],
      "stateMutability": "nonpayable",
      "type": "function"
    },
    {
      "inputs": [],
      "name": "sellfee",
      "outputs": [
        {
          "internalType": "uint256",
          "name": "",
          "type": "uint256"
        }
      ],
      "stateMutability": "view",
      "type": "function",
      "constant": true
    },
    {
      "inputs": [],
      "name": "sellingEnabled",
      "outputs": [
        {
          "internalType": "bool",
          "name": "",
          "type": "bool"
        }
      ],
      "stateMutability": "view",
      "type": "function",
      "constant": true
    },
    {
      "inputs": [
        {
          "internalType": "address",
          "name": "operator",
          "type": "address"
        },
        {
          "internalType": "bool",
          "name": "approved",
          "type": "bool"
        }
      ],
      "name": "setApprovalForAll",
      "outputs": [],
      "stateMutability": "nonpayable",
      "type": "function"
    },
    {
      "inputs": [],
      "name": "symbol",
      "outputs": [
        {
          "internalType": "string",
          "name": "",
          "type": "string"
        }
      ],
      "stateMutability": "view",
      "type": "function",
      "constant": true
    },
    {
      "inputs": [
        {
          "internalType": "uint256",
          "name": "index",
          "type": "uint256"
        }
      ],
      "name": "tokenByIndex",
      "outputs": [
        {
          "internalType": "uint256",
          "name": "",
          "type": "uint256"
        }
      ],
      "stateMutability": "view",
      "type": "function",
      "constant": true
    },
    {
      "inputs": [
        {
          "internalType": "address",
          "name": "owner",
          "type": "address"
        },
        {
          "internalType": "uint256",
          "name": "index",
          "type": "uint256"
        }
      ],
      "name": "tokenOfOwnerByIndex",
      "outputs": [
        {
          "internalType": "uint256",
          "name": "",
          "type": "uint256"
        }
      ],
      "stateMutability": "view",
      "type": "function",
      "constant": true
    },
    {
      "inputs": [],
      "name": "totalSupply",
      "outputs": [
        {
          "internalType": "uint256",
          "name": "",
          "type": "uint256"
        }
      ],
      "stateMutability": "view",
      "type": "function",
      "constant": true
    },
    {
      "inputs": [
        {
          "internalType": "address",
          "name": "from",
          "type": "address"
        },
        {
          "internalType": "address",
          "name": "to",
          "type": "address"
        },
        {
          "internalType": "uint256",
          "name": "tokenId",
          "type": "uint256"
        }
      ],
      "name": "transferFrom",
      "outputs": [],
      "stateMutability": "nonpayable",
      "type": "function"
    },
    {
      "inputs": [
        {
          "internalType": "address",
          "name": "newOwner",
          "type": "address"
        }
      ],
      "name": "transferOwnership",
      "outputs": [],
      "stateMutability": "nonpayable",
      "type": "function"
    },
    {
      "stateMutability": "payable",
      "type": "receive",
      "payable": true
    },
    {
      "inputs": [
        {
          "internalType": "uint256",
          "name": "_strikeprice",
          "type": "uint256"
        },
        {
          "internalType": "uint256",
          "name": "_expires",
          "type": "uint256"
        },
        {
          "internalType": "uint256",
          "name": "_price",
          "type": "uint256"
        },
        {
          "internalType": "bytes32",
          "name": "_salt",
          "type": "bytes32"
        },
        {
          "internalType": "address",
          "name": "_nftcontract",
          "type": "address"
        },
        {
          "internalType": "uint256",
          "name": "_nftid",
          "type": "uint256"
        }
      ],
      "name": "seller_create_call",
      "outputs": [
        {
          "internalType": "bool",
          "name": "",
          "type": "bool"
        }
      ],
      "stateMutability": "payable",
      "type": "function",
      "payable": true
    },
    {
      "inputs": [
        {
          "internalType": "bytes4",
          "name": "_interfaceId",
          "type": "bytes4"
        }
      ],
      "name": "supportsInterface",
      "outputs": [
        {
          "internalType": "bool",
          "name": "",
          "type": "bool"
        }
      ],
      "stateMutability": "view",
      "type": "function",
      "constant": true
    },
    {
      "inputs": [
        {
          "internalType": "uint256",
          "name": "_tokenId",
          "type": "uint256"
        },
        {
          "internalType": "uint256",
          "name": "_salePrice",
          "type": "uint256"
        }
      ],
      "name": "royaltyInfo",
      "outputs": [
        {
          "internalType": "address",
          "name": "receiver",
          "type": "address"
        },
        {
          "internalType": "uint256",
          "name": "royaltyAmount",
          "type": "uint256"
        }
      ],
      "stateMutability": "view",
      "type": "function",
      "constant": true
    },
    {
      "inputs": [],
      "name": "getTokenId",
      "outputs": [
        {
          "internalType": "uint256",
          "name": "",
          "type": "uint256"
        }
      ],
      "stateMutability": "view",
      "type": "function",
      "constant": true
    },
    {
      "inputs": [],
      "name": "withdraw",
      "outputs": [],
      "stateMutability": "nonpayable",
      "type": "function"
    },
    {
      "inputs": [
        {
          "internalType": "address",
          "name": "_owner",
          "type": "address"
        }
      ],
      "name": "walletOfOwner",
      "outputs": [
        {
          "internalType": "uint256[]",
          "name": "",
          "type": "uint256[]"
        }
      ],
      "stateMutability": "view",
      "type": "function",
      "constant": true
    },
    {
      "inputs": [
        {
          "internalType": "uint256",
          "name": "tokenId",
          "type": "uint256"
        }
      ],
      "name": "tokenURI",
      "outputs": [
        {
          "internalType": "string",
          "name": "",
          "type": "string"
        }
      ],
      "stateMutability": "view",
      "type": "function",
      "constant": true
    },
    {
      "inputs": [
        {
          "internalType": "address",
          "name": "mintto",
          "type": "address"
        },
        {
          "internalType": "uint16",
          "name": "amount",
          "type": "uint16"
        }
      ],
      "name": "ownerMintFromReserve",
      "outputs": [],
      "stateMutability": "nonpayable",
      "type": "function"
    },
    {
      "inputs": [],
      "name": "getBalance",
      "outputs": [
        {
          "internalType": "uint256",
          "name": "",
          "type": "uint256"
        }
      ],
      "stateMutability": "view",
      "type": "function",
      "constant": true
    }
  ],
  "bytecode": "0x60806040526000600d60006101000a81548160ff0219169083151502179055506000600d60016101000a81548160ff021916908315150217905550662386f26fc10000600e55662386f26fc10000600f556101f4601160006101000a81548161ffff021916908361ffff16021790555066470de4df82000060125560006013556000601460006101000a81548160ff021916908315150217905550348015620000a757600080fd5b506040518060400160405280601181526020017f5654494420436f76657265642043616c6c0000000000000000000000000000008152506040518060400160405280600681526020017f565449444343000000000000000000000000000000000000000000000000000081525081600090805190602001906200012c9291906200023c565b508060019080519060200190620001459291906200023c565b505050620001686200015c6200016e60201b60201c565b6200017660201b60201c565b62000351565b600033905090565b6000600a60009054906101000a900473ffffffffffffffffffffffffffffffffffffffff16905081600a60006101000a81548173ffffffffffffffffffffffffffffffffffffffff021916908373ffffffffffffffffffffffffffffffffffffffff1602179055508173ffffffffffffffffffffffffffffffffffffffff168173ffffffffffffffffffffffffffffffffffffffff167f8be0079c531659141344cd1fd0a4f28419497f9722a3daafe3b4186f6b6457e060405160405180910390a35050565b8280546200024a906200031b565b90600052602060002090601f0160209004810192826200026e5760008555620002ba565b82601f106200028957805160ff1916838001178555620002ba565b82800160010185558215620002ba579182015b82811115620002b95782518255916020019190600101906200029c565b5b509050620002c99190620002cd565b5090565b5b80821115620002e8576000816000905550600101620002ce565b5090565b7f4e487b7100000000000000000000000000000000000000000000000000000000600052602260045260246000fd5b600060028204905060018216806200033457607f821691505b602082108114156200034b576200034a620002ec565b5b50919050565b615c5a80620003616000396000f3fe608060405260043610620002475760003560e01c80636c0360eb1162000133578063beff291e11620000af578063cd3293de1162000079578063cd3293de14620008b8578063e9451f5f14620008e8578063e985e9c51462000918578063f2fde38b146200095c578063f771cb65146200098a576200024f565b8063beff291e14620007e0578063c76e9bff1462000816578063c87b56dd1462000844578063caedcc4a1462000888576200024f565b80638ed2fe9111620000fd5780638ed2fe9114620006f457806395d89b4114620007245780639fd6db121462000754578063a22cb4651462000784578063b88d4fde14620007b2576200024f565b80636c0360eb146200063657806370a082311462000666578063715018a614620006aa5780638da5cb5b14620006c4576200024f565b806323b872dd11620001c357806342842e0e116200018d57806342842e0e146200050c578063438b6300146200053a5780634f6ccce7146200057e5780636352211e14620005c25780636817c76c1462000606576200024f565b806323b872dd146200043b5780632a55205a14620004695780632f745c5914620004ae5780633ccfd60b14620004f2576200024f565b8063095ea7b31162000211578063095ea7b3146200033957806312065fe0146200036757806318160ddd146200039757806318cae26914620003c75780631dc36945146200040b576200024f565b8063010a38f5146200025157806301ffc9a7146200028157806306fdde0314620002c5578063081812fc14620002f5576200024f565b366200024f57005b005b3480156200025e57600080fd5b5062000269620009ba565b60405162000278919062002fee565b60405180910390f35b3480156200028e57600080fd5b50620002ad6004803603810190620002a791906200307c565b620009cd565b604051620002bc9190620030cb565b60405180910390f35b348015620002d257600080fd5b50620002dd62000a4a565b604051620002ec91906200318c565b60405180910390f35b3480156200030257600080fd5b506200032160048036038101906200031b9190620031e1565b62000ae4565b60405162000330919062003258565b60405180910390f35b3480156200034657600080fd5b506200036560048036038101906200035f9190620032a6565b62000b6e565b005b3480156200037457600080fd5b506200037f62000c97565b6040516200038e919062002fee565b60405180910390f35b348015620003a457600080fd5b50620003af62000c9f565b604051620003be919062002fee565b60405180910390f35b348015620003d457600080fd5b50620003f36004803603810190620003ed9190620032ed565b62000cac565b60405162000402919062003340565b60405180910390f35b3480156200041857600080fd5b506200042362000ccf565b60405162000432919062002fee565b60405180910390f35b3480156200044857600080fd5b506200046760048036038101906200046191906200335d565b62000cd5565b005b3480156200047657600080fd5b506200049560048036038101906200048f9190620033b9565b62000d3e565b604051620004a592919062003400565b60405180910390f35b348015620004bb57600080fd5b50620004da6004803603810190620004d49190620032a6565b62000db2565b604051620004e9919062002fee565b60405180910390f35b348015620004ff57600080fd5b506200050a62000e5c565b005b3480156200051957600080fd5b506200053860048036038101906200053291906200335d565b6200103f565b005b3480156200054757600080fd5b50620005666004803603810190620005609190620032ed565b62001061565b604051620005759190620034fb565b60405180910390f35b3480156200058b57600080fd5b50620005aa6004803603810190620005a49190620031e1565b6200111e565b604051620005b9919062002fee565b60405180910390f35b348015620005cf57600080fd5b50620005ee6004803603810190620005e89190620031e1565b62001197565b604051620005fd919062003258565b60405180910390f35b3480156200061357600080fd5b506200061e6200124c565b6040516200062d919062002fee565b60405180910390f35b3480156200064357600080fd5b506200064e62001252565b6040516200065d91906200318c565b60405180910390f35b3480156200067357600080fd5b506200069260048036038101906200068c9190620032ed565b620012e8565b604051620006a1919062002fee565b60405180910390f35b348015620006b757600080fd5b50620006c2620013a3565b005b348015620006d157600080fd5b50620006dc62001434565b604051620006eb919062003258565b60405180910390f35b3480156200070157600080fd5b506200070c6200145e565b6040516200071b9190620030cb565b60405180910390f35b3480156200073157600080fd5b506200073c62001471565b6040516200074b91906200318c565b60405180910390f35b3480156200076157600080fd5b506200076c6200150b565b6040516200077b9190620030cb565b60405180910390f35b3480156200079157600080fd5b50620007b06004803603810190620007aa919062003550565b6200151e565b005b348015620007bf57600080fd5b50620007de6004803603810190620007d89190620036e8565b62001538565b005b620007fe6004803603810190620007f89190620037b4565b620015a3565b6040516200080d9190620030cb565b60405180910390f35b3480156200082357600080fd5b506200084260048036038101906200083c91906200388f565b6200176a565b005b3480156200085157600080fd5b506200087060048036038101906200086a9190620031e1565b6200189a565b6040516200087f91906200318c565b60405180910390f35b3480156200089557600080fd5b50620008a06200191f565b604051620008af919062002fee565b60405180910390f35b348015620008c557600080fd5b50620008d062001925565b604051620008df9190620038e7565b60405180910390f35b348015620008f557600080fd5b506200090062001939565b6040516200090f919062002fee565b60405180910390f35b3480156200092557600080fd5b506200094460048036038101906200093e919062003904565b6200193f565b604051620009539190620030cb565b60405180910390f35b3480156200096957600080fd5b50620009886004803603810190620009829190620032ed565b620019d3565b005b3480156200099757600080fd5b50620009a262001ad7565b604051620009b19190620030cb565b60405180910390f35b6000620009c8600c62001aea565b905090565b60007f2a55205a000000000000000000000000000000000000000000000000000000007bffffffffffffffffffffffffffffffffffffffffffffffffffffffff1916827bffffffffffffffffffffffffffffffffffffffffffffffffffffffff1916148062000a43575062000a428262001af8565b5b9050919050565b60606000805462000a5b906200397a565b80601f016020809104026020016040519081016040528092919081815260200182805462000a89906200397a565b801562000ada5780601f1062000aae5761010080835404028352916020019162000ada565b820191906000526020600020905b81548152906001019060200180831162000abc57829003601f168201915b5050505050905090565b600062000af18262001b75565b62000b33576040517f08c379a000000000000000000000000000000000000000000000000000000000815260040162000b2a9062003a26565b60405180910390fd5b6004600083815260200190815260200160002060009054906101000a900473ffffffffffffffffffffffffffffffffffffffff169050919050565b600062000b7b8262001197565b90508073ffffffffffffffffffffffffffffffffffffffff168373ffffffffffffffffffffffffffffffffffffffff16141562000bef576040517f08c379a000000000000000000000000000000000000000000000000000000000815260040162000be69062003abe565b60405180910390fd5b8073ffffffffffffffffffffffffffffffffffffffff1662000c1062001be1565b73ffffffffffffffffffffffffffffffffffffffff16148062000c44575062000c438162000c3d62001be1565b6200193f565b5b62000c86576040517f08c379a000000000000000000000000000000000000000000000000000000000815260040162000c7d9062003b56565b60405180910390fd5b62000c92838362001be9565b505050565b600047905090565b6000600880549050905090565b60156020528060005260406000206000915054906101000a900463ffffffff1681565b600e5481565b62000cea62000ce362001be1565b8262001ca4565b62000d2c576040517f08c379a000000000000000000000000000000000000000000000000000000000815260040162000d239062003bee565b60405180910390fd5b62000d3983838362001d8f565b505050565b60008062000d4c8462001b75565b62000d8e576040517f08c379a000000000000000000000000000000000000000000000000000000000815260040162000d859062003c86565b60405180910390fd5b62000d9862001434565b600a8462000da7919062003d06565b915091509250929050565b600062000dbf83620012e8565b821062000e03576040517f08c379a000000000000000000000000000000000000000000000000000000000815260040162000dfa9062003db4565b60405180910390fd5b600660008473ffffffffffffffffffffffffffffffffffffffff1673ffffffffffffffffffffffffffffffffffffffff168152602001908152602001600020600083815260200190815260200160002054905092915050565b62000e6662001be1565b73ffffffffffffffffffffffffffffffffffffffff1662000e8662001434565b73ffffffffffffffffffffffffffffffffffffffff161462000edf576040517f08c379a000000000000000000000000000000000000000000000000000000000815260040162000ed69062003e26565b60405180910390fd5b601460019054906101000a900460ff161562000f32576040517f08c379a000000000000000000000000000000000000000000000000000000000815260040162000f299062003e98565b60405180910390fd5b6001601460016101000a81548160ff021916908315150217905550600047905060003373ffffffffffffffffffffffffffffffffffffffff166108fc479081150290604051600060405180830381858888f1935050505090508062000fce576040517f08c379a000000000000000000000000000000000000000000000000000000000815260040162000fc59062003f0a565b60405180910390fd5b3373ffffffffffffffffffffffffffffffffffffffff167f820316edc5902740bd3706ccbaa6163e1b273dfc49308de0f9c4ab375047ee0d42846040516200101892919062003f2c565b60405180910390a250506000601460016101000a81548160ff021916908315150217905550565b6200105c8383836040518060200160405280600081525062001538565b505050565b606060006200107083620012e8565b905060008167ffffffffffffffff811115620010915762001090620035a1565b5b604051908082528060200260200182016040528015620010c05781602001602082028036833780820191505090505b50905060005b828110156200111357620010db858262000db2565b828281518110620010f157620010f062003f59565b5b60200260200101818152505080806200110a9062003f88565b915050620010c6565b508092505050919050565b60006200112a62000c9f565b82106200116e576040517f08c379a000000000000000000000000000000000000000000000000000000000815260040162001165906200404c565b60405180910390fd5b6008828154811062001185576200118462003f59565b5b90600052602060002001549050919050565b6000806002600084815260200190815260200160002060009054906101000a900473ffffffffffffffffffffffffffffffffffffffff169050600073ffffffffffffffffffffffffffffffffffffffff168173ffffffffffffffffffffffffffffffffffffffff16141562001243576040517f08c379a00000000000000000000000000000000000000000000000000000000081526004016200123a90620040e4565b60405180910390fd5b80915050919050565b60125481565b6010805462001261906200397a565b80601f01602080910402602001604051908101604052809291908181526020018280546200128f906200397a565b8015620012e05780601f10620012b457610100808354040283529160200191620012e0565b820191906000526020600020905b815481529060010190602001808311620012c257829003601f168201915b505050505081565b60008073ffffffffffffffffffffffffffffffffffffffff168273ffffffffffffffffffffffffffffffffffffffff1614156200135c576040517f08c379a000000000000000000000000000000000000000000000000000000000815260040162001353906200417c565b60405180910390fd5b600360008373ffffffffffffffffffffffffffffffffffffffff1673ffffffffffffffffffffffffffffffffffffffff168152602001908152602001600020549050919050565b620013ad62001be1565b73ffffffffffffffffffffffffffffffffffffffff16620013cd62001434565b73ffffffffffffffffffffffffffffffffffffffff161462001426576040517f08c379a00000000000000000000000000000000000000000000000000000000081526004016200141d9062003e26565b60405180910390fd5b62001432600062002008565b565b6000600a60009054906101000a900473ffffffffffffffffffffffffffffffffffffffff16905090565b600d60009054906101000a900460ff1681565b60606001805462001482906200397a565b80601f0160208091040260200160405190810160405280929190818152602001828054620014b0906200397a565b8015620015015780601f10620014d55761010080835404028352916020019162001501565b820191906000526020600020905b815481529060010190602001808311620014e357829003601f168201915b5050505050905090565b601460009054906101000a900460ff1681565b620015346200152c62001be1565b8383620020ce565b5050565b6200154d6200154662001be1565b8362001ca4565b6200158f576040517f08c379a0000000000000000000000000000000000000000000000000000000008152600401620015869062003bee565b60405180910390fd5b6200159d8484848462002240565b50505050565b6000601460019054906101000a900460ff1615620015f8576040517f08c379a0000000000000000000000000000000000000000000000000000000008152600401620015ef9062003e98565b60405180910390fd5b6001601460016101000a81548160ff0219169083151502179055506001600d60016101000a81548160ff02191690831515021790556200166f576040517f08c379a00000000000000000000000000000000000000000000000000000000081526004016200166690620041ee565b60405180910390fd5b600f5434116200167e57600080fd5b600084338989898888604051620016959062002fc5565b620016a69695949392919062004210565b8190604051809103906000f5905080158015620016c7573d6000803e3d6000fd5b5090506000819050620016db600b620022a3565b620016e76001620022b9565b3373ffffffffffffffffffffffffffffffffffffffff167f6cacbe34328d89605c3b8d6a60988b879148e1219dcf3a55800824c6cd7c26048a8a8a8542604051620017379594939291906200427d565b60405180910390a26001925050506000601460016101000a81548160ff0219169083151502179055509695505050505050565b6200177462001be1565b73ffffffffffffffffffffffffffffffffffffffff166200179462001434565b73ffffffffffffffffffffffffffffffffffffffff1614620017ed576040517f08c379a0000000000000000000000000000000000000000000000000000000008152600401620017e49062003e26565b60405180910390fd5b8061ffff16601160009054906101000a900461ffff1661ffff1610156200184b576040517f08c379a0000000000000000000000000000000000000000000000000000000008152600401620018429062004350565b60405180910390fd5b6200185b828261ffff16620023c1565b80601160008282829054906101000a900461ffff166200187c919062004372565b92506101000a81548161ffff021916908361ffff1602179055505050565b6060620018a78262001b75565b620018e9576040517f08c379a0000000000000000000000000000000000000000000000000000000008152600401620018e09062004423565b60405180910390fd5b6010620018f6836200248f565b6040516020016200190992919062004577565b6040516020818303038152906040529050919050565b60135481565b601160009054906101000a900461ffff1681565b600f5481565b6000600560008473ffffffffffffffffffffffffffffffffffffffff1673ffffffffffffffffffffffffffffffffffffffff16815260200190815260200160002060008373ffffffffffffffffffffffffffffffffffffffff1673ffffffffffffffffffffffffffffffffffffffff16815260200190815260200160002060009054906101000a900460ff16905092915050565b620019dd62001be1565b73ffffffffffffffffffffffffffffffffffffffff16620019fd62001434565b73ffffffffffffffffffffffffffffffffffffffff161462001a56576040517f08c379a000000000000000000000000000000000000000000000000000000000815260040162001a4d9062003e26565b60405180910390fd5b600073ffffffffffffffffffffffffffffffffffffffff168173ffffffffffffffffffffffffffffffffffffffff16141562001ac9576040517f08c379a000000000000000000000000000000000000000000000000000000000815260040162001ac09062004622565b60405180910390fd5b62001ad48162002008565b50565b600d60019054906101000a900460ff1681565b600081600001549050919050565b60007f780e9d63000000000000000000000000000000000000000000000000000000007bffffffffffffffffffffffffffffffffffffffffffffffffffffffff1916827bffffffffffffffffffffffffffffffffffffffffffffffffffffffff1916148062001b6e575062001b6d8262002609565b5b9050919050565b60008073ffffffffffffffffffffffffffffffffffffffff166002600084815260200190815260200160002060009054906101000a900473ffffffffffffffffffffffffffffffffffffffff1673ffffffffffffffffffffffffffffffffffffffff1614159050919050565b600033905090565b816004600083815260200190815260200160002060006101000a81548173ffffffffffffffffffffffffffffffffffffffff021916908373ffffffffffffffffffffffffffffffffffffffff160217905550808273ffffffffffffffffffffffffffffffffffffffff1662001c5e8362001197565b73ffffffffffffffffffffffffffffffffffffffff167f8c5be1e5ebec7d5bd14f71427d1e84f3dd0314c0f7b2291e5b200ac8c7c3b92560405160405180910390a45050565b600062001cb18262001b75565b62001cf3576040517f08c379a000000000000000000000000000000000000000000000000000000000815260040162001cea90620046ba565b60405180910390fd5b600062001d008362001197565b90508073ffffffffffffffffffffffffffffffffffffffff168473ffffffffffffffffffffffffffffffffffffffff16148062001d7257508373ffffffffffffffffffffffffffffffffffffffff1662001d5a8462000ae4565b73ffffffffffffffffffffffffffffffffffffffff16145b8062001d86575062001d8581856200193f565b5b91505092915050565b8273ffffffffffffffffffffffffffffffffffffffff1662001db18262001197565b73ffffffffffffffffffffffffffffffffffffffff161462001e0a576040517f08c379a000000000000000000000000000000000000000000000000000000000815260040162001e019062004752565b60405180910390fd5b600073ffffffffffffffffffffffffffffffffffffffff168273ffffffffffffffffffffffffffffffffffffffff16141562001e7d576040517f08c379a000000000000000000000000000000000000000000000000000000000815260040162001e7490620047ea565b60405180910390fd5b62001e8a838383620026ef565b62001e9760008262001be9565b6001600360008573ffffffffffffffffffffffffffffffffffffffff1673ffffffffffffffffffffffffffffffffffffffff168152602001908152602001600020600082825462001ee991906200480c565b925050819055506001600360008473ffffffffffffffffffffffffffffffffffffffff1673ffffffffffffffffffffffffffffffffffffffff168152602001908152602001600020600082825462001f42919062004847565b92505081905550816002600083815260200190815260200160002060006101000a81548173ffffffffffffffffffffffffffffffffffffffff021916908373ffffffffffffffffffffffffffffffffffffffff160217905550808273ffffffffffffffffffffffffffffffffffffffff168473ffffffffffffffffffffffffffffffffffffffff167fddf252ad1be2c89b69c2b068fc378daa952ba7f163c4a11628f55a4df523b3ef60405160405180910390a46200200383838362002813565b505050565b6000600a60009054906101000a900473ffffffffffffffffffffffffffffffffffffffff16905081600a60006101000a81548173ffffffffffffffffffffffffffffffffffffffff021916908373ffffffffffffffffffffffffffffffffffffffff1602179055508173ffffffffffffffffffffffffffffffffffffffff168173ffffffffffffffffffffffffffffffffffffffff167f8be0079c531659141344cd1fd0a4f28419497f9722a3daafe3b4186f6b6457e060405160405180910390a35050565b8173ffffffffffffffffffffffffffffffffffffffff168373ffffffffffffffffffffffffffffffffffffffff16141562002140576040517f08c379a00000000000000000000000000000000000000000000000000000000081526004016200213790620048f4565b60405180910390fd5b80600560008573ffffffffffffffffffffffffffffffffffffffff1673ffffffffffffffffffffffffffffffffffffffff16815260200190815260200160002060008473ffffffffffffffffffffffffffffffffffffffff1673ffffffffffffffffffffffffffffffffffffffff16815260200190815260200160002060006101000a81548160ff0219169083151502179055508173ffffffffffffffffffffffffffffffffffffffff168373ffffffffffffffffffffffffffffffffffffffff167f17307eab39ab6107e8899845ad3d59bd9653f200f220920489ca2b5937696c3183604051620022339190620030cb565b60405180910390a3505050565b6200224d84848462001d8f565b6200225b8484848462002818565b6200229d576040517f08c379a000000000000000000000000000000000000000000000000000000000815260040162002294906200498c565b60405180910390fd5b50505050565b6001816000016000828254019250508190555050565b6140748163ffffffff16620022cd62000c9f565b620022d9919062004847565b106200231c576040517f08c379a00000000000000000000000000000000000000000000000000000000081526004016200231390620049fe565b60405180910390fd5b6001601560003373ffffffffffffffffffffffffffffffffffffffff1673ffffffffffffffffffffffffffffffffffffffff16815260200190815260200160002060008282829054906101000a900463ffffffff166200237d919062004a20565b92506101000a81548163ffffffff021916908363ffffffff160217905550620023b233620023ac600c62001aea565b620029b1565b620023be600c620022a3565b50565b80601560008473ffffffffffffffffffffffffffffffffffffffff1673ffffffffffffffffffffffffffffffffffffffff16815260200190815260200160002060008282829054906101000a900463ffffffff1662002421919062004a20565b92506101000a81548163ffffffff021916908363ffffffff16021790555060005b8163ffffffff168110156200248a57620024688362002462600c62001aea565b620029b1565b62002474600c620022a3565b8080620024819062003f88565b91505062002442565b505050565b60606000821415620024d9576040518060400160405280600181526020017f3000000000000000000000000000000000000000000000000000000000000000815250905062002604565b600082905060005b6000821462002511578080620024f79062003f88565b915050600a8262002509919062003d06565b9150620024e1565b60008167ffffffffffffffff81111562002530576200252f620035a1565b5b6040519080825280601f01601f191660200182016040528015620025635781602001600182028036833780820191505090505b5090505b60008514620025fd576001826200257f91906200480c565b9150600a8562002590919062004a61565b60306200259e919062004847565b60f81b818381518110620025b757620025b662003f59565b5b60200101907effffffffffffffffffffffffffffffffffffffffffffffffffffffffffffff1916908160001a905350600a85620025f5919062003d06565b945062002567565b8093505050505b919050565b60007f80ac58cd000000000000000000000000000000000000000000000000000000007bffffffffffffffffffffffffffffffffffffffffffffffffffffffff1916827bffffffffffffffffffffffffffffffffffffffffffffffffffffffff19161480620026d557507f5b5e139f000000000000000000000000000000000000000000000000000000007bffffffffffffffffffffffffffffffffffffffffffffffffffffffff1916827bffffffffffffffffffffffffffffffffffffffffffffffffffffffff1916145b80620026e85750620026e782620029d1565b5b9050919050565b620026fc83838362002a3b565b600073ffffffffffffffffffffffffffffffffffffffff168373ffffffffffffffffffffffffffffffffffffffff16141562002743576200273d8162002a40565b62002785565b8173ffffffffffffffffffffffffffffffffffffffff168373ffffffffffffffffffffffffffffffffffffffff1614620027845762002783838262002a89565b5b5b600073ffffffffffffffffffffffffffffffffffffffff168273ffffffffffffffffffffffffffffffffffffffff161415620027cc57620027c68162002bfb565b6200280e565b8273ffffffffffffffffffffffffffffffffffffffff168273ffffffffffffffffffffffffffffffffffffffff16146200280d576200280c828262002cd7565b5b5b505050565b505050565b60006200283b8473ffffffffffffffffffffffffffffffffffffffff1662002d58565b15620029a4578373ffffffffffffffffffffffffffffffffffffffff1663150b7a026200286762001be1565b8786866040518563ffffffff1660e01b81526004016200288b949392919062004af6565b6020604051808303816000875af1925050508015620028ca57506040513d601f19601f82011682018060405250810190620028c7919062004b61565b60015b62002953573d8060008114620028fd576040519150601f19603f3d011682016040523d82523d6000602084013e62002902565b606091505b506000815114156200294b576040517f08c379a000000000000000000000000000000000000000000000000000000000815260040162002942906200498c565b60405180910390fd5b805181602001fd5b63150b7a0260e01b7bffffffffffffffffffffffffffffffffffffffffffffffffffffffff1916817bffffffffffffffffffffffffffffffffffffffffffffffffffffffff191614915050620029a9565b600190505b949350505050565b620029cd82826040518060200160405280600081525062002d7b565b5050565b60007f01ffc9a7000000000000000000000000000000000000000000000000000000007bffffffffffffffffffffffffffffffffffffffffffffffffffffffff1916827bffffffffffffffffffffffffffffffffffffffffffffffffffffffff1916149050919050565b505050565b6008805490506009600083815260200190815260200160002081905550600881908060018154018082558091505060019003906000526020600020016000909190919091505550565b6000600162002a9884620012e8565b62002aa491906200480c565b905060006007600084815260200190815260200160002054905081811462002b8a576000600660008673ffffffffffffffffffffffffffffffffffffffff1673ffffffffffffffffffffffffffffffffffffffff168152602001908152602001600020600084815260200190815260200160002054905080600660008773ffffffffffffffffffffffffffffffffffffffff1673ffffffffffffffffffffffffffffffffffffffff168152602001908152602001600020600084815260200190815260200160002081905550816007600083815260200190815260200160002081905550505b6007600084815260200190815260200160002060009055600660008573ffffffffffffffffffffffffffffffffffffffff1673ffffffffffffffffffffffffffffffffffffffff16815260200190815260200160002060008381526020019081526020016000206000905550505050565b6000600160088054905062002c1191906200480c565b905060006009600084815260200190815260200160002054905060006008838154811062002c445762002c4362003f59565b5b90600052602060002001549050806008838154811062002c695762002c6862003f59565b5b90600052602060002001819055508160096000838152602001908152602001600020819055506009600085815260200190815260200160002060009055600880548062002cbb5762002cba62004b93565b5b6001900381819060005260206000200160009055905550505050565b600062002ce483620012e8565b905081600660008573ffffffffffffffffffffffffffffffffffffffff1673ffffffffffffffffffffffffffffffffffffffff168152602001908152602001600020600083815260200190815260200160002081905550806007600084815260200190815260200160002081905550505050565b6000808273ffffffffffffffffffffffffffffffffffffffff163b119050919050565b62002d87838362002ddd565b62002d96600084848462002818565b62002dd8576040517f08c379a000000000000000000000000000000000000000000000000000000000815260040162002dcf906200498c565b60405180910390fd5b505050565b600073ffffffffffffffffffffffffffffffffffffffff168273ffffffffffffffffffffffffffffffffffffffff16141562002e50576040517f08c379a000000000000000000000000000000000000000000000000000000000815260040162002e479062004c12565b60405180910390fd5b62002e5b8162001b75565b1562002e9e576040517f08c379a000000000000000000000000000000000000000000000000000000000815260040162002e959062004c84565b60405180910390fd5b62002eac60008383620026ef565b6001600360008473ffffffffffffffffffffffffffffffffffffffff1673ffffffffffffffffffffffffffffffffffffffff168152602001908152602001600020600082825462002efe919062004847565b92505081905550816002600083815260200190815260200160002060006101000a81548173ffffffffffffffffffffffffffffffffffffffff021916908373ffffffffffffffffffffffffffffffffffffffff160217905550808273ffffffffffffffffffffffffffffffffffffffff16600073ffffffffffffffffffffffffffffffffffffffff167fddf252ad1be2c89b69c2b068fc378daa952ba7f163c4a11628f55a4df523b3ef60405160405180910390a462002fc16000838362002813565b5050565b610f7e8062004ca783390190565b6000819050919050565b62002fe88162002fd3565b82525050565b600060208201905062003005600083018462002fdd565b92915050565b6000604051905090565b600080fd5b600080fd5b60007fffffffff0000000000000000000000000000000000000000000000000000000082169050919050565b62003056816200301f565b81146200306257600080fd5b50565b60008135905062003076816200304b565b92915050565b60006020828403121562003095576200309462003015565b5b6000620030a58482850162003065565b91505092915050565b60008115159050919050565b620030c581620030ae565b82525050565b6000602082019050620030e26000830184620030ba565b92915050565b600081519050919050565b600082825260208201905092915050565b60005b838110156200312457808201518184015260208101905062003107565b8381111562003134576000848401525b50505050565b6000601f19601f8301169050919050565b60006200315882620030e8565b620031648185620030f3565b93506200317681856020860162003104565b62003181816200313a565b840191505092915050565b60006020820190508181036000830152620031a881846200314b565b905092915050565b620031bb8162002fd3565b8114620031c757600080fd5b50565b600081359050620031db81620031b0565b92915050565b600060208284031215620031fa57620031f962003015565b5b60006200320a84828501620031ca565b91505092915050565b600073ffffffffffffffffffffffffffffffffffffffff82169050919050565b6000620032408262003213565b9050919050565b620032528162003233565b82525050565b60006020820190506200326f600083018462003247565b92915050565b620032808162003233565b81146200328c57600080fd5b50565b600081359050620032a08162003275565b92915050565b60008060408385031215620032c057620032bf62003015565b5b6000620032d0858286016200328f565b9250506020620032e385828601620031ca565b9150509250929050565b60006020828403121562003306576200330562003015565b5b600062003316848285016200328f565b91505092915050565b600063ffffffff82169050919050565b6200333a816200331f565b82525050565b60006020820190506200335760008301846200332f565b92915050565b60008060006060848603121562003379576200337862003015565b5b600062003389868287016200328f565b93505060206200339c868287016200328f565b9250506040620033af86828701620031ca565b9150509250925092565b60008060408385031215620033d357620033d262003015565b5b6000620033e385828601620031ca565b9250506020620033f685828601620031ca565b9150509250929050565b600060408201905062003417600083018562003247565b62003426602083018462002fdd565b9392505050565b600081519050919050565b600082825260208201905092915050565b6000819050602082019050919050565b620034648162002fd3565b82525050565b600062003478838362003459565b60208301905092915050565b6000602082019050919050565b60006200349e826200342d565b620034aa818562003438565b9350620034b78362003449565b8060005b83811015620034ee578151620034d288826200346a565b9750620034df8362003484565b925050600181019050620034bb565b5085935050505092915050565b6000602082019050818103600083015262003517818462003491565b905092915050565b6200352a81620030ae565b81146200353657600080fd5b50565b6000813590506200354a816200351f565b92915050565b600080604083850312156200356a576200356962003015565b5b60006200357a858286016200328f565b92505060206200358d8582860162003539565b9150509250929050565b600080fd5b600080fd5b7f4e487b7100000000000000000000000000000000000000000000000000000000600052604160045260246000fd5b620035db826200313a565b810181811067ffffffffffffffff82111715620035fd57620035fc620035a1565b5b80604052505050565b6000620036126200300b565b9050620036208282620035d0565b919050565b600067ffffffffffffffff821115620036435762003642620035a1565b5b6200364e826200313a565b9050602081019050919050565b82818337600083830152505050565b6000620036816200367b8462003625565b62003606565b905082815260208101848484011115620036a0576200369f6200359c565b5b620036ad8482856200365b565b509392505050565b600082601f830112620036cd57620036cc62003597565b5b8135620036df8482602086016200366a565b91505092915050565b6000806000806080858703121562003705576200370462003015565b5b600062003715878288016200328f565b945050602062003728878288016200328f565b93505060406200373b87828801620031ca565b925050606085013567ffffffffffffffff8111156200375f576200375e6200301a565b5b6200376d87828801620036b5565b91505092959194509250565b6000819050919050565b6200378e8162003779565b81146200379a57600080fd5b50565b600081359050620037ae8162003783565b92915050565b60008060008060008060c08789031215620037d457620037d362003015565b5b6000620037e489828a01620031ca565b9650506020620037f789828a01620031ca565b95505060406200380a89828a01620031ca565b94505060606200381d89828a016200379d565b93505060806200383089828a016200328f565b92505060a06200384389828a01620031ca565b9150509295509295509295565b600061ffff82169050919050565b620038698162003850565b81146200387557600080fd5b50565b60008135905062003889816200385e565b92915050565b60008060408385031215620038a957620038a862003015565b5b6000620038b9858286016200328f565b9250506020620038cc8582860162003878565b9150509250929050565b620038e18162003850565b82525050565b6000602082019050620038fe6000830184620038d6565b92915050565b600080604083850312156200391e576200391d62003015565b5b60006200392e858286016200328f565b925050602062003941858286016200328f565b9150509250929050565b7f4e487b7100000000000000000000000000000000000000000000000000000000600052602260045260246000fd5b600060028204905060018216806200399357607f821691505b60208210811415620039aa57620039a96200394b565b5b50919050565b7f4552433732313a20617070726f76656420717565727920666f72206e6f6e657860008201527f697374656e7420746f6b656e0000000000000000000000000000000000000000602082015250565b600062003a0e602c83620030f3565b915062003a1b82620039b0565b604082019050919050565b6000602082019050818103600083015262003a4181620039ff565b9050919050565b7f4552433732313a20617070726f76616c20746f2063757272656e74206f776e6560008201527f7200000000000000000000000000000000000000000000000000000000000000602082015250565b600062003aa6602183620030f3565b915062003ab38262003a48565b604082019050919050565b6000602082019050818103600083015262003ad98162003a97565b9050919050565b7f4552433732313a20617070726f76652063616c6c6572206973206e6f74206f7760008201527f6e6572206e6f7220617070726f76656420666f7220616c6c0000000000000000602082015250565b600062003b3e603883620030f3565b915062003b4b8262003ae0565b604082019050919050565b6000602082019050818103600083015262003b718162003b2f565b9050919050565b7f4552433732313a207472616e736665722063616c6c6572206973206e6f74206f60008201527f776e6572206e6f7220617070726f766564000000000000000000000000000000602082015250565b600062003bd6603183620030f3565b915062003be38262003b78565b604082019050919050565b6000602082019050818103600083015262003c098162003bc7565b9050919050565b7f45524332393831526f79616c74795374616e646172643a20526f79616c74792060008201527f696e666f20666f72206e6f6e6578697374656e7420746f6b656e000000000000602082015250565b600062003c6e603a83620030f3565b915062003c7b8262003c10565b604082019050919050565b6000602082019050818103600083015262003ca18162003c5f565b9050919050565b7f4e487b7100000000000000000000000000000000000000000000000000000000600052601260045260246000fd5b7f4e487b7100000000000000000000000000000000000000000000000000000000600052601160045260246000fd5b600062003d138262002fd3565b915062003d208362002fd3565b92508262003d335762003d3262003ca8565b5b828204905092915050565b7f455243373231456e756d657261626c653a206f776e657220696e646578206f7560008201527f74206f6620626f756e6473000000000000000000000000000000000000000000602082015250565b600062003d9c602b83620030f3565b915062003da98262003d3e565b604082019050919050565b6000602082019050818103600083015262003dcf8162003d8d565b9050919050565b7f4f776e61626c653a2063616c6c6572206973206e6f7420746865206f776e6572600082015250565b600062003e0e602083620030f3565b915062003e1b8262003dd6565b602082019050919050565b6000602082019050818103600083015262003e418162003dff565b9050919050565b7f4e6f2072652d656e7472616e6379000000000000000000000000000000000000600082015250565b600062003e80600e83620030f3565b915062003e8d8262003e48565b602082019050919050565b6000602082019050818103600083015262003eb38162003e71565b9050919050565b7f5061796d656e7420646964206e6f7420676f207468726f756768210000000000600082015250565b600062003ef2601b83620030f3565b915062003eff8262003eba565b602082019050919050565b6000602082019050818103600083015262003f258162003ee3565b9050919050565b600060408201905062003f43600083018562002fdd565b62003f52602083018462002fdd565b9392505050565b7f4e487b7100000000000000000000000000000000000000000000000000000000600052603260045260246000fd5b600062003f958262002fd3565b91507fffffffffffffffffffffffffffffffffffffffffffffffffffffffffffffffff82141562003fcb5762003fca62003cd7565b5b600182019050919050565b7f455243373231456e756d657261626c653a20676c6f62616c20696e646578206f60008201527f7574206f6620626f756e64730000000000000000000000000000000000000000602082015250565b600062004034602c83620030f3565b9150620040418262003fd6565b604082019050919050565b60006020820190508181036000830152620040678162004025565b9050919050565b7f4552433732313a206f776e657220717565727920666f72206e6f6e657869737460008201527f656e7420746f6b656e0000000000000000000000000000000000000000000000602082015250565b6000620040cc602983620030f3565b9150620040d9826200406e565b604082019050919050565b60006020820190508181036000830152620040ff81620040bd565b9050919050565b7f4552433732313a2062616c616e636520717565727920666f7220746865207a6560008201527f726f206164647265737300000000000000000000000000000000000000000000602082015250565b600062004164602a83620030f3565b9150620041718262004106565b604082019050919050565b60006020820190508181036000830152620041978162004155565b9050919050565b7f53656c6c696e672044697361626c656400000000000000000000000000000000600082015250565b6000620041d6601083620030f3565b9150620041e3826200419e565b602082019050919050565b600060208201905081810360008301526200420981620041c7565b9050919050565b600060c08201905062004227600083018962003247565b62004236602083018862002fdd565b62004245604083018762002fdd565b62004254606083018662002fdd565b62004263608083018562003247565b6200427260a083018462002fdd565b979650505050505050565b600060a08201905062004294600083018862002fdd565b620042a3602083018762002fdd565b620042b2604083018662002fdd565b620042c1606083018562003247565b620042d0608083018462002fdd565b9695505050505050565b7f4e6f7420656e6f75676820746f6b656e73206c65667420696e2072657365727660008201527f6521000000000000000000000000000000000000000000000000000000000000602082015250565b600062004338602283620030f3565b91506200434582620042da565b604082019050919050565b600060208201905081810360008301526200436b8162004329565b9050919050565b60006200437f8262003850565b91506200438c8362003850565b925082821015620043a257620043a162003cd7565b5b828203905092915050565b7f4552433732314d657461646174613a2055524920717565727920666f72206e6f60008201527f6e6578697374656e7420746f6b656e0000000000000000000000000000000000602082015250565b60006200440b602f83620030f3565b91506200441882620043ad565b604082019050919050565b600060208201905081810360008301526200443e81620043fc565b9050919050565b600081905092915050565b60008190508160005260206000209050919050565b6000815462004474816200397a565b62004480818662004445565b945060018216600081146200449e5760018114620044b057620044e7565b60ff19831686528186019350620044e7565b620044bb8562004450565b60005b83811015620044df57815481890152600182019150602081019050620044be565b838801955050505b50505092915050565b6000620044fd82620030e8565b62004509818562004445565b93506200451b81856020860162003104565b80840191505092915050565b7f2e6a736f6e000000000000000000000000000000000000000000000000000000600082015250565b60006200455f60058362004445565b91506200456c8262004527565b600582019050919050565b600062004585828562004465565b9150620045938284620044f0565b9150620045a08262004550565b91508190509392505050565b7f4f776e61626c653a206e6577206f776e657220697320746865207a65726f206160008201527f6464726573730000000000000000000000000000000000000000000000000000602082015250565b60006200460a602683620030f3565b91506200461782620045ac565b604082019050919050565b600060208201905081810360008301526200463d81620045fb565b9050919050565b7f4552433732313a206f70657261746f7220717565727920666f72206e6f6e657860008201527f697374656e7420746f6b656e0000000000000000000000000000000000000000602082015250565b6000620046a2602c83620030f3565b9150620046af8262004644565b604082019050919050565b60006020820190508181036000830152620046d58162004693565b9050919050565b7f4552433732313a207472616e736665722066726f6d20696e636f72726563742060008201527f6f776e6572000000000000000000000000000000000000000000000000000000602082015250565b60006200473a602583620030f3565b91506200474782620046dc565b604082019050919050565b600060208201905081810360008301526200476d816200472b565b9050919050565b7f4552433732313a207472616e7366657220746f20746865207a65726f2061646460008201527f7265737300000000000000000000000000000000000000000000000000000000602082015250565b6000620047d2602483620030f3565b9150620047df8262004774565b604082019050919050565b600060208201905081810360008301526200480581620047c3565b9050919050565b6000620048198262002fd3565b9150620048268362002fd3565b9250828210156200483c576200483b62003cd7565b5b828203905092915050565b6000620048548262002fd3565b9150620048618362002fd3565b9250827fffffffffffffffffffffffffffffffffffffffffffffffffffffffffffffffff0382111562004899576200489862003cd7565b5b828201905092915050565b7f4552433732313a20617070726f766520746f2063616c6c657200000000000000600082015250565b6000620048dc601983620030f3565b9150620048e982620048a4565b602082019050919050565b600060208201905081810360008301526200490f81620048cd565b9050919050565b7f4552433732313a207472616e7366657220746f206e6f6e20455243373231526560008201527f63656976657220696d706c656d656e7465720000000000000000000000000000602082015250565b600062004974603283620030f3565b9150620049818262004916565b604082019050919050565b60006020820190508181036000830152620049a78162004965565b9050919050565b7f526571756573742077696c6c20657863656564206d617820737570706c792100600082015250565b6000620049e6601f83620030f3565b9150620049f382620049ae565b602082019050919050565b6000602082019050818103600083015262004a1981620049d7565b9050919050565b600062004a2d826200331f565b915062004a3a836200331f565b92508263ffffffff0382111562004a565762004a5562003cd7565b5b828201905092915050565b600062004a6e8262002fd3565b915062004a7b8362002fd3565b92508262004a8e5762004a8d62003ca8565b5b828206905092915050565b600081519050919050565b600082825260208201905092915050565b600062004ac28262004a99565b62004ace818562004aa4565b935062004ae081856020860162003104565b62004aeb816200313a565b840191505092915050565b600060808201905062004b0d600083018762003247565b62004b1c602083018662003247565b62004b2b604083018562002fdd565b818103606083015262004b3f818462004ab5565b905095945050505050565b60008151905062004b5b816200304b565b92915050565b60006020828403121562004b7a5762004b7962003015565b5b600062004b8a8482850162004b4a565b91505092915050565b7f4e487b7100000000000000000000000000000000000000000000000000000000600052603160045260246000fd5b7f4552433732313a206d696e7420746f20746865207a65726f2061646472657373600082015250565b600062004bfa602083620030f3565b915062004c078262004bc2565b602082019050919050565b6000602082019050818103600083015262004c2d8162004beb565b9050919050565b7f4552433732313a20746f6b656e20616c7265616479206d696e74656400000000600082015250565b600062004c6c601c83620030f3565b915062004c798262004c34565b602082019050919050565b6000602082019050818103600083015262004c9f8162004c5d565b905091905056fe60806040523480156200001157600080fd5b5060405162000f7e38038062000f7e83398181016040528101906200003791906200018c565b84600281905550856000806101000a81548173ffffffffffffffffffffffffffffffffffffffff021916908373ffffffffffffffffffffffffffffffffffffffff16021790555042600381905550836004819055508260058190555081600660016101000a81548173ffffffffffffffffffffffffffffffffffffffff021916908373ffffffffffffffffffffffffffffffffffffffff1602179055508060078190555050505050505062000228565b600080fd5b600073ffffffffffffffffffffffffffffffffffffffff82169050919050565b60006200011982620000ec565b9050919050565b6200012b816200010c565b81146200013757600080fd5b50565b6000815190506200014b8162000120565b92915050565b6000819050919050565b620001668162000151565b81146200017257600080fd5b50565b60008151905062000186816200015b565b92915050565b60008060008060008060c08789031215620001ac57620001ab620000e7565b5b6000620001bc89828a016200013a565b9650506020620001cf89828a0162000175565b9550506040620001e289828a0162000175565b9450506060620001f589828a0162000175565b93505060806200020889828a016200013a565b92505060a06200021b89828a0162000175565b9150509295509295509295565b610d4680620002386000396000f3fe6080604052600436106100ab5760003560e01c8063a4e8d2bf11610064578063a4e8d2bf146102e0578063aa1197e01461030b578063b1cb0db314610336578063c42e198f14610361578063d32cb0fe1461038c578063ebe90c1e146103aa57610148565b806309a174a3146101e0578063325a19f11461020b57806344731da4146102365780636a9315b31461025f5780636fd976bc1461028a5780638da5cb5b146102b557610148565b36610148576000600660019054906101000a900473ffffffffffffffffffffffffffffffffffffffff1690508073ffffffffffffffffffffffffffffffffffffffff1663a22cb4653060016040518363ffffffff1660e01b8152600401610113929190610920565b600060405180830381600087803b15801561012d57600080fd5b505af1158015610141573d6000803e3d6000fd5b5050505050005b6000600660019054906101000a900473ffffffffffffffffffffffffffffffffffffffff1690508073ffffffffffffffffffffffffffffffffffffffff1663a22cb4653060016040518363ffffffff1660e01b81526004016101ab929190610920565b600060405180830381600087803b1580156101c557600080fd5b505af11580156101d9573d6000803e3d6000fd5b5050505050005b3480156101ec57600080fd5b506101f56103d5565b6040516102029190610949565b60405180910390f35b34801561021757600080fd5b5061022061049a565b60405161022d919061097d565b60405180910390f35b34801561024257600080fd5b5061025d600480360381019061025891906109c9565b6104a0565b005b34801561026b57600080fd5b50610274610502565b60405161028191906109f6565b60405180910390f35b34801561029657600080fd5b5061029f610528565b6040516102ac919061097d565b60405180910390f35b3480156102c157600080fd5b506102ca61052e565b6040516102d791906109f6565b60405180910390f35b3480156102ec57600080fd5b506102f5610552565b604051610302919061097d565b60405180910390f35b34801561031757600080fd5b50610320610558565b60405161032d919061097d565b60405180910390f35b34801561034257600080fd5b5061034b61055e565b604051610358919061097d565b60405180910390f35b34801561036d57600080fd5b50610376610564565b6040516103839190610949565b60405180910390f35b610394610577565b6040516103a19190610949565b60405180910390f35b3480156103b657600080fd5b506103bf610682565b6040516103cc91906109f6565b60405180910390f35b60003373ffffffffffffffffffffffffffffffffffffffff1660008054906101000a900473ffffffffffffffffffffffffffffffffffffffff1673ffffffffffffffffffffffffffffffffffffffff1614610465576040517f08c379a000000000000000000000000000000000000000000000000000000000815260040161045c90610a6e565b60405180910390fd5b610493600660019054906101000a900473ffffffffffffffffffffffffffffffffffffffff166007546106a8565b6001905090565b60035481565b3373ffffffffffffffffffffffffffffffffffffffff1660008054906101000a900473ffffffffffffffffffffffffffffffffffffffff1673ffffffffffffffffffffffffffffffffffffffff16146104f857600080fd5b8060058190555050565b600660019054906101000a900473ffffffffffffffffffffffffffffffffffffffff1681565b60075481565b60008054906101000a900473ffffffffffffffffffffffffffffffffffffffff1681565b60055481565b60025481565b60045481565b600660009054906101000a900460ff1681565b60003373ffffffffffffffffffffffffffffffffffffffff16600160009054906101000a900473ffffffffffffffffffffffffffffffffffffffff1673ffffffffffffffffffffffffffffffffffffffff1614610609576040517f08c379a000000000000000000000000000000000000000000000000000000000815260040161060090610ada565b60405180910390fd5b600254341161064d576040517f08c379a000000000000000000000000000000000000000000000000000000000815260040161064490610b46565b60405180910390fd5b61067b600660019054906101000a900473ffffffffffffffffffffffffffffffffffffffff166007546106a8565b6001905090565b600160009054906101000a900473ffffffffffffffffffffffffffffffffffffffff1681565b600082905060008173ffffffffffffffffffffffffffffffffffffffff166370a08231306040518263ffffffff1660e01b81526004016106e891906109f6565b602060405180830381865afa158015610705573d6000803e3d6000fd5b505050506040513d601f19601f820116820180604052508101906107299190610b7b565b11610769576040517f08c379a000000000000000000000000000000000000000000000000000000000815260040161076090610bf4565b60405180910390fd5b3073ffffffffffffffffffffffffffffffffffffffff168173ffffffffffffffffffffffffffffffffffffffff16636352211e846040518263ffffffff1660e01b81526004016107b9919061097d565b602060405180830381865afa1580156107d6573d6000803e3d6000fd5b505050506040513d601f19601f820116820180604052508101906107fa9190610c40565b73ffffffffffffffffffffffffffffffffffffffff1614610850576040517f08c379a000000000000000000000000000000000000000000000000000000000815260040161084790610cb9565b60405180910390fd5b8073ffffffffffffffffffffffffffffffffffffffff166323b872dd3033856040518463ffffffff1660e01b815260040161088d93929190610cd9565b600060405180830381600087803b1580156108a757600080fd5b505af11580156108bb573d6000803e3d6000fd5b50505050505050565b600073ffffffffffffffffffffffffffffffffffffffff82169050919050565b60006108ef826108c4565b9050919050565b6108ff816108e4565b82525050565b60008115159050919050565b61091a81610905565b82525050565b600060408201905061093560008301856108f6565b6109426020830184610911565b9392505050565b600060208201905061095e6000830184610911565b92915050565b6000819050919050565b61097781610964565b82525050565b6000602082019050610992600083018461096e565b92915050565b600080fd5b6109a681610964565b81146109b157600080fd5b50565b6000813590506109c38161099d565b92915050565b6000602082840312156109df576109de610998565b5b60006109ed848285016109b4565b91505092915050565b6000602082019050610a0b60008301846108f6565b92915050565b600082825260208201905092915050565b7f596f7520646f6e74207772697465207468652063616c6c20636f6e7472616374600082015250565b6000610a58602083610a11565b9150610a6382610a22565b602082019050919050565b60006020820190508181036000830152610a8781610a4b565b9050919050565b7f596f7520646f6e74206f776e207468652063616c6c20636f6e74726163740000600082015250565b6000610ac4601e83610a11565b9150610acf82610a8e565b602082019050919050565b60006020820190508181036000830152610af381610ab7565b9050919050565b7f596f75206d7573742070617920737472696b6520707269636500000000000000600082015250565b6000610b30601983610a11565b9150610b3b82610afa565b602082019050919050565b60006020820190508181036000830152610b5f81610b23565b9050919050565b600081519050610b758161099d565b92915050565b600060208284031215610b9157610b90610998565b5b6000610b9f84828501610b66565b91505092915050565b7f4e6f20746f6b656e732066726f6d207468697320636f6e747261637400000000600082015250565b6000610bde601c83610a11565b9150610be982610ba8565b602082019050919050565b60006020820190508181036000830152610c0d81610bd1565b9050919050565b610c1d816108e4565b8114610c2857600080fd5b50565b600081519050610c3a81610c14565b92915050565b600060208284031215610c5657610c55610998565b5b6000610c6484828501610c2b565b91505092915050565b7f5468697320636f6e747261637420646f65736e2774206f776e204e4654000000600082015250565b6000610ca3601d83610a11565b9150610cae82610c6d565b602082019050919050565b60006020820190508181036000830152610cd281610c96565b9050919050565b6000606082019050610cee60008301866108f6565b610cfb60208301856108f6565b610d08604083018461096e565b94935050505056fea2646970667358221220324ca8f979d5551120a1708a2689163dccbc56e898faa8137c7c7620fd4f013d64736f6c634300080b0033a26469706673582212202edd5886a88b26f147244bd89e6c42ebc47453d4f7da72652242ecd65b175a3364736f6c634300080b0033",
  "immutableReferences": {},
  "source": "// SPDX-License-Identifier: MIT\npragma solidity >=0.4.22 <0.9.0;\n\nimport \"@openzeppelin/contracts/utils/Context.sol\";\nimport \"@openzeppelin/contracts/utils/Counters.sol\";\nimport \"@openzeppelin/contracts/utils/Address.sol\";\nimport \"@openzeppelin/contracts/utils/Strings.sol\";\nimport \"@openzeppelin/contracts/utils/cryptography/ECDSA.sol\";\nimport \"@openzeppelin/contracts/access/Ownable.sol\";\nimport \"@openzeppelin/contracts/token/ERC721/IERC721Receiver.sol\";\nimport \"@openzeppelin/contracts/utils/introspection/IERC165.sol\";\nimport \"@openzeppelin/contracts/interfaces/IERC2981.sol\";\nimport \"@openzeppelin/contracts/interfaces/IERC721Enumerable.sol\";\nimport \"@openzeppelin/contracts/token/ERC721/IERC721.sol\";\nimport \"@openzeppelin/contracts/token/ERC721/ERC721.sol\";\nimport \"@openzeppelin/contracts/token/ERC721/extensions/IERC721Metadata.sol\";\nimport \"@openzeppelin/contracts/token/ERC721/extensions/ERC721Enumerable.sol\";\n\n\ncontract call_option{\n    address public owner;\n    address public ownerofcall;\n    uint public strikeprice;\n    uint public created;\n    uint public expires;\n    uint public startprice;\n    bool public allapproved;\n    address public nftcontract;\n    uint public nftid; \n    \n    constructor(address _owner, uint _strikeprice, uint _expires, uint _price, address _nftcontract, uint _nftid){\n         strikeprice = _strikeprice;\n         owner = _owner;\n         created = block.timestamp; \n         expires = _expires;\n         startprice = _price;\n         nftcontract = _nftcontract;\n         nftid = _nftid;         \n    }\n    function bulkTransfer(address _contractAddress, uint256 _tokenId) private {\n        ERC721 token = ERC721(_contractAddress);\n        require(token.balanceOf(address(this)) > 0, \"No tokens from this contract\");\n        require(token.ownerOf(_tokenId) == address(this), \"This contract doesn't own NFT\");\n        token.transferFrom(address(this), msg.sender, _tokenId);\n\n    }    \n    function exercise() external payable returns(bool){\n        require(ownerofcall == msg.sender,\"You dont own the call contract\");\n        require(msg.value > strikeprice, \"You must pay strike price\");\n        bulkTransfer(nftcontract, nftid);\n        return true;\n\n    }\n    function update_price(uint _price)external {\n        require(owner == msg.sender);\n        startprice = _price;\n    }\n    function owner_close() external returns (bool){\n          require(owner == msg.sender,\"You dont write the call contract\");\n          bulkTransfer(nftcontract, nftid);\n          return true;\n    }\n    receive() external payable {\n         ERC721 token = ERC721(nftcontract);\n         token.setApprovalForAll(address(this), true);    \n    }    \n    fallback() external payable {\n         ERC721 token = ERC721(nftcontract);\n         token.setApprovalForAll(address(this), true);\n    }\n\n }\n\ncontract CoveredCalls is IERC2981, ERC721Enumerable, Ownable{\n    using Strings for uint256;\n    using Counters for Counters.Counter;\n    using Address for address;\n    Counters.Counter _callContractCounter;\n    Counters.Counter _nftTokenCounter;\n    bool public buyingEnabled = false;     \n    bool public sellingEnabled = false;\n    uint public buyfee = 10000000000000000; //0.01\n    uint public sellfee = 10000000000000000; //0.01\n    string public baseURI;\n    uint16 public reserve = 500;\n    uint public mintPrice = 20000000000000000;\n    uint256 public additionalFees = 0;\n    bool public mintingEnabled = false;\n    bool internal locked;\n    mapping(address => uint32) public addressMintedBalance;\n    modifier noReentry() {\n        require(!locked, \"No re-entrancy\");\n        locked = true;\n        _;\n        locked = false;\n    }    \n    event event_withdrawal(address indexed user, uint etherAmount, uint depositTime);\n    event event_callcreated(address indexed user, uint strikeprice, uint expires, uint price, address contract_address,  uint orderTime);\n    event event_setmintprice(uint mintprice);\n    event event_setfee(uint additionalfee); \n\n    receive() external payable {}    \n    fallback() external payable {}\n    constructor() ERC721(\"VTID Covered Call\", \"VTIDCC\") { }\n\n    function seller_create_call(uint _strikeprice, uint _expires, uint _price, bytes32 _salt, address _nftcontract, uint _nftid) external payable noReentry returns (bool){\n             require(sellingEnabled=true, \"Selling Disabled\");\n             require(msg.value > sellfee);\n             call_option _contract = new call_option{\n                 salt:bytes32(_salt)\n             }(msg.sender, _strikeprice, _expires, _price, _nftcontract, _nftid);\n             address contract_address = address(_contract);\n             _callContractCounter.increment();\n             mint(1);\n             emit event_callcreated(msg.sender, _strikeprice, _expires, _price, contract_address, block.timestamp);\n             return true;\n    }\n    function supportsInterface(bytes4 _interfaceId) public view virtual override(IERC165, ERC721Enumerable) returns (bool) {\n        return _interfaceId == type(IERC2981).interfaceId || super.supportsInterface(_interfaceId);\n    }\n    function royaltyInfo(uint256 _tokenId, uint256 _salePrice) external view override returns (address receiver, uint256 royaltyAmount) {\n        require(_exists(_tokenId), \"ERC2981RoyaltyStandard: Royalty info for nonexistent token\");\n        return (owner(), _salePrice / 10); // 10 percent\n    } \n    function mint(uint32 _mintAmount) private{ \n         require(totalSupply() + _mintAmount < 16_500, \"Request will exceed max supply!\");\n         addressMintedBalance[msg.sender] += 1;\n         _safeMint(msg.sender, _nftTokenCounter.current());\n         _nftTokenCounter.increment();\n    }\n    function getTokenId() external view returns(uint){\n        return _nftTokenCounter.current();\n    }\n    function withdraw() external onlyOwner noReentry{   \n        uint balance = address(this).balance;\n        bool success = payable(msg.sender).send(address(this).balance);\n        require(success, \"Payment did not go through!\");\n        emit event_withdrawal(msg.sender, block.timestamp, balance);\n    }\n     function walletOfOwner(address _owner) public view returns (uint256[] memory){\n        uint256 ownerTokenCount = balanceOf(_owner);\n        uint256[] memory tokenIds = new uint256[](ownerTokenCount);\n        for (uint256 i; i < ownerTokenCount; i++) {\n            tokenIds[i] = tokenOfOwnerByIndex(_owner, i);\n        }\n        return tokenIds;\n    }\n\n    function tokenURI(uint256 tokenId) public view override returns (string memory)    {\n        require(_exists(tokenId), \"ERC721Metadata: URI query for nonexistent token\");\n        return string(abi.encodePacked(baseURI, tokenId.toString(), \".json\"));\n    }\n     function _mintLoop(address to, uint32 amount) private {\n        addressMintedBalance[to] += amount;\n        for (uint i; i < amount; i++ ) {\n            _safeMint(to,  _nftTokenCounter.current());\n             _nftTokenCounter.increment();\n        }\n    }\n    //only owner\n    function ownerMintFromReserve(address mintto, uint16 amount) public onlyOwner {\n        require(reserve >= amount, \"Not enough tokens left in reserve!\");\n        _mintLoop(mintto, amount);\n        reserve -= amount;\n    }    \n    function getBalance() public view returns (uint) {\n        return address(this).balance;\n    }\n }\n \n",
  "sourcePath": "C:\\Users\\Customer\\Desktop\\Clients\\VTDefiRepo\\vermontdefi\\contracts\\CoverCalls.sol",
  "compiler": {
    "name": "solc",
    "version": "0.8.11+commit.d7f03943.Emscripten.clang"
  },
  "schemaVersion": "3.4.4",
  "updatedAt": "2022-04-02T21:36:19.897Z",
  "networkType": "ethereum",
  "devdoc": {
    "kind": "dev",
    "methods": {
      "approve(address,uint256)": {
        "details": "See {IERC721-approve}."
      },
      "balanceOf(address)": {
        "details": "See {IERC721-balanceOf}."
      },
      "getApproved(uint256)": {
        "details": "See {IERC721-getApproved}."
      },
      "isApprovedForAll(address,address)": {
        "details": "See {IERC721-isApprovedForAll}."
      },
      "name()": {
        "details": "See {IERC721Metadata-name}."
      },
      "owner()": {
        "details": "Returns the address of the current owner."
      },
      "ownerOf(uint256)": {
        "details": "See {IERC721-ownerOf}."
      },
      "renounceOwnership()": {
        "details": "Leaves the contract without owner. It will not be possible to call `onlyOwner` functions anymore. Can only be called by the current owner. NOTE: Renouncing ownership will leave the contract without an owner, thereby removing any functionality that is only available to the owner."
      },
      "safeTransferFrom(address,address,uint256)": {
        "details": "See {IERC721-safeTransferFrom}."
      },
      "safeTransferFrom(address,address,uint256,bytes)": {
        "details": "See {IERC721-safeTransferFrom}."
      },
      "setApprovalForAll(address,bool)": {
        "details": "See {IERC721-setApprovalForAll}."
      },
      "symbol()": {
        "details": "See {IERC721Metadata-symbol}."
      },
      "tokenByIndex(uint256)": {
        "details": "See {IERC721Enumerable-tokenByIndex}."
      },
      "tokenOfOwnerByIndex(address,uint256)": {
        "details": "See {IERC721Enumerable-tokenOfOwnerByIndex}."
      },
      "tokenURI(uint256)": {
        "details": "See {IERC721Metadata-tokenURI}."
      },
      "totalSupply()": {
        "details": "See {IERC721Enumerable-totalSupply}."
      },
      "transferFrom(address,address,uint256)": {
        "details": "See {IERC721-transferFrom}."
      },
      "transferOwnership(address)": {
        "details": "Transfers ownership of the contract to a new account (`newOwner`). Can only be called by the current owner."
      }
    },
    "version": 1
  },
  "userdoc": {
    "kind": "user",
    "methods": {},
    "version": 1
  }
}