{
  "contractName": "TestNFT",
  "abi": [
    {
      "inputs": [],
      "stateMutability": "nonpayable",
      "type": "constructor"
    },
    {
      "anonymous": false,
      "inputs": [
        {
          "indexed": true,
          "internalType": "address",
          "name": "owner",
          "type": "address"
        },
        {
          "indexed": true,
          "internalType": "address",
          "name": "approved",
          "type": "address"
        },
        {
          "indexed": true,
          "internalType": "uint256",
          "name": "tokenId",
          "type": "uint256"
        }
      ],
      "name": "Approval",
      "type": "event"
    },
    {
      "anonymous": false,
      "inputs": [
        {
          "indexed": true,
          "internalType": "address",
          "name": "owner",
          "type": "address"
        },
        {
          "indexed": true,
          "internalType": "address",
          "name": "operator",
          "type": "address"
        },
        {
          "indexed": false,
          "internalType": "bool",
          "name": "approved",
          "type": "bool"
        }
      ],
      "name": "ApprovalForAll",
      "type": "event"
    },
    {
      "anonymous": false,
      "inputs": [
        {
          "indexed": true,
          "internalType": "address",
          "name": "previousOwner",
          "type": "address"
        },
        {
          "indexed": true,
          "internalType": "address",
          "name": "newOwner",
          "type": "address"
        }
      ],
      "name": "OwnershipTransferred",
      "type": "event"
    },
    {
      "anonymous": false,
      "inputs": [
        {
          "indexed": true,
          "internalType": "address",
          "name": "from",
          "type": "address"
        },
        {
          "indexed": true,
          "internalType": "address",
          "name": "to",
          "type": "address"
        },
        {
          "indexed": true,
          "internalType": "uint256",
          "name": "tokenId",
          "type": "uint256"
        }
      ],
      "name": "Transfer",
      "type": "event"
    },
    {
      "anonymous": false,
      "inputs": [
        {
          "indexed": true,
          "internalType": "address",
          "name": "user",
          "type": "address"
        },
        {
          "indexed": false,
          "internalType": "uint256",
          "name": "etherAmount",
          "type": "uint256"
        },
        {
          "indexed": false,
          "internalType": "uint256",
          "name": "orderTime",
          "type": "uint256"
        }
      ],
      "name": "event_placeorder",
      "type": "event"
    },
    {
      "anonymous": false,
      "inputs": [
        {
          "indexed": false,
          "internalType": "uint256",
          "name": "additionalfee",
          "type": "uint256"
        }
      ],
      "name": "event_setfee",
      "type": "event"
    },
    {
      "anonymous": false,
      "inputs": [
        {
          "indexed": false,
          "internalType": "uint256",
          "name": "mintprice",
          "type": "uint256"
        }
      ],
      "name": "event_setmintprice",
      "type": "event"
    },
    {
      "anonymous": false,
      "inputs": [
        {
          "indexed": true,
          "internalType": "address",
          "name": "user",
          "type": "address"
        },
        {
          "indexed": false,
          "internalType": "uint256",
          "name": "etherAmount",
          "type": "uint256"
        },
        {
          "indexed": false,
          "internalType": "uint256",
          "name": "depositTime",
          "type": "uint256"
        }
      ],
      "name": "event_withdrawal",
      "type": "event"
    },
    {
      "stateMutability": "payable",
      "type": "fallback"
    },
    {
      "inputs": [],
      "name": "additionalFees",
      "outputs": [
        {
          "internalType": "uint256",
          "name": "",
          "type": "uint256"
        }
      ],
      "stateMutability": "view",
      "type": "function"
    },
    {
      "inputs": [
        {
          "internalType": "address",
          "name": "",
          "type": "address"
        }
      ],
      "name": "addressMintedBalance",
      "outputs": [
        {
          "internalType": "uint32",
          "name": "",
          "type": "uint32"
        }
      ],
      "stateMutability": "view",
      "type": "function"
    },
    {
      "inputs": [
        {
          "internalType": "address",
          "name": "to",
          "type": "address"
        },
        {
          "internalType": "uint256",
          "name": "tokenId",
          "type": "uint256"
        }
      ],
      "name": "approve",
      "outputs": [],
      "stateMutability": "nonpayable",
      "type": "function"
    },
    {
      "inputs": [
        {
          "internalType": "address",
          "name": "owner",
          "type": "address"
        }
      ],
      "name": "balanceOf",
      "outputs": [
        {
          "internalType": "uint256",
          "name": "",
          "type": "uint256"
        }
      ],
      "stateMutability": "view",
      "type": "function"
    },
    {
      "inputs": [],
      "name": "baseURI",
      "outputs": [
        {
          "internalType": "string",
          "name": "",
          "type": "string"
        }
      ],
      "stateMutability": "view",
      "type": "function"
    },
    {
      "inputs": [
        {
          "internalType": "uint256",
          "name": "tokenId",
          "type": "uint256"
        }
      ],
      "name": "getApproved",
      "outputs": [
        {
          "internalType": "address",
          "name": "",
          "type": "address"
        }
      ],
      "stateMutability": "view",
      "type": "function"
    },
    {
      "inputs": [
        {
          "internalType": "address",
          "name": "owner",
          "type": "address"
        },
        {
          "internalType": "address",
          "name": "operator",
          "type": "address"
        }
      ],
      "name": "isApprovedForAll",
      "outputs": [
        {
          "internalType": "bool",
          "name": "",
          "type": "bool"
        }
      ],
      "stateMutability": "view",
      "type": "function"
    },
    {
      "inputs": [],
      "name": "mintPrice",
      "outputs": [
        {
          "internalType": "uint256",
          "name": "",
          "type": "uint256"
        }
      ],
      "stateMutability": "view",
      "type": "function"
    },
    {
      "inputs": [],
      "name": "mintingEnabled",
      "outputs": [
        {
          "internalType": "bool",
          "name": "",
          "type": "bool"
        }
      ],
      "stateMutability": "view",
      "type": "function"
    },
    {
      "inputs": [],
      "name": "name",
      "outputs": [
        {
          "internalType": "string",
          "name": "",
          "type": "string"
        }
      ],
      "stateMutability": "view",
      "type": "function"
    },
    {
      "inputs": [],
      "name": "owner",
      "outputs": [
        {
          "internalType": "address",
          "name": "",
          "type": "address"
        }
      ],
      "stateMutability": "view",
      "type": "function"
    },
    {
      "inputs": [
        {
          "internalType": "uint256",
          "name": "tokenId",
          "type": "uint256"
        }
      ],
      "name": "ownerOf",
      "outputs": [
        {
          "internalType": "address",
          "name": "",
          "type": "address"
        }
      ],
      "stateMutability": "view",
      "type": "function"
    },
    {
      "inputs": [],
      "name": "renounceOwnership",
      "outputs": [],
      "stateMutability": "nonpayable",
      "type": "function"
    },
    {
      "inputs": [],
      "name": "reserve",
      "outputs": [
        {
          "internalType": "uint16",
          "name": "",
          "type": "uint16"
        }
      ],
      "stateMutability": "view",
      "type": "function"
    },
    {
      "inputs": [
        {
          "internalType": "address",
          "name": "from",
          "type": "address"
        },
        {
          "internalType": "address",
          "name": "to",
          "type": "address"
        },
        {
          "internalType": "uint256",
          "name": "tokenId",
          "type": "uint256"
        }
      ],
      "name": "safeTransferFrom",
      "outputs": [],
      "stateMutability": "nonpayable",
      "type": "function"
    },
    {
      "inputs": [
        {
          "internalType": "address",
          "name": "from",
          "type": "address"
        },
        {
          "internalType": "address",
          "name": "to",
          "type": "address"
        },
        {
          "internalType": "uint256",
          "name": "tokenId",
          "type": "uint256"
        },
        {
          "internalType": "bytes",
          "name": "_data",
          "type": "bytes"
        }
      ],
      "name": "safeTransferFrom",
      "outputs": [],
      "stateMutability": "nonpayable",
      "type": "function"
    },
    {
      "inputs": [
        {
          "internalType": "address",
          "name": "operator",
          "type": "address"
        },
        {
          "internalType": "bool",
          "name": "approved",
          "type": "bool"
        }
      ],
      "name": "setApprovalForAll",
      "outputs": [],
      "stateMutability": "nonpayable",
      "type": "function"
    },
    {
      "inputs": [],
      "name": "symbol",
      "outputs": [
        {
          "internalType": "string",
          "name": "",
          "type": "string"
        }
      ],
      "stateMutability": "view",
      "type": "function"
    },
    {
      "inputs": [
        {
          "internalType": "uint256",
          "name": "index",
          "type": "uint256"
        }
      ],
      "name": "tokenByIndex",
      "outputs": [
        {
          "internalType": "uint256",
          "name": "",
          "type": "uint256"
        }
      ],
      "stateMutability": "view",
      "type": "function"
    },
    {
      "inputs": [
        {
          "internalType": "address",
          "name": "owner",
          "type": "address"
        },
        {
          "internalType": "uint256",
          "name": "index",
          "type": "uint256"
        }
      ],
      "name": "tokenOfOwnerByIndex",
      "outputs": [
        {
          "internalType": "uint256",
          "name": "",
          "type": "uint256"
        }
      ],
      "stateMutability": "view",
      "type": "function"
    },
    {
      "inputs": [],
      "name": "totalSupply",
      "outputs": [
        {
          "internalType": "uint256",
          "name": "",
          "type": "uint256"
        }
      ],
      "stateMutability": "view",
      "type": "function"
    },
    {
      "inputs": [
        {
          "internalType": "address",
          "name": "from",
          "type": "address"
        },
        {
          "internalType": "address",
          "name": "to",
          "type": "address"
        },
        {
          "internalType": "uint256",
          "name": "tokenId",
          "type": "uint256"
        }
      ],
      "name": "transferFrom",
      "outputs": [],
      "stateMutability": "nonpayable",
      "type": "function"
    },
    {
      "inputs": [
        {
          "internalType": "address",
          "name": "newOwner",
          "type": "address"
        }
      ],
      "name": "transferOwnership",
      "outputs": [],
      "stateMutability": "nonpayable",
      "type": "function"
    },
    {
      "stateMutability": "payable",
      "type": "receive"
    },
    {
      "inputs": [
        {
          "internalType": "bytes4",
          "name": "_interfaceId",
          "type": "bytes4"
        }
      ],
      "name": "supportsInterface",
      "outputs": [
        {
          "internalType": "bool",
          "name": "",
          "type": "bool"
        }
      ],
      "stateMutability": "view",
      "type": "function"
    },
    {
      "inputs": [
        {
          "internalType": "uint256",
          "name": "_tokenId",
          "type": "uint256"
        },
        {
          "internalType": "uint256",
          "name": "_salePrice",
          "type": "uint256"
        }
      ],
      "name": "royaltyInfo",
      "outputs": [
        {
          "internalType": "address",
          "name": "receiver",
          "type": "address"
        },
        {
          "internalType": "uint256",
          "name": "royaltyAmount",
          "type": "uint256"
        }
      ],
      "stateMutability": "view",
      "type": "function"
    },
    {
      "inputs": [
        {
          "internalType": "uint256",
          "name": "_mintPrice",
          "type": "uint256"
        }
      ],
      "name": "setMintPrice",
      "outputs": [],
      "stateMutability": "nonpayable",
      "type": "function"
    },
    {
      "inputs": [],
      "name": "getMintPrice",
      "outputs": [
        {
          "internalType": "uint256",
          "name": "",
          "type": "uint256"
        }
      ],
      "stateMutability": "view",
      "type": "function"
    },
    {
      "inputs": [
        {
          "internalType": "uint256",
          "name": "_additionalFee",
          "type": "uint256"
        }
      ],
      "name": "setFeePrice",
      "outputs": [],
      "stateMutability": "nonpayable",
      "type": "function"
    },
    {
      "inputs": [],
      "name": "getFeePrice",
      "outputs": [
        {
          "internalType": "uint256",
          "name": "",
          "type": "uint256"
        }
      ],
      "stateMutability": "view",
      "type": "function"
    },
    {
      "inputs": [],
      "name": "getTokenId",
      "outputs": [
        {
          "internalType": "uint256",
          "name": "",
          "type": "uint256"
        }
      ],
      "stateMutability": "view",
      "type": "function"
    },
    {
      "inputs": [
        {
          "internalType": "uint32",
          "name": "_mintAmount",
          "type": "uint32"
        },
        {
          "internalType": "uint256",
          "name": "_miscFees",
          "type": "uint256"
        }
      ],
      "name": "placeOrder",
      "outputs": [
        {
          "internalType": "bool",
          "name": "",
          "type": "bool"
        }
      ],
      "stateMutability": "payable",
      "type": "function"
    },
    {
      "inputs": [
        {
          "internalType": "address",
          "name": "_owner",
          "type": "address"
        }
      ],
      "name": "walletOfOwner",
      "outputs": [
        {
          "internalType": "uint256[]",
          "name": "",
          "type": "uint256[]"
        }
      ],
      "stateMutability": "view",
      "type": "function"
    },
    {
      "inputs": [
        {
          "internalType": "uint256",
          "name": "tokenId",
          "type": "uint256"
        }
      ],
      "name": "tokenURI",
      "outputs": [
        {
          "internalType": "string",
          "name": "",
          "type": "string"
        }
      ],
      "stateMutability": "view",
      "type": "function"
    },
    {
      "inputs": [
        {
          "internalType": "address",
          "name": "mintto",
          "type": "address"
        },
        {
          "internalType": "uint16",
          "name": "amount",
          "type": "uint16"
        }
      ],
      "name": "ownerMintFromReserve",
      "outputs": [],
      "stateMutability": "nonpayable",
      "type": "function"
    },
    {
      "inputs": [
        {
          "internalType": "string",
          "name": "_newBaseURI",
          "type": "string"
        }
      ],
      "name": "setBaseURI",
      "outputs": [],
      "stateMutability": "nonpayable",
      "type": "function"
    },
    {
      "inputs": [],
      "name": "toggleMinting",
      "outputs": [],
      "stateMutability": "nonpayable",
      "type": "function"
    },
    {
      "inputs": [],
      "name": "withdraw",
      "outputs": [],
      "stateMutability": "nonpayable",
      "type": "function"
    },
    {
      "inputs": [],
      "name": "getBalance",
      "outputs": [
        {
          "internalType": "uint256",
          "name": "",
          "type": "uint256"
        }
      ],
      "stateMutability": "view",
      "type": "function"
    }
  ],
  "bytecode": "0x60806040526040518060400160405280602081526020017f687474703a2f2f7665726d6f6e74646566692e636f6d2f6e66742f6a736f6e2f815250600c9080519060200190620000519291906200023e565b506101f4600d60006101000a81548161ffff021916908361ffff16021790555066470de4df820000600e556000600f556000601060006101000a81548160ff021916908315150217905550348015620000a957600080fd5b506040518060400160405280600781526020017f546573744e4654000000000000000000000000000000000000000000000000008152506040518060400160405280600481526020017f544e46540000000000000000000000000000000000000000000000000000000081525081600090805190602001906200012e9291906200023e565b508060019080519060200190620001479291906200023e565b5050506200016a6200015e6200017060201b60201c565b6200017860201b60201c565b62000353565b600033905090565b6000600a60009054906101000a900473ffffffffffffffffffffffffffffffffffffffff16905081600a60006101000a81548173ffffffffffffffffffffffffffffffffffffffff021916908373ffffffffffffffffffffffffffffffffffffffff1602179055508173ffffffffffffffffffffffffffffffffffffffff168173ffffffffffffffffffffffffffffffffffffffff167f8be0079c531659141344cd1fd0a4f28419497f9722a3daafe3b4186f6b6457e060405160405180910390a35050565b8280546200024c906200031d565b90600052602060002090601f016020900481019282620002705760008555620002bc565b82601f106200028b57805160ff1916838001178555620002bc565b82800160010185558215620002bc579182015b82811115620002bb5782518255916020019190600101906200029e565b5b509050620002cb9190620002cf565b5090565b5b80821115620002ea576000816000905550600101620002d0565b5090565b7f4e487b7100000000000000000000000000000000000000000000000000000000600052602260045260246000fd5b600060028204905060018216806200033657607f821691505b602082108114156200034d576200034c620002ee565b5b50919050565b614cf080620003636000396000f3fe6080604052600436106102295760003560e01c80636c0360eb11610123578063a7f93ebd116100ab578063caedcc4a1161006f578063caedcc4a1461082b578063cd3293de14610856578063e985e9c514610881578063f2fde38b146108be578063f4a0a528146108e757610230565b8063a7f93ebd14610741578063b43d36d81461076c578063b88d4fde1461079c578063c76e9bff146107c5578063c87b56dd146107ee57610230565b80638da5cb5b116100f25780638da5cb5b1461066c57806395d89b411461069757806397a3672f146106c25780639fd6db12146106ed578063a22cb4651461071857610230565b80636c0360eb146105d657806370a0823114610601578063715018a61461063e5780637d55094d1461065557610230565b8063245ccdb7116101b1578063438b630011610175578063438b6300146104cb5780634f6ccce71461050857806355f804b3146105455780636352211e1461056e5780636817c76c146105ab57610230565b8063245ccdb7146103e75780632a55205a146104105780632f745c591461044e5780633ccfd60b1461048b57806342842e0e146104a257610230565b8063095ea7b3116101f8578063095ea7b31461030257806312065fe01461032b57806318160ddd1461035657806318cae2691461038157806323b872dd146103be57610230565b8063010a38f51461023257806301ffc9a71461025d57806306fdde031461029a578063081812fc146102c557610230565b3661023057005b005b34801561023e57600080fd5b50610247610910565b6040516102549190613110565b60405180910390f35b34801561026957600080fd5b50610284600480360381019061027f9190613197565b610921565b60405161029191906131df565b60405180910390f35b3480156102a657600080fd5b506102af61099b565b6040516102bc9190613293565b60405180910390f35b3480156102d157600080fd5b506102ec60048036038101906102e791906132e1565b610a2d565b6040516102f9919061334f565b60405180910390f35b34801561030e57600080fd5b5061032960048036038101906103249190613396565b610ab2565b005b34801561033757600080fd5b50610340610bca565b60405161034d9190613110565b60405180910390f35b34801561036257600080fd5b5061036b610bd2565b6040516103789190613110565b60405180910390f35b34801561038d57600080fd5b506103a860048036038101906103a391906133d6565b610bdf565b6040516103b59190613422565b60405180910390f35b3480156103ca57600080fd5b506103e560048036038101906103e0919061343d565b610c02565b005b3480156103f357600080fd5b5061040e600480360381019061040991906132e1565b610c62565b005b34801561041c57600080fd5b5061043760048036038101906104329190613490565b610d1f565b6040516104459291906134d0565b60405180910390f35b34801561045a57600080fd5b5061047560048036038101906104709190613396565b610d8a565b6040516104829190613110565b60405180910390f35b34801561049757600080fd5b506104a0610e2f565b005b3480156104ae57600080fd5b506104c960048036038101906104c4919061343d565b611003565b005b3480156104d757600080fd5b506104f260048036038101906104ed91906133d6565b611023565b6040516104ff91906135b7565b60405180910390f35b34801561051457600080fd5b5061052f600480360381019061052a91906132e1565b6110d1565b60405161053c9190613110565b60405180910390f35b34801561055157600080fd5b5061056c6004803603810190610567919061370e565b611142565b005b34801561057a57600080fd5b50610595600480360381019061059091906132e1565b6111d8565b6040516105a2919061334f565b60405180910390f35b3480156105b757600080fd5b506105c061128a565b6040516105cd9190613110565b60405180910390f35b3480156105e257600080fd5b506105eb611290565b6040516105f89190613293565b60405180910390f35b34801561060d57600080fd5b50610628600480360381019061062391906133d6565b61131e565b6040516106359190613110565b60405180910390f35b34801561064a57600080fd5b506106536113d6565b005b34801561066157600080fd5b5061066a61145e565b005b34801561067857600080fd5b50610681611506565b60405161068e919061334f565b60405180910390f35b3480156106a357600080fd5b506106ac611530565b6040516106b99190613293565b60405180910390f35b3480156106ce57600080fd5b506106d76115c2565b6040516106e49190613110565b60405180910390f35b3480156106f957600080fd5b506107026115cc565b60405161070f91906131df565b60405180910390f35b34801561072457600080fd5b5061073f600480360381019061073a9190613783565b6115df565b005b34801561074d57600080fd5b506107566115f5565b6040516107639190613110565b60405180910390f35b610786600480360381019061078191906137ef565b6115ff565b60405161079391906131df565b60405180910390f35b3480156107a857600080fd5b506107c360048036038101906107be91906138d0565b6117c8565b005b3480156107d157600080fd5b506107ec60048036038101906107e7919061398d565b61182a565b005b3480156107fa57600080fd5b50610815600480360381019061081091906132e1565b61194c565b6040516108229190613293565b60405180910390f35b34801561083757600080fd5b506108406119c8565b60405161084d9190613110565b60405180910390f35b34801561086257600080fd5b5061086b6119ce565b60405161087891906139dc565b60405180910390f35b34801561088d57600080fd5b506108a860048036038101906108a391906139f7565b6119e2565b6040516108b591906131df565b60405180910390f35b3480156108ca57600080fd5b506108e560048036038101906108e091906133d6565b611a76565b005b3480156108f357600080fd5b5061090e600480360381019061090991906132e1565b611b6e565b005b600061091c600b611c2b565b905090565b60007f2a55205a000000000000000000000000000000000000000000000000000000007bffffffffffffffffffffffffffffffffffffffffffffffffffffffff1916827bffffffffffffffffffffffffffffffffffffffffffffffffffffffff19161480610994575061099382611c39565b5b9050919050565b6060600080546109aa90613a66565b80601f01602080910402602001604051908101604052809291908181526020018280546109d690613a66565b8015610a235780601f106109f857610100808354040283529160200191610a23565b820191906000526020600020905b815481529060010190602001808311610a0657829003601f168201915b5050505050905090565b6000610a3882611cb3565b610a77576040517f08c379a0000000000000000000000000000000000000000000000000000000008152600401610a6e90613b0a565b60405180910390fd5b6004600083815260200190815260200160002060009054906101000a900473ffffffffffffffffffffffffffffffffffffffff169050919050565b6000610abd826111d8565b90508073ffffffffffffffffffffffffffffffffffffffff168373ffffffffffffffffffffffffffffffffffffffff161415610b2e576040517f08c379a0000000000000000000000000000000000000000000000000000000008152600401610b2590613b9c565b60405180910390fd5b8073ffffffffffffffffffffffffffffffffffffffff16610b4d611d1f565b73ffffffffffffffffffffffffffffffffffffffff161480610b7c5750610b7b81610b76611d1f565b6119e2565b5b610bbb576040517f08c379a0000000000000000000000000000000000000000000000000000000008152600401610bb290613c2e565b60405180910390fd5b610bc58383611d27565b505050565b600047905090565b6000600880549050905090565b60116020528060005260406000206000915054906101000a900463ffffffff1681565b610c13610c0d611d1f565b82611de0565b610c52576040517f08c379a0000000000000000000000000000000000000000000000000000000008152600401610c4990613cc0565b60405180910390fd5b610c5d838383611ebe565b505050565b610c6a611d1f565b73ffffffffffffffffffffffffffffffffffffffff16610c88611506565b73ffffffffffffffffffffffffffffffffffffffff1614610cde576040517f08c379a0000000000000000000000000000000000000000000000000000000008152600401610cd590613d2c565b60405180910390fd5b80600f819055507fea54c9c8151d85c0ead187c9456e03dfed01e0b45d48f9b6d999f98cc789c64181604051610d149190613110565b60405180910390a150565b600080610d2b84611cb3565b610d6a576040517f08c379a0000000000000000000000000000000000000000000000000000000008152600401610d6190613dbe565b60405180910390fd5b610d72611506565b600a84610d7f9190613e3c565b915091509250929050565b6000610d958361131e565b8210610dd6576040517f08c379a0000000000000000000000000000000000000000000000000000000008152600401610dcd90613edf565b60405180910390fd5b600660008473ffffffffffffffffffffffffffffffffffffffff1673ffffffffffffffffffffffffffffffffffffffff168152602001908152602001600020600083815260200190815260200160002054905092915050565b610e37611d1f565b73ffffffffffffffffffffffffffffffffffffffff16610e55611506565b73ffffffffffffffffffffffffffffffffffffffff1614610eab576040517f08c379a0000000000000000000000000000000000000000000000000000000008152600401610ea290613d2c565b60405180910390fd5b601060019054906101000a900460ff1615610efb576040517f08c379a0000000000000000000000000000000000000000000000000000000008152600401610ef290613f4b565b60405180910390fd5b6001601060016101000a81548160ff021916908315150217905550600047905060003373ffffffffffffffffffffffffffffffffffffffff166108fc479081150290604051600060405180830381858888f19350505050905080610f94576040517f08c379a0000000000000000000000000000000000000000000000000000000008152600401610f8b90613fb7565b60405180910390fd5b3373ffffffffffffffffffffffffffffffffffffffff167f820316edc5902740bd3706ccbaa6163e1b273dfc49308de0f9c4ab375047ee0d4284604051610fdc929190613fd7565b60405180910390a250506000601060016101000a81548160ff021916908315150217905550565b61101e838383604051806020016040528060008152506117c8565b505050565b606060006110308361131e565b905060008167ffffffffffffffff81111561104e5761104d6135e3565b5b60405190808252806020026020018201604052801561107c5781602001602082028036833780820191505090505b50905060005b828110156110c6576110948582610d8a565b8282815181106110a7576110a6614000565b5b60200260200101818152505080806110be9061402f565b915050611082565b508092505050919050565b60006110db610bd2565b821061111c576040517f08c379a0000000000000000000000000000000000000000000000000000000008152600401611113906140ea565b60405180910390fd5b600882815481106111305761112f614000565b5b90600052602060002001549050919050565b61114a611d1f565b73ffffffffffffffffffffffffffffffffffffffff16611168611506565b73ffffffffffffffffffffffffffffffffffffffff16146111be576040517f08c379a00000000000000000000000000000000000000000000000000000000081526004016111b590613d2c565b60405180910390fd5b80600c90805190602001906111d4929190613054565b5050565b6000806002600084815260200190815260200160002060009054906101000a900473ffffffffffffffffffffffffffffffffffffffff169050600073ffffffffffffffffffffffffffffffffffffffff168173ffffffffffffffffffffffffffffffffffffffff161415611281576040517f08c379a00000000000000000000000000000000000000000000000000000000081526004016112789061417c565b60405180910390fd5b80915050919050565b600e5481565b600c805461129d90613a66565b80601f01602080910402602001604051908101604052809291908181526020018280546112c990613a66565b80156113165780601f106112eb57610100808354040283529160200191611316565b820191906000526020600020905b8154815290600101906020018083116112f957829003601f168201915b505050505081565b60008073ffffffffffffffffffffffffffffffffffffffff168273ffffffffffffffffffffffffffffffffffffffff16141561138f576040517f08c379a00000000000000000000000000000000000000000000000000000000081526004016113869061420e565b60405180910390fd5b600360008373ffffffffffffffffffffffffffffffffffffffff1673ffffffffffffffffffffffffffffffffffffffff168152602001908152602001600020549050919050565b6113de611d1f565b73ffffffffffffffffffffffffffffffffffffffff166113fc611506565b73ffffffffffffffffffffffffffffffffffffffff1614611452576040517f08c379a000000000000000000000000000000000000000000000000000000000815260040161144990613d2c565b60405180910390fd5b61145c6000612125565b565b611466611d1f565b73ffffffffffffffffffffffffffffffffffffffff16611484611506565b73ffffffffffffffffffffffffffffffffffffffff16146114da576040517f08c379a00000000000000000000000000000000000000000000000000000000081526004016114d190613d2c565b60405180910390fd5b601060009054906101000a900460ff1615601060006101000a81548160ff021916908315150217905550565b6000600a60009054906101000a900473ffffffffffffffffffffffffffffffffffffffff16905090565b60606001805461153f90613a66565b80601f016020809104026020016040519081016040528092919081815260200182805461156b90613a66565b80156115b85780601f1061158d576101008083540402835291602001916115b8565b820191906000526020600020905b81548152906001019060200180831161159b57829003601f168201915b5050505050905090565b6000600f54905090565b601060009054906101000a900460ff1681565b6115f16115ea611d1f565b83836121eb565b5050565b6000600e54905090565b6000601060019054906101000a900460ff1615611651576040517f08c379a000000000000000000000000000000000000000000000000000000000815260040161164890613f4b565b60405180910390fd5b6001601060016101000a81548160ff02191690831515021790555060011515601060009054906101000a900460ff1615151461168c57600080fd5b60008363ffffffff16116116d5576040517f08c379a00000000000000000000000000000000000000000000000000000000081526004016116cc9061427a565b60405180910390fd5b6000600f54838563ffffffff16600e546116ef919061429a565b6116f991906142f4565b61170391906142f4565b905080341015611748576040517f08c379a000000000000000000000000000000000000000000000000000000000815260040161173f906143bc565b60405180910390fd5b6117526001612358565b3373ffffffffffffffffffffffffffffffffffffffff167f3922ae51d52d742aa114ed5ba1d543a46449a8dff11e0693252574e11ab93a5d344260405161179a929190613fd7565b60405180910390a260019150506000601060016101000a81548160ff02191690831515021790555092915050565b6117d96117d3611d1f565b83611de0565b611818576040517f08c379a000000000000000000000000000000000000000000000000000000000815260040161180f90613cc0565b60405180910390fd5b61182484848484612451565b50505050565b611832611d1f565b73ffffffffffffffffffffffffffffffffffffffff16611850611506565b73ffffffffffffffffffffffffffffffffffffffff16146118a6576040517f08c379a000000000000000000000000000000000000000000000000000000000815260040161189d90613d2c565b60405180910390fd5b8061ffff16600d60009054906101000a900461ffff1661ffff161015611901576040517f08c379a00000000000000000000000000000000000000000000000000000000081526004016118f89061444e565b60405180910390fd5b61190f828261ffff166124ad565b80600d60008282829054906101000a900461ffff1661192e919061446e565b92506101000a81548161ffff021916908361ffff1602179055505050565b606061195782611cb3565b611996576040517f08c379a000000000000000000000000000000000000000000000000000000000815260040161198d90614514565b60405180910390fd5b600c6119a18361256f565b6040516020016119b2929190614650565b6040516020818303038152906040529050919050565b600f5481565b600d60009054906101000a900461ffff1681565b6000600560008473ffffffffffffffffffffffffffffffffffffffff1673ffffffffffffffffffffffffffffffffffffffff16815260200190815260200160002060008373ffffffffffffffffffffffffffffffffffffffff1673ffffffffffffffffffffffffffffffffffffffff16815260200190815260200160002060009054906101000a900460ff16905092915050565b611a7e611d1f565b73ffffffffffffffffffffffffffffffffffffffff16611a9c611506565b73ffffffffffffffffffffffffffffffffffffffff1614611af2576040517f08c379a0000000000000000000000000000000000000000000000000000000008152600401611ae990613d2c565b60405180910390fd5b600073ffffffffffffffffffffffffffffffffffffffff168173ffffffffffffffffffffffffffffffffffffffff161415611b62576040517f08c379a0000000000000000000000000000000000000000000000000000000008152600401611b59906146f1565b60405180910390fd5b611b6b81612125565b50565b611b76611d1f565b73ffffffffffffffffffffffffffffffffffffffff16611b94611506565b73ffffffffffffffffffffffffffffffffffffffff1614611bea576040517f08c379a0000000000000000000000000000000000000000000000000000000008152600401611be190613d2c565b60405180910390fd5b80600e819055507f2819a48b56919c4185cf857fbc6454f387c8ad0200d4f1dbd0b81c8c30cde91d81604051611c209190613110565b60405180910390a150565b600081600001549050919050565b60007f780e9d63000000000000000000000000000000000000000000000000000000007bffffffffffffffffffffffffffffffffffffffffffffffffffffffff1916827bffffffffffffffffffffffffffffffffffffffffffffffffffffffff19161480611cac5750611cab826126d0565b5b9050919050565b60008073ffffffffffffffffffffffffffffffffffffffff166002600084815260200190815260200160002060009054906101000a900473ffffffffffffffffffffffffffffffffffffffff1673ffffffffffffffffffffffffffffffffffffffff1614159050919050565b600033905090565b816004600083815260200190815260200160002060006101000a81548173ffffffffffffffffffffffffffffffffffffffff021916908373ffffffffffffffffffffffffffffffffffffffff160217905550808273ffffffffffffffffffffffffffffffffffffffff16611d9a836111d8565b73ffffffffffffffffffffffffffffffffffffffff167f8c5be1e5ebec7d5bd14f71427d1e84f3dd0314c0f7b2291e5b200ac8c7c3b92560405160405180910390a45050565b6000611deb82611cb3565b611e2a576040517f08c379a0000000000000000000000000000000000000000000000000000000008152600401611e2190614783565b60405180910390fd5b6000611e35836111d8565b90508073ffffffffffffffffffffffffffffffffffffffff168473ffffffffffffffffffffffffffffffffffffffff161480611ea457508373ffffffffffffffffffffffffffffffffffffffff16611e8c84610a2d565b73ffffffffffffffffffffffffffffffffffffffff16145b80611eb55750611eb481856119e2565b5b91505092915050565b8273ffffffffffffffffffffffffffffffffffffffff16611ede826111d8565b73ffffffffffffffffffffffffffffffffffffffff1614611f34576040517f08c379a0000000000000000000000000000000000000000000000000000000008152600401611f2b90614815565b60405180910390fd5b600073ffffffffffffffffffffffffffffffffffffffff168273ffffffffffffffffffffffffffffffffffffffff161415611fa4576040517f08c379a0000000000000000000000000000000000000000000000000000000008152600401611f9b906148a7565b60405180910390fd5b611faf8383836127b2565b611fba600082611d27565b6001600360008573ffffffffffffffffffffffffffffffffffffffff1673ffffffffffffffffffffffffffffffffffffffff168152602001908152602001600020600082825461200a91906148c7565b925050819055506001600360008473ffffffffffffffffffffffffffffffffffffffff1673ffffffffffffffffffffffffffffffffffffffff168152602001908152602001600020600082825461206191906142f4565b92505081905550816002600083815260200190815260200160002060006101000a81548173ffffffffffffffffffffffffffffffffffffffff021916908373ffffffffffffffffffffffffffffffffffffffff160217905550808273ffffffffffffffffffffffffffffffffffffffff168473ffffffffffffffffffffffffffffffffffffffff167fddf252ad1be2c89b69c2b068fc378daa952ba7f163c4a11628f55a4df523b3ef60405160405180910390a46121208383836128c6565b505050565b6000600a60009054906101000a900473ffffffffffffffffffffffffffffffffffffffff16905081600a60006101000a81548173ffffffffffffffffffffffffffffffffffffffff021916908373ffffffffffffffffffffffffffffffffffffffff1602179055508173ffffffffffffffffffffffffffffffffffffffff168173ffffffffffffffffffffffffffffffffffffffff167f8be0079c531659141344cd1fd0a4f28419497f9722a3daafe3b4186f6b6457e060405160405180910390a35050565b8173ffffffffffffffffffffffffffffffffffffffff168373ffffffffffffffffffffffffffffffffffffffff16141561225a576040517f08c379a000000000000000000000000000000000000000000000000000000000815260040161225190614947565b60405180910390fd5b80600560008573ffffffffffffffffffffffffffffffffffffffff1673ffffffffffffffffffffffffffffffffffffffff16815260200190815260200160002060008473ffffffffffffffffffffffffffffffffffffffff1673ffffffffffffffffffffffffffffffffffffffff16815260200190815260200160002060006101000a81548160ff0219169083151502179055508173ffffffffffffffffffffffffffffffffffffffff168373ffffffffffffffffffffffffffffffffffffffff167f17307eab39ab6107e8899845ad3d59bd9653f200f220920489ca2b5937696c318360405161234b91906131df565b60405180910390a3505050565b6140748163ffffffff1661236a610bd2565b61237491906142f4565b106123b4576040517f08c379a00000000000000000000000000000000000000000000000000000000081526004016123ab906149b3565b60405180910390fd5b6001601160003373ffffffffffffffffffffffffffffffffffffffff1673ffffffffffffffffffffffffffffffffffffffff16815260200190815260200160002060008282829054906101000a900463ffffffff1661241391906149d3565b92506101000a81548163ffffffff021916908363ffffffff1602179055506124443361243f600b611c2b565b6128cb565b61244e600b6128e9565b50565b61245c848484611ebe565b612468848484846128ff565b6124a7576040517f08c379a000000000000000000000000000000000000000000000000000000000815260040161249e90614a7f565b60405180910390fd5b50505050565b80601160008473ffffffffffffffffffffffffffffffffffffffff1673ffffffffffffffffffffffffffffffffffffffff16815260200190815260200160002060008282829054906101000a900463ffffffff1661250b91906149d3565b92506101000a81548163ffffffff021916908363ffffffff16021790555060005b8163ffffffff1681101561256a5761254d83612548600b611c2b565b6128cb565b612557600b6128e9565b80806125629061402f565b91505061252c565b505050565b606060008214156125b7576040518060400160405280600181526020017f300000000000000000000000000000000000000000000000000000000000000081525090506126cb565b600082905060005b600082146125e95780806125d29061402f565b915050600a826125e29190613e3c565b91506125bf565b60008167ffffffffffffffff811115612605576126046135e3565b5b6040519080825280601f01601f1916602001820160405280156126375781602001600182028036833780820191505090505b5090505b600085146126c45760018261265091906148c7565b9150600a8561265f9190614a9f565b603061266b91906142f4565b60f81b81838151811061268157612680614000565b5b60200101907effffffffffffffffffffffffffffffffffffffffffffffffffffffffffffff1916908160001a905350600a856126bd9190613e3c565b945061263b565b8093505050505b919050565b60007f80ac58cd000000000000000000000000000000000000000000000000000000007bffffffffffffffffffffffffffffffffffffffffffffffffffffffff1916827bffffffffffffffffffffffffffffffffffffffffffffffffffffffff1916148061279b57507f5b5e139f000000000000000000000000000000000000000000000000000000007bffffffffffffffffffffffffffffffffffffffffffffffffffffffff1916827bffffffffffffffffffffffffffffffffffffffffffffffffffffffff1916145b806127ab57506127aa82612a87565b5b9050919050565b6127bd838383612af1565b600073ffffffffffffffffffffffffffffffffffffffff168373ffffffffffffffffffffffffffffffffffffffff161415612800576127fb81612af6565b61283f565b8173ffffffffffffffffffffffffffffffffffffffff168373ffffffffffffffffffffffffffffffffffffffff161461283e5761283d8382612b3f565b5b5b600073ffffffffffffffffffffffffffffffffffffffff168273ffffffffffffffffffffffffffffffffffffffff1614156128825761287d81612cac565b6128c1565b8273ffffffffffffffffffffffffffffffffffffffff168273ffffffffffffffffffffffffffffffffffffffff16146128c0576128bf8282612d7d565b5b5b505050565b505050565b6128e5828260405180602001604052806000815250612dfc565b5050565b6001816000016000828254019250508190555050565b60006129208473ffffffffffffffffffffffffffffffffffffffff16612e57565b15612a7a578373ffffffffffffffffffffffffffffffffffffffff1663150b7a02612949611d1f565b8786866040518563ffffffff1660e01b815260040161296b9493929190614b25565b6020604051808303816000875af19250505080156129a757506040513d601f19601f820116820180604052508101906129a49190614b86565b60015b612a2a573d80600081146129d7576040519150601f19603f3d011682016040523d82523d6000602084013e6129dc565b606091505b50600081511415612a22576040517f08c379a0000000000000000000000000000000000000000000000000000000008152600401612a1990614a7f565b60405180910390fd5b805181602001fd5b63150b7a0260e01b7bffffffffffffffffffffffffffffffffffffffffffffffffffffffff1916817bffffffffffffffffffffffffffffffffffffffffffffffffffffffff191614915050612a7f565b600190505b949350505050565b60007f01ffc9a7000000000000000000000000000000000000000000000000000000007bffffffffffffffffffffffffffffffffffffffffffffffffffffffff1916827bffffffffffffffffffffffffffffffffffffffffffffffffffffffff1916149050919050565b505050565b6008805490506009600083815260200190815260200160002081905550600881908060018154018082558091505060019003906000526020600020016000909190919091505550565b60006001612b4c8461131e565b612b5691906148c7565b9050600060076000848152602001908152602001600020549050818114612c3b576000600660008673ffffffffffffffffffffffffffffffffffffffff1673ffffffffffffffffffffffffffffffffffffffff168152602001908152602001600020600084815260200190815260200160002054905080600660008773ffffffffffffffffffffffffffffffffffffffff1673ffffffffffffffffffffffffffffffffffffffff168152602001908152602001600020600084815260200190815260200160002081905550816007600083815260200190815260200160002081905550505b6007600084815260200190815260200160002060009055600660008573ffffffffffffffffffffffffffffffffffffffff1673ffffffffffffffffffffffffffffffffffffffff16815260200190815260200160002060008381526020019081526020016000206000905550505050565b60006001600880549050612cc091906148c7565b9050600060096000848152602001908152602001600020549050600060088381548110612cf057612cef614000565b5b906000526020600020015490508060088381548110612d1257612d11614000565b5b906000526020600020018190555081600960008381526020019081526020016000208190555060096000858152602001908152602001600020600090556008805480612d6157612d60614bb3565b5b6001900381819060005260206000200160009055905550505050565b6000612d888361131e565b905081600660008573ffffffffffffffffffffffffffffffffffffffff1673ffffffffffffffffffffffffffffffffffffffff168152602001908152602001600020600083815260200190815260200160002081905550806007600084815260200190815260200160002081905550505050565b612e068383612e7a565b612e1360008484846128ff565b612e52576040517f08c379a0000000000000000000000000000000000000000000000000000000008152600401612e4990614a7f565b60405180910390fd5b505050565b6000808273ffffffffffffffffffffffffffffffffffffffff163b119050919050565b600073ffffffffffffffffffffffffffffffffffffffff168273ffffffffffffffffffffffffffffffffffffffff161415612eea576040517f08c379a0000000000000000000000000000000000000000000000000000000008152600401612ee190614c2e565b60405180910390fd5b612ef381611cb3565b15612f33576040517f08c379a0000000000000000000000000000000000000000000000000000000008152600401612f2a90614c9a565b60405180910390fd5b612f3f600083836127b2565b6001600360008473ffffffffffffffffffffffffffffffffffffffff1673ffffffffffffffffffffffffffffffffffffffff1681526020019081526020016000206000828254612f8f91906142f4565b92505081905550816002600083815260200190815260200160002060006101000a81548173ffffffffffffffffffffffffffffffffffffffff021916908373ffffffffffffffffffffffffffffffffffffffff160217905550808273ffffffffffffffffffffffffffffffffffffffff16600073ffffffffffffffffffffffffffffffffffffffff167fddf252ad1be2c89b69c2b068fc378daa952ba7f163c4a11628f55a4df523b3ef60405160405180910390a4613050600083836128c6565b5050565b82805461306090613a66565b90600052602060002090601f01602090048101928261308257600085556130c9565b82601f1061309b57805160ff19168380011785556130c9565b828001600101855582156130c9579182015b828111156130c85782518255916020019190600101906130ad565b5b5090506130d691906130da565b5090565b5b808211156130f35760008160009055506001016130db565b5090565b6000819050919050565b61310a816130f7565b82525050565b60006020820190506131256000830184613101565b92915050565b6000604051905090565b600080fd5b600080fd5b60007fffffffff0000000000000000000000000000000000000000000000000000000082169050919050565b6131748161313f565b811461317f57600080fd5b50565b6000813590506131918161316b565b92915050565b6000602082840312156131ad576131ac613135565b5b60006131bb84828501613182565b91505092915050565b60008115159050919050565b6131d9816131c4565b82525050565b60006020820190506131f460008301846131d0565b92915050565b600081519050919050565b600082825260208201905092915050565b60005b83811015613234578082015181840152602081019050613219565b83811115613243576000848401525b50505050565b6000601f19601f8301169050919050565b6000613265826131fa565b61326f8185613205565b935061327f818560208601613216565b61328881613249565b840191505092915050565b600060208201905081810360008301526132ad818461325a565b905092915050565b6132be816130f7565b81146132c957600080fd5b50565b6000813590506132db816132b5565b92915050565b6000602082840312156132f7576132f6613135565b5b6000613305848285016132cc565b91505092915050565b600073ffffffffffffffffffffffffffffffffffffffff82169050919050565b60006133398261330e565b9050919050565b6133498161332e565b82525050565b60006020820190506133646000830184613340565b92915050565b6133738161332e565b811461337e57600080fd5b50565b6000813590506133908161336a565b92915050565b600080604083850312156133ad576133ac613135565b5b60006133bb85828601613381565b92505060206133cc858286016132cc565b9150509250929050565b6000602082840312156133ec576133eb613135565b5b60006133fa84828501613381565b91505092915050565b600063ffffffff82169050919050565b61341c81613403565b82525050565b60006020820190506134376000830184613413565b92915050565b60008060006060848603121561345657613455613135565b5b600061346486828701613381565b935050602061347586828701613381565b9250506040613486868287016132cc565b9150509250925092565b600080604083850312156134a7576134a6613135565b5b60006134b5858286016132cc565b92505060206134c6858286016132cc565b9150509250929050565b60006040820190506134e56000830185613340565b6134f26020830184613101565b9392505050565b600081519050919050565b600082825260208201905092915050565b6000819050602082019050919050565b61352e816130f7565b82525050565b60006135408383613525565b60208301905092915050565b6000602082019050919050565b6000613564826134f9565b61356e8185613504565b935061357983613515565b8060005b838110156135aa5781516135918882613534565b975061359c8361354c565b92505060018101905061357d565b5085935050505092915050565b600060208201905081810360008301526135d18184613559565b905092915050565b600080fd5b600080fd5b7f4e487b7100000000000000000000000000000000000000000000000000000000600052604160045260246000fd5b61361b82613249565b810181811067ffffffffffffffff8211171561363a576136396135e3565b5b80604052505050565b600061364d61312b565b90506136598282613612565b919050565b600067ffffffffffffffff821115613679576136786135e3565b5b61368282613249565b9050602081019050919050565b82818337600083830152505050565b60006136b16136ac8461365e565b613643565b9050828152602081018484840111156136cd576136cc6135de565b5b6136d884828561368f565b509392505050565b600082601f8301126136f5576136f46135d9565b5b813561370584826020860161369e565b91505092915050565b60006020828403121561372457613723613135565b5b600082013567ffffffffffffffff8111156137425761374161313a565b5b61374e848285016136e0565b91505092915050565b613760816131c4565b811461376b57600080fd5b50565b60008135905061377d81613757565b92915050565b6000806040838503121561379a57613799613135565b5b60006137a885828601613381565b92505060206137b98582860161376e565b9150509250929050565b6137cc81613403565b81146137d757600080fd5b50565b6000813590506137e9816137c3565b92915050565b6000806040838503121561380657613805613135565b5b6000613814858286016137da565b9250506020613825858286016132cc565b9150509250929050565b600067ffffffffffffffff82111561384a576138496135e3565b5b61385382613249565b9050602081019050919050565b600061387361386e8461382f565b613643565b90508281526020810184848401111561388f5761388e6135de565b5b61389a84828561368f565b509392505050565b600082601f8301126138b7576138b66135d9565b5b81356138c7848260208601613860565b91505092915050565b600080600080608085870312156138ea576138e9613135565b5b60006138f887828801613381565b945050602061390987828801613381565b935050604061391a878288016132cc565b925050606085013567ffffffffffffffff81111561393b5761393a61313a565b5b613947878288016138a2565b91505092959194509250565b600061ffff82169050919050565b61396a81613953565b811461397557600080fd5b50565b60008135905061398781613961565b92915050565b600080604083850312156139a4576139a3613135565b5b60006139b285828601613381565b92505060206139c385828601613978565b9150509250929050565b6139d681613953565b82525050565b60006020820190506139f160008301846139cd565b92915050565b60008060408385031215613a0e57613a0d613135565b5b6000613a1c85828601613381565b9250506020613a2d85828601613381565b9150509250929050565b7f4e487b7100000000000000000000000000000000000000000000000000000000600052602260045260246000fd5b60006002820490506001821680613a7e57607f821691505b60208210811415613a9257613a91613a37565b5b50919050565b7f4552433732313a20617070726f76656420717565727920666f72206e6f6e657860008201527f697374656e7420746f6b656e0000000000000000000000000000000000000000602082015250565b6000613af4602c83613205565b9150613aff82613a98565b604082019050919050565b60006020820190508181036000830152613b2381613ae7565b9050919050565b7f4552433732313a20617070726f76616c20746f2063757272656e74206f776e6560008201527f7200000000000000000000000000000000000000000000000000000000000000602082015250565b6000613b86602183613205565b9150613b9182613b2a565b604082019050919050565b60006020820190508181036000830152613bb581613b79565b9050919050565b7f4552433732313a20617070726f76652063616c6c6572206973206e6f74206f7760008201527f6e6572206e6f7220617070726f76656420666f7220616c6c0000000000000000602082015250565b6000613c18603883613205565b9150613c2382613bbc565b604082019050919050565b60006020820190508181036000830152613c4781613c0b565b9050919050565b7f4552433732313a207472616e736665722063616c6c6572206973206e6f74206f60008201527f776e6572206e6f7220617070726f766564000000000000000000000000000000602082015250565b6000613caa603183613205565b9150613cb582613c4e565b604082019050919050565b60006020820190508181036000830152613cd981613c9d565b9050919050565b7f4f776e61626c653a2063616c6c6572206973206e6f7420746865206f776e6572600082015250565b6000613d16602083613205565b9150613d2182613ce0565b602082019050919050565b60006020820190508181036000830152613d4581613d09565b9050919050565b7f45524332393831526f79616c74795374616e646172643a20526f79616c74792060008201527f696e666f20666f72206e6f6e6578697374656e7420746f6b656e000000000000602082015250565b6000613da8603a83613205565b9150613db382613d4c565b604082019050919050565b60006020820190508181036000830152613dd781613d9b565b9050919050565b7f4e487b7100000000000000000000000000000000000000000000000000000000600052601260045260246000fd5b7f4e487b7100000000000000000000000000000000000000000000000000000000600052601160045260246000fd5b6000613e47826130f7565b9150613e52836130f7565b925082613e6257613e61613dde565b5b828204905092915050565b7f455243373231456e756d657261626c653a206f776e657220696e646578206f7560008201527f74206f6620626f756e6473000000000000000000000000000000000000000000602082015250565b6000613ec9602b83613205565b9150613ed482613e6d565b604082019050919050565b60006020820190508181036000830152613ef881613ebc565b9050919050565b7f4e6f2072652d656e7472616e6379000000000000000000000000000000000000600082015250565b6000613f35600e83613205565b9150613f4082613eff565b602082019050919050565b60006020820190508181036000830152613f6481613f28565b9050919050565b7f5061796d656e7420646964206e6f7420676f207468726f756768210000000000600082015250565b6000613fa1601b83613205565b9150613fac82613f6b565b602082019050919050565b60006020820190508181036000830152613fd081613f94565b9050919050565b6000604082019050613fec6000830185613101565b613ff96020830184613101565b9392505050565b7f4e487b7100000000000000000000000000000000000000000000000000000000600052603260045260246000fd5b600061403a826130f7565b91507fffffffffffffffffffffffffffffffffffffffffffffffffffffffffffffffff82141561406d5761406c613e0d565b5b600182019050919050565b7f455243373231456e756d657261626c653a20676c6f62616c20696e646578206f60008201527f7574206f6620626f756e64730000000000000000000000000000000000000000602082015250565b60006140d4602c83613205565b91506140df82614078565b604082019050919050565b60006020820190508181036000830152614103816140c7565b9050919050565b7f4552433732313a206f776e657220717565727920666f72206e6f6e657869737460008201527f656e7420746f6b656e0000000000000000000000000000000000000000000000602082015250565b6000614166602983613205565b91506141718261410a565b604082019050919050565b6000602082019050818103600083015261419581614159565b9050919050565b7f4552433732313a2062616c616e636520717565727920666f7220746865207a6560008201527f726f206164647265737300000000000000000000000000000000000000000000602082015250565b60006141f8602a83613205565b91506142038261419c565b604082019050919050565b60006020820190508181036000830152614227816141eb565b9050919050565b7f596f75204d757374204d696e74206174206c65617374206f6e65206e66740000600082015250565b6000614264601e83613205565b915061426f8261422e565b602082019050919050565b6000602082019050818103600083015261429381614257565b9050919050565b60006142a5826130f7565b91506142b0836130f7565b9250817fffffffffffffffffffffffffffffffffffffffffffffffffffffffffffffffff04831182151516156142e9576142e8613e0d565b5b828202905092915050565b60006142ff826130f7565b915061430a836130f7565b9250827fffffffffffffffffffffffffffffffffffffffffffffffffffffffffffffffff0382111561433f5761433e613e0d565b5b828201905092915050565b7f457468657265756d20616d6f756e742073656e74206973206e6f7420656e6f7560008201527f6768210000000000000000000000000000000000000000000000000000000000602082015250565b60006143a6602383613205565b91506143b18261434a565b604082019050919050565b600060208201905081810360008301526143d581614399565b9050919050565b7f4e6f7420656e6f75676820746f6b656e73206c65667420696e2072657365727660008201527f6521000000000000000000000000000000000000000000000000000000000000602082015250565b6000614438602283613205565b9150614443826143dc565b604082019050919050565b600060208201905081810360008301526144678161442b565b9050919050565b600061447982613953565b915061448483613953565b92508282101561449757614496613e0d565b5b828203905092915050565b7f4552433732314d657461646174613a2055524920717565727920666f72206e6f60008201527f6e6578697374656e7420746f6b656e0000000000000000000000000000000000602082015250565b60006144fe602f83613205565b9150614509826144a2565b604082019050919050565b6000602082019050818103600083015261452d816144f1565b9050919050565b600081905092915050565b60008190508160005260206000209050919050565b6000815461456181613a66565b61456b8186614534565b945060018216600081146145865760018114614597576145ca565b60ff198316865281860193506145ca565b6145a08561453f565b60005b838110156145c2578154818901526001820191506020810190506145a3565b838801955050505b50505092915050565b60006145de826131fa565b6145e88185614534565b93506145f8818560208601613216565b80840191505092915050565b7f2e6a736f6e000000000000000000000000000000000000000000000000000000600082015250565b600061463a600583614534565b915061464582614604565b600582019050919050565b600061465c8285614554565b915061466882846145d3565b91506146738261462d565b91508190509392505050565b7f4f776e61626c653a206e6577206f776e657220697320746865207a65726f206160008201527f6464726573730000000000000000000000000000000000000000000000000000602082015250565b60006146db602683613205565b91506146e68261467f565b604082019050919050565b6000602082019050818103600083015261470a816146ce565b9050919050565b7f4552433732313a206f70657261746f7220717565727920666f72206e6f6e657860008201527f697374656e7420746f6b656e0000000000000000000000000000000000000000602082015250565b600061476d602c83613205565b915061477882614711565b604082019050919050565b6000602082019050818103600083015261479c81614760565b9050919050565b7f4552433732313a207472616e736665722066726f6d20696e636f72726563742060008201527f6f776e6572000000000000000000000000000000000000000000000000000000602082015250565b60006147ff602583613205565b915061480a826147a3565b604082019050919050565b6000602082019050818103600083015261482e816147f2565b9050919050565b7f4552433732313a207472616e7366657220746f20746865207a65726f2061646460008201527f7265737300000000000000000000000000000000000000000000000000000000602082015250565b6000614891602483613205565b915061489c82614835565b604082019050919050565b600060208201905081810360008301526148c081614884565b9050919050565b60006148d2826130f7565b91506148dd836130f7565b9250828210156148f0576148ef613e0d565b5b828203905092915050565b7f4552433732313a20617070726f766520746f2063616c6c657200000000000000600082015250565b6000614931601983613205565b915061493c826148fb565b602082019050919050565b6000602082019050818103600083015261496081614924565b9050919050565b7f526571756573742077696c6c20657863656564206d617820737570706c792100600082015250565b600061499d601f83613205565b91506149a882614967565b602082019050919050565b600060208201905081810360008301526149cc81614990565b9050919050565b60006149de82613403565b91506149e983613403565b92508263ffffffff03821115614a0257614a01613e0d565b5b828201905092915050565b7f4552433732313a207472616e7366657220746f206e6f6e20455243373231526560008201527f63656976657220696d706c656d656e7465720000000000000000000000000000602082015250565b6000614a69603283613205565b9150614a7482614a0d565b604082019050919050565b60006020820190508181036000830152614a9881614a5c565b9050919050565b6000614aaa826130f7565b9150614ab5836130f7565b925082614ac557614ac4613dde565b5b828206905092915050565b600081519050919050565b600082825260208201905092915050565b6000614af782614ad0565b614b018185614adb565b9350614b11818560208601613216565b614b1a81613249565b840191505092915050565b6000608082019050614b3a6000830187613340565b614b476020830186613340565b614b546040830185613101565b8181036060830152614b668184614aec565b905095945050505050565b600081519050614b808161316b565b92915050565b600060208284031215614b9c57614b9b613135565b5b6000614baa84828501614b71565b91505092915050565b7f4e487b7100000000000000000000000000000000000000000000000000000000600052603160045260246000fd5b7f4552433732313a206d696e7420746f20746865207a65726f2061646472657373600082015250565b6000614c18602083613205565b9150614c2382614be2565b602082019050919050565b60006020820190508181036000830152614c4781614c0b565b9050919050565b7f4552433732313a20746f6b656e20616c7265616479206d696e74656400000000600082015250565b6000614c84601c83613205565b9150614c8f82614c4e565b602082019050919050565b60006020820190508181036000830152614cb381614c77565b905091905056fea2646970667358221220e2b71eac48c49c9ec16f871aefc8f5f19c19a2721484c2250101c372caf0293764736f6c634300080b0033",
  "immutableReferences": {},
  "source": "// SPDX-License-Identifier: MIT\r\npragma solidity >=0.4.22 <0.9.0;\r\n\r\n/*\r\nCovered Call Contracts For OG Social Club https://discord.gg/tailopeznft \r\nBy: Chillininvt_OGC John Anderson Vermont Internet Design LLC, Vermont DEFI\r\n\r\nOn Request for prototype code by Dr. Alex Mehr on Ama Session on March 30, 2022\r\n\r\n */\r\n// Developed By https://www.vermontdefi.com  \r\n\r\nimport \"@openzeppelin/contracts/utils/Context.sol\";\r\nimport \"@openzeppelin/contracts/utils/Counters.sol\";\r\nimport \"@openzeppelin/contracts/utils/Address.sol\";\r\nimport \"@openzeppelin/contracts/utils/Strings.sol\";\r\nimport \"@openzeppelin/contracts/utils/cryptography/ECDSA.sol\";\r\nimport \"@openzeppelin/contracts/access/Ownable.sol\";\r\nimport \"@openzeppelin/contracts/token/ERC721/IERC721Receiver.sol\";\r\nimport \"@openzeppelin/contracts/utils/introspection/IERC165.sol\";\r\nimport \"@openzeppelin/contracts/interfaces/IERC2981.sol\";\r\nimport \"@openzeppelin/contracts/interfaces/IERC721Enumerable.sol\";\r\nimport \"@openzeppelin/contracts/token/ERC721/IERC721.sol\";\r\nimport \"@openzeppelin/contracts/token/ERC721/ERC721.sol\";\r\nimport \"@openzeppelin/contracts/token/ERC721/extensions/IERC721Metadata.sol\";\r\nimport \"@openzeppelin/contracts/token/ERC721/extensions/ERC721Enumerable.sol\";\r\n// File: contracts/CryptoPixelNFT.sol\r\ncontract TestNFT is IERC2981, ERC721Enumerable, Ownable {\r\n    using Strings for uint256;\r\n    using Counters for Counters.Counter;\r\n    Counters.Counter _tokenIdTracker;\r\n    string public baseURI = 'http://vermontdefi.com/nft/json/';\r\n    uint16 public reserve = 500;\r\n    uint public mintPrice = 20000000000000000;\r\n    uint256 public additionalFees = 0;\r\n    bool public mintingEnabled = false;\r\n    bool internal locked;\r\n    modifier noReentry() {\r\n        require(!locked, \"No re-entrancy\");\r\n        locked = true;\r\n        _;\r\n        locked = false;\r\n    }\r\n    \r\n    mapping(address => uint32) public addressMintedBalance;\r\n    \r\n    event event_withdrawal(address indexed user, uint etherAmount, uint depositTime);\r\n    event event_placeorder(address indexed user, uint etherAmount, uint orderTime);\r\n    event event_setmintprice(uint mintprice);\r\n    event event_setfee(uint additionalfee); \r\n    \r\n    constructor() ERC721(\"TestNFT\", \"TNFT\") { }\r\n    receive() external payable {}    \r\n    fallback() external payable {}\r\n\r\n    function supportsInterface(bytes4 _interfaceId) public view virtual override(IERC165, ERC721Enumerable) returns (bool) {\r\n        return _interfaceId == type(IERC2981).interfaceId || super.supportsInterface(_interfaceId);\r\n    }\r\n    function royaltyInfo(uint256 _tokenId, uint256 _salePrice) external view override returns (address receiver, uint256 royaltyAmount) {\r\n        require(_exists(_tokenId), \"ERC2981RoyaltyStandard: Royalty info for nonexistent token\");\r\n        return (owner(), _salePrice / 10); // 10 percent\r\n    }   \r\n\r\n    // public\r\n    function setMintPrice(uint  _mintPrice) public onlyOwner{\r\n          mintPrice = _mintPrice;\r\n          emit event_setmintprice( _mintPrice); \r\n           \r\n    }\r\n    function getMintPrice() public view returns (uint){\r\n         return mintPrice;\r\n    }\r\n    function setFeePrice(uint _additionalFee) public onlyOwner{\r\n          additionalFees = _additionalFee;\r\n          emit event_setfee( _additionalFee);            \r\n    }\r\n    function getFeePrice() public view returns (uint){\r\n         return additionalFees;\r\n    }\r\n    function mint(uint32 _mintAmount) private{ \r\n        require(totalSupply() + _mintAmount < 16_500, \"Request will exceed max supply!\");\r\n         addressMintedBalance[msg.sender] += 1;\r\n         _safeMint(msg.sender, _tokenIdTracker.current());\r\n         _tokenIdTracker.increment();\r\n    }\r\n\r\n    function _mintLoop(address to, uint32 amount) private {\r\n        addressMintedBalance[to] += amount;\r\n        for (uint i; i < amount; i++ ) {\r\n            _safeMint(to, _tokenIdTracker.current());\r\n            _tokenIdTracker.increment();\r\n        }\r\n    }\r\n    function getTokenId() external view returns(uint){\r\n        return _tokenIdTracker.current();\r\n    }\r\n    function placeOrder(uint32 _mintAmount, uint _miscFees) public payable noReentry returns (bool){\r\n           require(mintingEnabled == true);  \r\n           require(_mintAmount > 0 , 'You Must Mint at least one nft');\r\n           uint orderTotal =  uint(mintPrice) * uint(_mintAmount) + uint(_miscFees) + uint(additionalFees);\r\n           require(msg.value >= orderTotal, \"Ethereum amount sent is not enough!\");\r\n           mint(1);\r\n           emit event_placeorder(msg.sender, msg.value, block.timestamp);\r\n           return true;\r\n        \r\n    }\r\n   \r\n\r\n    function walletOfOwner(address _owner) public view returns (uint256[] memory)\r\n    {\r\n        uint256 ownerTokenCount = balanceOf(_owner);\r\n        uint256[] memory tokenIds = new uint256[](ownerTokenCount);\r\n        for (uint256 i; i < ownerTokenCount; i++) {\r\n            tokenIds[i] = tokenOfOwnerByIndex(_owner, i);\r\n        }\r\n        return tokenIds;\r\n    }\r\n\r\n    function tokenURI(uint256 tokenId) public view override returns (string memory)\r\n    {\r\n        require(_exists(tokenId), \"ERC721Metadata: URI query for nonexistent token\");\r\n        return string(abi.encodePacked(baseURI, tokenId.toString(), \".json\"));\r\n    }\r\n\r\n    //only owner\r\n    function ownerMintFromReserve(address mintto, uint16 amount) public onlyOwner {\r\n        require(reserve >= amount, \"Not enough tokens left in reserve!\");\r\n        _mintLoop(mintto, amount);\r\n        reserve -= amount;\r\n    }\r\n\r\n    function setBaseURI(string memory _newBaseURI) external onlyOwner {\r\n        baseURI = _newBaseURI;\r\n    } \r\n\r\n    function toggleMinting() external onlyOwner {\r\n        mintingEnabled = !mintingEnabled;\r\n    }\r\n\r\n   function withdraw() external onlyOwner noReentry{   \r\n        uint balance = address(this).balance;\r\n        bool success = payable(msg.sender).send(address(this).balance);\r\n        require(success, \"Payment did not go through!\");\r\n        emit event_withdrawal(msg.sender, block.timestamp, balance);\r\n    }\r\n    \r\n    function getBalance() public view returns (uint) {\r\n        return address(this).balance;\r\n    }\r\n}",
  "sourcePath": "C:\\Users\\Customer\\Desktop\\Clients\\VTDefiRepo\\vermontdefi\\contracts\\TestNFT.sol",
  "compiler": {
    "name": "solc",
    "version": "0.8.11+commit.d7f03943.Emscripten.clang"
  },
  "schemaVersion": "3.4.4",
  "updatedAt": "2022-04-02T23:25:00.429Z",
  "devdoc": {
    "kind": "dev",
    "methods": {
      "approve(address,uint256)": {
        "details": "See {IERC721-approve}."
      },
      "balanceOf(address)": {
        "details": "See {IERC721-balanceOf}."
      },
      "getApproved(uint256)": {
        "details": "See {IERC721-getApproved}."
      },
      "isApprovedForAll(address,address)": {
        "details": "See {IERC721-isApprovedForAll}."
      },
      "name()": {
        "details": "See {IERC721Metadata-name}."
      },
      "owner()": {
        "details": "Returns the address of the current owner."
      },
      "ownerOf(uint256)": {
        "details": "See {IERC721-ownerOf}."
      },
      "renounceOwnership()": {
        "details": "Leaves the contract without owner. It will not be possible to call `onlyOwner` functions anymore. Can only be called by the current owner. NOTE: Renouncing ownership will leave the contract without an owner, thereby removing any functionality that is only available to the owner."
      },
      "safeTransferFrom(address,address,uint256)": {
        "details": "See {IERC721-safeTransferFrom}."
      },
      "safeTransferFrom(address,address,uint256,bytes)": {
        "details": "See {IERC721-safeTransferFrom}."
      },
      "setApprovalForAll(address,bool)": {
        "details": "See {IERC721-setApprovalForAll}."
      },
      "symbol()": {
        "details": "See {IERC721Metadata-symbol}."
      },
      "tokenByIndex(uint256)": {
        "details": "See {IERC721Enumerable-tokenByIndex}."
      },
      "tokenOfOwnerByIndex(address,uint256)": {
        "details": "See {IERC721Enumerable-tokenOfOwnerByIndex}."
      },
      "tokenURI(uint256)": {
        "details": "See {IERC721Metadata-tokenURI}."
      },
      "totalSupply()": {
        "details": "See {IERC721Enumerable-totalSupply}."
      },
      "transferFrom(address,address,uint256)": {
        "details": "See {IERC721-transferFrom}."
      },
      "transferOwnership(address)": {
        "details": "Transfers ownership of the contract to a new account (`newOwner`). Can only be called by the current owner."
      }
    },
    "version": 1
  },
  "userdoc": {
    "kind": "user",
    "methods": {},
    "version": 1
  }
}